:100000000C9482000C94AA000C94AA000C94AA00F0
:100010000C9489070C94AD070C94D1070C94F50748
:100020000C94AA000C94AA000C94AA000C94AA00A8
:100030000C94AA000C94AA000C94AA000C94AA0098
:100040000C94AA000C94AA000C943E0C0C94AA00E8
:100050000C94120F0C949C0F0C94AA000C94AA0000
:100060000C94AA000C94AA000C948F0A0C94AA0079
:100070000C94C20F0C944C100C94AA0000002100A8
:10008000240027002A0000002200250028002B0061
:1000900000002000230026002900040404040202BA
:1000A0000202040402020202030303030303030324
:1000B000040401010101010101010102040801021E
:1000C00004084020102040808040201008040201D5
:1000D0001080804020100804020100000000000091
:1000E000000108030200090A0000000000000000EF
:1000F00004070000000000000000D800F109550FBF
:100100000510D10011241FBECFEFD0E1DEBFCDBF5F
:1001100015E0A0E0B1E0E8E2FCE202C005900D923B
:10012000AA34B107D9F71BE0AAE4B5E001C01D92DB
:10013000A73EB107E1F710E0C2E0D1E004C022978A
:10014000FE010E94D113CA3FD107C9F70E94BD0525
:100150000C9407160C94000081309105A1F46F5F98
:100160007F4FF1F48AE495E066E040E00E94A00948
:1001700086E695E00E949A0683E196E060E071E0F1
:100180000E940D130895892B59F46F5F7F4F41F43E
:1001900083E196E00E9479138AE495E00E940109C8
:1001A000089580E090E06FEF7FEF0E94AC0008952B
:1001B00081E090E06FEF7FEF0E94AC00089504C0F3
:1001C00084E899E00E947B0E84E899E00E94570E33
:1001D000892BB1F70895EF92FF920F931F93DF934E
:1001E000CF9300D000D000D0CDB7DEB78E010F5F27
:1001F0001F4FC80169E271E00E940D13F02EE12E3D
:1002000009C084E899E00E947B0E682F8F2D9E2DF7
:100210000E947D1284E899E00E94570E1816190674
:1002200084F385E297E06F2D7E2D0E94A21184E871
:1002300099E00E94570E182F092F8F2D9E2D0E9496
:100240007913812F902F26960FB6F894DEBF0FBE3C
:10025000CDBFCF91DF911F910F91FF90EF90089547
:10026000AF92BF92CF92DF92EF92FF920F931F93C4
:10027000DF93CF9300D000D000D0CDB7DEB7FC0124
:100280005B017A01690184E899E0BF010E949C103A
:100290000027F7FC0095102FC801B7010E94E70C5A
:1002A00000E010E014C00F5F1F4F83E0083E180706
:1002B00041F485E297E06AE271E00E94B61110E035
:1002C0004EC06AE070E080E090E00E94E70C84E8B5
:1002D00099E00E94570E892B31F38E010F5F1F4F5B
:1002E000C80169E271E00E940D13C60169E271E084
:1002F0000E943F1324C084E899E00E947B0E682F7F
:10030000C8010E947D12C801B5010E94F81188231E
:10031000B1F0C601B8010E94581308C084E899E002
:100320000E947B0E682FC6010E947D1284E899E02E
:100330000E94570E181619068CF311E00CC084E8C1
:1003400099E00E94570E18161906ACF2C601B801C2
:100350000E94581310E0CE0101960E947913812F5C
:1003600026960FB6F894DEBF0FBECDBFCF91DF91BA
:100370001F910F91FF90EF90DF90CF90BF90AF90C3
:1003800008954F925F926F927F928F929F92AF9259
:10039000BF92CF92DF92EF92FF921F93DF93CF93A2
:1003A000CDB7DEB72C970FB6F894DEBF0FBECDBF2A
:1003B0002C013B014A0159016E010894C11CD11C5A
:1003C00087E0E82EF12CEC0EFD1EC601B2010E9462
:1003D0006F13C701B3010E946F13C601B701A401D7
:1003E00095010E943001182FC7010E947913C601A0
:1003F0000E94791385E297E0B5010E94A21184E87A
:1004000099E00E94B00E0E94DF001123F1F22C96B9
:100410000FB6F894DEBF0FBECDBFCF91DF911F9115
:10042000FF90EF90DF90CF90BF90AF909F908F9014
:100430007F906F905F904F9008956F927F928F9210
:100440009F92AF92BF92CF92DF92EF92FF920F9363
:100450001F93DF93CF93CDB7DEB7C857D0400FB609
:10046000F894DEBF0FBECDBF782E692E4B015E0122
:100470000894A11CB11CC50169E271E00E940D1332
:1004800087E0E82EF12CEC0EFD1EC70166E771E057
:100490000E940D138E01035F1F4FC80162E471E0DB
:1004A0000E940D13C701B80144EF51E095010E946D
:1004B0003001C8010E947913C7010E94791303E13A
:1004C000E02EF12CEC0EFD1EC70161E871E00E94E8
:1004D0000D138E01075E1F4FC80162E471E00E9498
:1004E0000D13C701B80144EF51E095010E94C1010D
:1004F000C8010E947913C7010E9479131FE1E12E00
:10050000F12CEC0EFD1EC7016EE871E00E940D1388
:100510008E010B5D1F4FC80162E471E00E940D1354
:10052000C701B80144EF51E095010E94C101C80123
:100530000E947913C7010E947913BBE2EB2EF12CC4
:10054000EC0EFD1EC70169E971E00E940D138E01DA
:100550000F5C1F4FC80168EA71E00E940D13C701CC
:10056000B80144EF51E095010E943001C8010E949A
:100570007913C7010E947913A7E3CA2ED12CCC0EA0
:10058000DD1EC60169E271E00E940D1385E297E06D
:1005900067EB71E00E94B6118E01035C1F4FC8012A
:1005A00061ED71E00E942613C801B4010E94D612C9
:1005B0006BEE71E00E94BA12BC01C6010E94581392
:1005C000C8010E947F13C60166EF71E00E9490127D
:1005D000C60160E372E00E949012C60160E572E01D
:1005E0000E949012C60166E672E00E9490128E018F
:1005F0000D5B1F4FC80169E772E00E942613C80116
:1006000063E176E00E94D61269E872E00E94BA12B5
:10061000BC01C6010E94A012C8010E947F1385E29E
:1006200097E0B6010E949C10F9E4EF2EF12CEC0E3D
:10063000FD1EC701B6010E946F138E01015B1F4FA3
:10064000C80162E471E00E940D13C701B80144EFD4
:1006500051E095010E943001C8010E947913C70141
:100660000E947913E5E5EE2EF12CEC0EFD1EC7017C
:10067000B6010E946F138E01055A1F4FC80162E434
:1006800071E00E940D13C701B80144EF51E09501DC
:100690000E943001C8010E947913C7010E9479139A
:1006A00071E6E72EF12CEC0EFD1EC7016DE872E03D
:1006B0000E940D138E0109591F4FC8016DE972E0A8
:1006C0000E940D13C701B80144EF51E095010E944B
:1006D000C101C8010E947913C7010E947913872DB7
:1006E000962DB5010E946F13872D962D60E070E066
:1006F0004AE850E00E94C9110E94EB001816190642
:10070000DCF38E0103591F4FC80166E771E00E94B8
:100710000D1363E7E62EF12CEC0EFD1EC70162E41B
:1007200071E00E940D13C801B70144EF51E06E0162
:100730000894C11CD11C96010E94C101C7010E94EE
:100740007913C8010E94791385E297E067EA72E0A5
:100750000E94B611CE01C7960E947913C6010E946D
:100760007913872D962DC858DF4F0FB6F894DEBF4A
:100770000FBECDBFCF91DF911F910F91FF90EF90F2
:10078000DF90CF90BF90AF909F908F907F906F90B1
:100790000895CF92DF92EF92FF920F931F93DF9312
:1007A000CF93CDB7DEB7C059D0400FB6F894DEBFB7
:1007B0000FBECDBFCE01019669E271E00E940D131C
:1007C00085E297E040E052EC61E070E026E00E94B4
:1007D000F30D05E010E085E297E0B8014AE050E053
:1007E0000E9483116AEF70E080E090E00E94E70CC5
:1007F0000150104081F785E297E063EB73E00E94BF
:10080000B61185E297E067ED73E00E94B6118CE0C7
:1008100060E00E94900D8AE061E00E94240D8AE071
:1008200060E00E94900D64E975E780E090E00E942E
:10083000E70C85E297E06FEE73E00E94B61184E862
:1008400099E040E052EC61E070E026E00E94F30D98
:1008500085E297E06BE074E00E94B61147E0E42E79
:10086000F12CEC0EFD1EC7016BE174E00E940D132C
:100870008E01035F1F4FC80162E471E00E940D13F7
:10088000C701B80144E650E06E010894C11CD11CB8
:1008900096010E94C101C8010E947913C7010E94FC
:1008A000791333E1E32EF12CEC0EFD1EC7016FE14D
:1008B00074E00E940D138E01075E1F4FC80162E4B1
:1008C00071E00E940D13C701B80144EF51E0960199
:1008D0000E94C101C8010E947913C7010E947913C7
:1008E00085E297E065E274E00E94B6112FE1E22E06
:1008F000F12CEC0EFD1EC70164E374E00E940D13A1
:100900008E010B5D1F4FC80162E471E00E940D1360
:10091000C701B80144EF51E096010E94C101C8012E
:100920000E947913C7010E9479139BE2E92EF12CF2
:10093000EC0EFD1EC70162E474E00E940D138E01EF
:100940000F5C1F4FC80162E471E00E940D13C701E4
:10095000B80144EF51E096010E94C101C8010E9414
:100960007913C7010E94791387E3E82EF12CEC0E6E
:10097000FD1EC7016EE474E00E940D138E01035C3E
:100980001F4FC80162E471E00E940D13C701B80156
:1009900048EE53E096010E94C101C8010E947913FC
:1009A000C7010E94791385E297E069E574E00E942F
:1009B000B61103E4E02EF12CEC0EFD1EC70166E734
:1009C00071E00E940D138E01075B1F4FC80162E4A6
:1009D00071E00E940D13C701B80144EF51E0960188
:1009E0000E943001C8010E947913C7010E94791347
:1009F0001FE4E12EF12CEC0EFD1EC70160E774E050
:100A00000E940D138E010B5A1F4FC80162E471E062
:100A10000E940D13C701B80144EF51E096010E94F6
:100A2000C101C8010E947913C7010E947913BBE577
:100A3000EB2EF12CEC0EFD1EC7016EE874E00E9457
:100A40000D138E010F591F4FC80162E471E00E941F
:100A50000D13C701B80144EF51E096010E94C10196
:100A6000C8010E947913C7010E947913A7E6EA2EF4
:100A7000F12CEC0EFD1EC70163EA74E00E940D1319
:100A80008E0103591F4FC80162E471E00E940D13EB
:100A9000C701B80144EF51E096010E94C101C801AD
:100AA0000E947913C7010E94791360E177E280E028
:100AB00090E00E94E70CF3E7EF2EF12CEC0EFD1E08
:100AC000C7016AE371E00E940D138E0107581F4FA2
:100AD000C80162E471E00E940D13C701B80144EF40
:100AE00051E096010E94C101C8010E947913C7011B
:100AF0000E947913EFE7EE2EF12CEC0EFD1EC701DC
:100B000066ED74E00E940D138E010B571F4FC80154
:100B100062E471E00E940D13C701B80144EF51E097
:100B200096010E94C101C8010E947913C7010E9469
:100B300079138E0105571F4FC80169E271E00E94C9
:100B40000D1360ED77E080E090E00E94E70CC801B3
:100B50000E947913C6010E947913C057DF4F0FB668
:100B6000F894DEBF0FBECDBFCF91DF911F910F91E3
:100B7000FF90EF90DF90CF900895CF92DF92EF92A9
:100B8000FF920F931F93DF93CF93CDB7DEB7E69716
:100B90000FB6F894DEBF0FBECDBF0E94AC0C82EA48
:100BA00096E00E94690A85E297E040E052EC61E03D
:100BB00070E026E00E94F30D85E297E06FED74E0AF
:100BC0000E94B611549A5C9A569A5E9A6E010894E5
:100BD000C11CD11CC60169E271E00E940D130E9484
:100BE000C90368EC70E080E090E00E94E70C8E01A1
:100BF000095F1F4FC80166EE74E00E940D13EDE01F
:100C0000EE2EF12CEC0EFD1EC701B8010E941D0254
:100C1000C7010E947913C8010E94791360E47FE143
:100C200080E090E00E94E70C73E1E72EF12CEC0EDF
:100C3000FD1EC7016CEE74E00E940D138E01075E6D
:100C40001F4FC80165EF74E00E940D13C701B80182
:100C500044EF51E096010E94C101C8010E9479133E
:100C6000C7010E9479138AE060E00E94240D60EDC4
:100C700077E080E090E00E94E70C0E94C9038E01BB
:100C8000015E1F4FC80166EE74E00E940D1365E21D
:100C9000E62EF12CEC0EFD1EC701B8010E941D02CC
:100CA000C7010E947913C8010E9479135BE2E52E07
:100CB000F12CEC0EFD1EC7016CEE74E00E940D13CA
:100CC0008E010F5C1F4FC80165EF74E00E940D1389
:100CD000C701B80144EF51E096010E94C101C8016B
:100CE0000E947913C7010E9479138AE060E00E9494
:100CF000240DFFCFFC011082118213821282148214
:100D00001582168217821086128611861386148623
:100D1000158616861786118A108A128A138A148AF3
:100D2000158A168A108E178A118E128E138E148EC3
:100D3000158E08950F931F938C010E947A06F80177
:100D400012A213A214A215A216A217A210AA11AAE7
:100D500012AA13AA14AA15AA16AE17AE0C5B1F4F3F
:100D6000F8011082118212821382085F1F4FF8016E
:100D700011928F0110820B5F1F4FF80110821182B8
:100D800012821382085F1F4FF80111928F011082A7
:100D90000B5F1F4FF8011082118212821382085FCD
:100DA0001F4FF80111928F0110820B5F1F4FF80146
:100DB0001082118212821382085F1F4FF801119274
:100DC0008F0110820B5F1F4FF80110821182128277
:100DD0001382085F1F4FF80111928F011082005F8C
:100DE0001F4F82E0F801819311921192119211929A
:100DF00011921192119211921192119211921192DB
:100E000011921192119211921192119211928F01DD
:100E1000108211821282138203521040F801108254
:100E20001F910F91089580E090E008950F931F9314
:100E3000CF93DF93FC01838DA685B7859585082F19
:100E4000027081FF05C08C91892309F454C004C04D
:100E50008C91892309F04FC08389948920E0019700
:100E60002FEF8F3F9207D9F7C589D689A685B78519
:100E7000758560E031E040E050E010E0CE01212FC8
:100E800001972FEF8F3F9207D9F78C91872311F0AD
:100E9000632B03C0832F80956823330F4F5F5F4F11
:100EA0004830510559F78789908D20E001972FEF41
:100EB0008F3F9207D9F70111609580915B062091D1
:100EC0005C0690E001968F73907030E08217930774
:100ED00079F0E0915B06F0E0E55EF94F6083809188
:100EE0005B0690E001968F73907080935B0603C061
:100EF000838D8160838FDF91CF911F910F91089532
:100F00008091190690911A06009711F00E94160719
:100F100008951F920F920FB60F9211242F933F93B3
:100F20004F935F936F937F938F939F93AF93BF93F1
:100F3000EF93FF930E948007FF91EF91BF91AF91D4
:100F40009F918F917F916F915F914F913F912F91E1
:100F50000F900FBE0F901F9018951F920F920FB613
:100F60000F9211242F933F934F935F936F937F932F
:100F70008F939F93AF93BF93EF93FF930E9480074C
:100F8000FF91EF91BF91AF919F918F917F916F9161
:100F90005F914F913F912F910F900FBE0F901F9037
:100FA00018951F920F920FB60F9211242F933F9313
:100FB0004F935F936F937F938F939F93AF93BF9361
:100FC000EF93FF930E948007FF91EF91BF91AF9144
:100FD0009F918F917F916F915F914F913F912F9151
:100FE0000F900FBE0F901F9018951F920F920FB683
:100FF0000F9211242F933F934F935F936F937F939F
:101000008F939F93AF93BF93EF93FF930E948007BB
:10101000FF91EF91BF91AF919F918F917F916F91D0
:101020005F914F913F912F910F900FBE0F901F90A6
:101030001895FC018485803208F0E2C0882309F409
:1010400071C0813009F46EC0823009F46BC0833006
:1010500009F4CAC0843009F4CAC0853009F4C7C095
:10106000863009F4C4C0873009F4C1C0883009F45F
:10107000BBC0893009F4B8C08A3009F4B8C08B30DD
:1010800009F4B5C08C3009F4B2C08D3009F4AFC09A
:101090008E3009F4AFC08F3009F4ACC0803109F450
:1010A000A9C0813109F4A6C0823109F4A3C08331FB
:1010B00009F4A0C0843109F49DC0853109F49AC0B7
:1010C000863109F491C0873109F08BC08DC084301E
:1010D00089F1853079F1863069F1873059F18830AE
:1010E00031F1893021F18A3029F18B3019F18C30BE
:1010F00009F18D30F9F08E3001F18F30F1F080314F
:10110000E1F08131D1F08231C1F08331B1F084312D
:10111000A1F0853191F0863151F0873141F0EBE655
:10112000F0E00DC0E3E7F0E0A3E7B0E008C0E3E7DC
:10113000F0E005C0ECE6F0E002C0EDE6F0E0908102
:10114000882309F440C08130E1F18230F1F183302D
:10115000F1F18430C1F18530A1F18630B1F18730F1
:10116000B1F18830B1F18930B1F18A30B1F18B3011
:1011700091F18C3071F18D30B1F08E30A1F08F3063
:1011800041F1803141F1813141F1823101F183310D
:10119000E1F08431B1F08531B1F08631F1F0873181
:1011A00011F0883111F48FE719C0893191F08A313B
:1011B00091F08B3191F08C3151F08D3131F08E31D5
:1011C00011F48DEF0BC08EEF09C08BEF07C087EFD6
:1011D00005C08FEB03C08FED01C08FEE89238C9388
:1011E0000895ABE6B0E008C0A3E7B0E005C0ACE608
:1011F000B0E002C0ADE6B0E0833009F068CF97CF31
:101200000895FC0188E195E091838083CF010E94DD
:10121000190808952091190630911A0628173907E0
:1012200031F490915C0680915B06981719F42FEFCA
:101230003FEF0FC0E0915C06F0E0E55EF94F2081E2
:1012400080915C0690E001968F73907080935C06AD
:1012500030E0C90108952091190630911A06281727
:10126000390719F020E030E00EC080915B06209134
:101270005C0690E0805C9F4F821B910960E470E007
:101280000E9486139C01C901089580E090E00895B2
:101290002091190630911A062817390749F49FB78B
:1012A000F89410925B0680915B0680935C069FBF6A
:1012B00008952091190630911A062817390731F43C
:1012C00090915C0680915B06981719F42FEF3FEF21
:1012D0000AC0E0915C06F0E0E55EF94F8081282FBE
:1012E000332727FD3095C90108951F93CF93DF93CE
:1012F000EC01162F862F60E00E94240D8B8D81FD5E
:1013000004C0812F61E00E94900D1C87212F30E0E6
:10131000C90186549F4FFC0184918D8726563F4F0B
:10132000F9016491E62FF0E0EE0FFF1FE057FF4F49
:10133000859194919F878E87DF91CF911F9108951A
:10134000FC011382128288EE93E0A0E0B0E0848377
:101350009583A683B78388E195E091838083148A7F
:10136000138A168A158A108E178A128E118E838D13
:101370004170440F8C7F842B838FCF010E947509AD
:10138000089520917E0630E080917D06281B31096A
:10139000C901089540917D0680917E06481718F096
:1013A0002FEF3FEF0AC0E42FF0E0E35AF94F8081BE
:1013B000282F30E04F5F40937D06C9010895E091EA
:1013C0007D0680917E06E81718F0EFEFFFEF06C06C
:1013D000F0E0E35AF94F8081E82FF0E0CF01089563
:1013E00008951092A5061092A40688EE93E0A0E05E
:1013F000B0E08093A6069093A706A093A806B093AA
:10140000A9068AE295E09093A3068093A206089528
:10141000CF92DF92EF92FF920F931F93CF93DF93C0
:101420007C016B018A018091A1068823A1F0C0E0B4
:10143000D0E00DC0D701ED91FC91D601AC0FBD1FDE
:101440000190F081E02DC7016C9109952196C0179C
:10145000D10780F304C0CB01642F0E94740AC80135
:10146000DF91CF911F910F91FF90EF90DF90CF9080
:101470000895DF93CF930F92CDB7DEB7FC01698358
:101480008091A1068823C9F08091A006803238F0AF
:1014900081E090E09383828320E030E015C080916A
:1014A0009F06E82FF0E0E158F94F998190838F5F14
:1014B00080939F068093A00605C0CE01019661E04F
:1014C0000E94740A21E030E0C9010F90CF91DF91B2
:1014D000089510927D0610927E0610929F0610923B
:1014E000A0060E94200C0895482F613210F081E080
:1014F00008958091AE06843011F082E008956093E3
:10150000F906A8EDB6E0842F9C01F90102C0819193
:101510008D938E2F841B8617D0F380E008951F9241
:101520000F920FB60F9211242F933F934F935F9317
:101530006F937F938F939F93AF93BF93EF93FF939B
:101540008091B90090E0887F90708036910509F411
:10155000F2C081369105CCF58832910509F47BC043
:1015600089329105B4F48031910509F46FC081315D
:1015700091053CF4009709F447C1089709F04FC161
:1015800065C08831910509F466C0809709F047C1AC
:1015900082C08034910509F4A4C08134910544F4DB
:1015A0008033910509F482C0C89709F038C189C019
:1015B0008035910509F489C08835910509F496C0F4
:1015C0008834910509F02BC1AEC08839910509F422
:1015D00013C189399105ECF48837910509F4ABC042
:1015E000893791054CF48836910509F4A4C08037F9
:1015F000910509F014C19FC08838910509F4FCC019
:101600008039910509F49DC08038910509F007C122
:1016100098C0803B910509F4C6C0813B91054CF40C
:10162000803A910509F49FC0883A910509F0F7C006
:10163000BAC0803C910509F4E3C0883C910509F4E7
:10164000DFC0883B910509F0EAC0C2C08091AF06B7
:101650008093BB00CFC09091D6068091D706981793
:1016600068F49091D606E92FF0E0EA54F94F8081B2
:101670008093BB009F5F9093D606BCC08091B0065C
:10168000882309F44BC085ED8093BC008091BC0099
:1016900084FDFCCFC2C080E280931B0785ED809360
:1016A000BC008091BC0084FDFCCFB7C080E3809378
:1016B0001B0785ED8093BC008091BC0084FDFCCFAE
:1016C000ACC088E380931B079BC08091D6069091A5
:1016D000BB00E82FF0E0EA54F94F90838F5F8093CE
:1016E000D6069091D6068091D70682C08091D60604
:1016F0009091BB00E82FF0E0EA54F94F90838F5FA0
:101700008093D6068091B006882341F085ED8093C2
:10171000BC008091BC0084FDFCCF7FC081E0809341
:10172000B10684EA6EC085ED8093BC008091BC0058
:1017300084FDFCCF72C083E08093AE0610921A073E
:1017400059C080911A07803208F056C080911A075C
:101750009091BB00E82FF0E0E650F94F90838F5F47
:1017600080931A0747C080911A07803230F4E091C5
:101770001A07F0E0E650F94F108285ED8093BC0027
:101780008091BC0084FDFCCF1092AE0660911A07D8
:10179000E091B406F091B5068AEF96E070E0099505
:1017A00010921A072DC084E08093AE061092F806BE
:1017B0001092F906E091B206F091B3060995809176
:1017C000F906882329F481E08093F9061092D8065F
:1017D0009091F806E92FF0E0E852F94F808180936C
:1017E000BB009F5F9093F8069091F8068091F906F0
:1017F000981710F485EC01C085E88093BC000FC0F9
:1018000085EC8093BC0009C010921B0785ED809386
:10181000BC008091BC0084FDFCCF1092AE06FF910D
:10182000EF91BF91AF919F918F917F916F915F9158
:101830004F913F912F910F900FBE0F901F901895D1
:101840001092AE0681E08093B0061092B10684E15A
:1018500061E00E94900D85E161E00E94900DE9EB4E
:10186000F0E080818E7F808380818D7F808388E41B
:101870008093B80085E48093BC0008951F920F9276
:101880000FB60F9211242F933F938F939F93AF9393
:10189000BF938091200790912107A0912207B091DA
:1018A0002307309124070196A11DB11D232F2D5F21
:1018B0002D3720F02D570196A11DB11D209324072F
:1018C0008093200790932107A0932207B0932307CA
:1018D00080911C0790911D07A0911E07B0911F07D2
:1018E0000196A11DB11D80931C0790931D07A09325
:1018F0001E07B0931F07BF91AF919F918F913F91AA
:101900002F910F900FBE0F901F9018959FB7F894CE
:1019100020911C0730911D0740911E0750911F0711
:1019200086B5A89B06C08F3F21F02F5F3F4F4F4FDA
:101930005F4F9FBF542F432F322F2227280F311D77
:10194000411D511D82E0220F331F441F551F8A95F0
:10195000D1F7B901CA010895789484B5826084BD35
:1019600084B5816084BD85B5826085BD85B58160A3
:1019700085BDEEE6F0E0808181608083E1E8F0E003
:101980001082808182608083808181608083E0E832
:10199000F0E0808181608083E1EBF0E08081846011
:1019A0008083E0EBF0E0808181608083EAE7F0E013
:1019B0008081846080838081826080838081816077
:1019C00080838081806880831092C1000895AF92E7
:1019D000BF92CF92DF92EF92FF920F931F937B0102
:1019E0008C010E94860C5B016C0120C00E94851353
:1019F00012C00894E108F1080109110988EE93E08A
:101A0000A0E0B0E0A80EB91ECA1EDB1EE114F1046E
:101A10000105110559F00E94860C6A197B098C0991
:101A20009D09685E73408040904018F7E114F1040E
:101A300001051105D9F61F910F91FF90EF90DF90EE
:101A4000CF90BF90AF900895CF93DF93482F50E091
:101A5000CA0186549F4FFC01349146565F4FFA01EC
:101A60008491882369F190E0880F991FFC01E45864
:101A7000FF4FA591B491FC01EA57FF4FC591D49156
:101A8000662351F42FB7F8948C91932F9095892366
:101A90008C93888189230BC0623061F42FB7F8944E
:101AA0008C91932F909589238C938881832B8883A5
:101AB0002FBF06C09FB7F8948C91832B8C939FBF48
:101AC000DF91CF910895833071F0843028F4813014
:101AD000A1F0823021F514C08730B1F08830D1F008
:101AE0008430E9F404C0809180008F7703C0809136
:101AF00080008F7D80938000089584B58F7702C029
:101B000084B58F7D84BD08958091B0008F778093D8
:101B1000B00008958091B0008F7D8093B00008954B
:101B2000FF920F931F93F62E482F50E0CA01865262
:101B30009F4FFC012491CA0186549F4FFC011491D0
:101B400046565F4FFA0104910023C9F0222319F091
:101B5000822F0E94630DE02FF0E0EE0FFF1FEA5787
:101B6000FF4FA591B4919FB7F894FF2021F48C9179
:101B70001095812302C08C91812B8C939FBF1F9164
:101B80000F91FF900895DC015E968C915E97FD01A8
:101B9000E80FF11DE15EFD4F20815E968C915E970E
:101BA00090E001968F7390705E968C935E97569638
:101BB000ED91FC91579720835096ED91FC915197B0
:101BC0008081806480835D969C915D975E968C9108
:101BD0005E97981739F45296ED91FC915397808156
:101BE0008F7D80830895DF92EF92FF920F931F9372
:101BF000CF93DF93EC017A018B01D22EE889F9892A
:101C000082E08083403081EE580780E0680780E002
:101C10007807A1F060E079E08DE390E0A8019701FA
:101C20000E949913215030404040504056954795AE
:101C30003795279580E12030380798F0E889F989B1
:101C4000108260E874E88EE190E0A80197010E949C
:101C50009913215030404040504056954795379554
:101C60002795EC85FD853083EE85FF852083188ED2
:101C7000EC89FD89D082EA89FB898081806180833B
:101C8000EA89FB89808188608083EA89FB89808179
:101C900080688083EA89FB8980818F7D8083DF91E2
:101CA000CF911F910F91FF90EF90DF900895FC016D
:101CB000218D328D838D948D281B390B3170C90194
:101CC0000895DC0159962D913C915A975B968D9120
:101CD0009C915C972817390719F42FEF3FEF09C043
:101CE0005B96ED91FC915C97EA0FFB1F878D282F87
:101CF00030E0C9010895DC0159962D913C915A9725
:101D00005B968D919C915C972817390719F42FEFFA
:101D10003FEF12C05B96ED91FC915C97EA0FFB1FC1
:101D2000278D5B968D919C915C97019691705C9646
:101D30009C938E935B9730E0C9010895FC01958DCB
:101D4000868D282F30E0492F50E0981718F0215C3D
:101D50003F4F02C021503040241B350BC90108956C
:101D6000CF93DF93EC01888D882361F419C08C91A7
:101D700085FF0AC0E889F989808185FF05C0CE0109
:101D80000E94C30DAA89BB898C9185FD05C0E88995
:101D9000F989808186FD04C00FB607FEE8CFF4CF35
:101DA000DF91CF9108950F931F93CF93DF93EC01B1
:101DB000062F81E0888F9D8D8E8D981779F5E889A3
:101DC000F989808185FF2AC0EE89FF896083E889CF
:101DD000F989808180641AC00FB607FC08C0E889C1
:101DE000F989808185FF03C0CE010E94C30D8E8DCD
:101DF000181791F38D8DFE01E80FF11DE15EFD4F87
:101E000000831D8FEA89FB8980818062808381E065
:101E100090E0DF91CF911F910F9108951D8D1F5F6D
:101E20001F73E5CF1F920F920FB60F9211242F93BD
:101E30003F934F938F939F93EF93FF93E0913507D9
:101E4000F0913607808182FD1FC0E0913B07F09141
:101E50003C07408120913E0730913F072F5F3F4F65
:101E6000317080914007909141072817390789F018
:101E7000E0913E07F0913F07EB5DF84F478F3093BD
:101E80003F0720933E0705C0E0913B07F0913C07D8
:101E9000E081FF91EF919F918F914F913F912F9111
:101EA0000F900FBE0F901F90189510922807109258
:101EB000270788EE93E0A0E0B0E080932907909395
:101EC0002A07A0932B07B0932C078CE395E09093FF
:101ED00026078093250785EC90E090933207809346
:101EE000310784EC90E0909334078093330780ECC3
:101EF00090E0909336078093350781EC90E09093C3
:101F000038078093370782EC90E090933A078093EC
:101F1000390786EC90E090933C0780933B07109242
:101F20003F0710923E07109241071092400710920F
:101F300042071092430708951F920F920FB60F9217
:101F400011242F933F934F935F936F937F938F93BE
:101F50009F93AF93BF93EF93FF9385E297E00E9427
:101F6000C30DFF91EF91BF91AF919F918F917F91A1
:101F70006F915F914F913F912F910F900FBE0F90F6
:101F80001F9018951F920F920FB60F9211242F9346
:101F90003F934F938F939F93EF93FF93E091940917
:101FA000F0919509808182FD1FC0E0919A09F0911E
:101FB0009B09408120919D0930919E092F5F3F4FE1
:101FC000317080919F099091A0092817390789F0F5
:101FD000E0919D09F0919E09EC57F64F478F3093A1
:101FE0009E0920939D0905C0E0919A09F0919B09F3
:101FF000E081FF91EF919F918F914F913F912F91B0
:102000000F900FBE0F901F90189510928709109295
:10201000860988EE93E0A0E0B0E080938809909371
:102020008909A0938A09B0938B098CE395E090937A
:102030008509809384098DEC90E0909391098093B9
:1020400090098CEC90E0909393098093920988EC2E
:1020500090E0909395098093940989EC90E0909397
:102060009709809396098AEC90E090939909809360
:1020700098098EEC90E090939B0980939A091092B6
:102080009E0910929D091092A00910929F0910922A
:10209000A1091092A20908951F920F920FB60F92F4
:1020A00011242F933F934F935F936F937F938F935D
:1020B0009F93AF93BF93EF93FF9384E899E00E94BF
:1020C000C30DFF91EF91BF91AF919F918F917F9140
:1020D0006F915F914F913F912F910F900FBE0F9095
:1020E0001F901895CF92DF92EF92FF920F931F935C
:1020F000CF93DF937C018B016A01C0E0D0E00FC079
:10210000D701ED91FC910190F081E02DC701D8013C
:102110006C910995892B31F00F5F1F4F2196CC16DA
:10212000DD0671F7CE01DF91CF911F910F91FF90E6
:10213000EF90DF90CF900895CF93DF93FB01EC01F8
:10214000A881B98160817181448155811296ED9198
:10215000FC9113970995DF91CF910895CF93DF9369
:10216000EC016115710519F420E030E00FC0DB01CE
:102170000D900020E9F71197A61BB70BE881F981B4
:102180000280F381E02DAD0109959C01C901DF9129
:10219000CF9108953F924F925F926F927F928F926C
:1021A0009F92AF92BF92CF92DF92EF92FF920F93E6
:1021B0001F93DF93CF93CDB7DEB7A3970FB6F894F5
:1021C000DEBF0FBECDBF9BA38AA3342E452E562E55
:1021D000672E223008F42AE019A281E2C82ED12C01
:1021E000CC0EDD1E822E9924AA24BB24632D742DCF
:1021F000852D962DA50194010E949913762E632DAD
:10220000742D852D962DA50194010E9499137901B5
:102210008A01D801C701382E492E5A2E6B2E0894F8
:10222000C108D10889E087151CF0672D605D02C0E8
:10223000672D695CF6016083E114F1040105110565
:10224000A9F68AA19BA1B6010E94AE10A3960FB673
:10225000F894DEBF0FBECDBFCF91DF911F910F91DC
:10226000FF90EF90DF90CF90BF90AF909F908F90B6
:102270007F906F905F904F903F900895CF92DF9244
:10228000EF92FF920F931F93CF93DF93EC016A01BC
:102290007B012115310541F4E881F9810190F0813C
:1022A000E02D642F09951FC02A303105D1F477FF46
:1022B00017C0E881F9810190F081E02D6DE2099568
:1022C0008C0144275527BA014C195D096E097F0915
:1022D000CE012AE00E94CA109801280F391F04C0BD
:1022E0002AE00E94CA109C01C901DF91CF911F9181
:1022F0000F91FF90EF90DF90CF9008956FEF74E013
:102300000E94AE100895CF92DF92EF92FF920F934A
:102310001F936C017B019A010027F7FC0095102F99
:10232000B801A7010E943E118C01C6010E947E11D6
:10233000080F191FC8011F910F91FF90EF90DF90B8
:10234000CF900895EF92FF920F931F937C010E940C
:102350009C108C01C7010E947E119C01200F311F2F
:10236000C9011F910F91FF90EF900895EF92FF9296
:102370000F931F937C010E94AE108C01C7010E9435
:102380007E11080F191FC8011F910F91FF90EF9048
:102390000895CF93DF93EC01FB018C819D81681739
:1023A000790718F54115510501F19C01261B370BE2
:1023B0004217530708F49A0168817981AC01421BE6
:1023C000530B5D834C832E0F3F1F4E1B5F0BCB01C6
:1023D0008E0F9F1F620F731F0E94C115E881F98144
:1023E0008C819D81E80FF91F1082DF91CF910895B4
:1023F000FC01DB012481358114964D915C91159788
:1024000024173507A8F080819181009789F06D919C
:102410007C916115710561F0241B350B820F931FB0
:102420000E94B1159C0180E0232B19F481E00895EE
:1024300080E008950F931F93CF93DF93EC018B01FE
:102440006F5F7F4F888199810E94DA14009711F4A1
:1024500080E005C0998388831B830A8381E0DF9134
:10246000CF911F910F910895CF93DF93EC01888155
:102470009981892B29F08A819B818617970760F4BF
:10248000CE010E941A12882341F08C819D81892BF4
:1024900019F4E881F981108281E0DF91CF910895EC
:1024A000EF92FF920F931F93CF93DF93EC017B0189
:1024B0006C817D81E114F104C1F04115510599F061
:1024C0008A01060F171FB8010E943412882369F091
:1024D000888199812C813D81820F931FB7010E94D1
:1024E000BA151D830C8381E001C080E0DF91CF919C
:1024F0001F910F91FF90EF900895DF93CF9300D03D
:10250000CDB7DEB769831A82BE016F5F7F4F41E0AE
:1025100050E00E9450120F900F90CF91DF910895DC
:102520006115710511F480E00895DB010D90002024
:10253000E9F71197A61BB70BAD010E945012089541
:10254000FB0160817181448155810E945012089580
:10255000CF93DF93EC0188819981009711F00E945D
:102560008214198218821D821C821B821A82DF91BA
:10257000CF9108950F931F93182F092F611571059F
:1025800061F0DB010D900020E9F71197A61BB70B56
:10259000AD010E945012882321F4812F902F0E94B8
:1025A000A812812F902F1F910F9108950F931F93C1
:1025B000182F092FFB0160817181448155810E9490
:1025C0005012882321F4812F902F0E94A812812F6E
:1025D000902F1F910F910895EF92FF920F931F93E9
:1025E000CF93DF93EC017B018A01BA010E94341280
:1025F000882321F4CE010E94A81207C01D830C83FA
:1026000088819981B7010E94BA15CE01DF91CF91DF
:102610001F910F91FF90EF900895CF93DF93EC01FE
:10262000198218821B821A821D821C826115710513
:1026300051F0DB010D900020E9F71197A61BB70BB5
:10264000AD010E94EC12DF91CF910895CF93DF93FB
:10265000EC01198218821B821A821D821C8261156C
:10266000710551F0DB010D900020E9F71197A61BD1
:10267000B70BAD010E94EC12DF91CF9108950F933B
:102680001F93182F092F6115710559F0DB010D906B
:102690000020E9F71197A61BB70BAD010E94EC12C1
:1026A00002C00E94A812812F902F1F910F910895B0
:1026B000CF93DF93EC01FB018617970761F06081F0
:1026C00071816115710529F0448155810E94EC12D8
:1026D00002C00E94A812CE01DF91CF910895FC01A3
:1026E0001182108213821282158214820E94581362
:1026F0000895FC01808191810E9482140895FC015B
:10270000808191810E9482140895089597FB092E7B
:1027100007260AD077FD04D02ED006D000201AF468
:10272000709561957F4F0895F6F7909581959F4F2D
:102730000895A1E21A2EAA1BBB1BFD010DC0AA1F02
:10274000BB1FEE1FFF1FA217B307E407F50720F01A
:10275000A21BB30BE40BF50B661F771F881F991F95
:102760001A9469F760957095809590959B01AC01DE
:10277000BD01CF010895AA1BBB1B51E107C0AA1FD1
:10278000BB1FA617B70710F0A61BB70B881F991F12
:102790005A95A9F780959095BC01CD010895EE0F4B
:1027A000FF1F0590F491E02D0994CF93DF93BC01B6
:1027B0008230910510F462E070E0A091E50BB091D9
:1027C000E60BED01E0E0F0E040E050E021C0888160
:1027D00099818617970769F48A819B81309719F050
:1027E0009383828304C09093E60B8093E50BFE01F4
:1027F00034C06817790738F44115510519F084176A
:10280000950708F4AC01FE018A819B819C01E901D6
:102810002097E9F641155105A9F1CA01861B970BCE
:10282000049708F4BA01E0E0F0E02AC08D919C9191
:10283000119784179507F9F46417750781F41296B8
:102840008D919C911397309719F09383828304C0E4
:102850009093E60B8093E50BFD0132964FC0CA01C1
:10286000861B970BFD01E80FF91F61937193029787
:102870008D939C9343C0FD01828193819C01D9017A
:102880001097A1F68091E30B9091E40B892B41F412
:1028900080911005909111059093E40B8093E30BC8
:1028A00040911205509113054115510541F44DB762
:1028B0005EB780910E0590910F05481B590B209132
:1028C000E30B3091E40B24173507B0F4CA01821BE7
:1028D000930B8617970780F0AB014E5F5F4F84170D
:1028E000950750F0420F531F5093E40B4093E30BB6
:1028F000F9016193719302C0E0E0F0E0CF01DF9154
:10290000CF910895CF93DF93009709F450C0EC0165
:1029100022971B821A82A091E50BB091E60B1097CB
:1029200009F140E050E0AC17BD0708F1BB83AA8372
:10293000FE0121913191E20FF31FAE17BF0779F429
:102940008D919C911197280F391F2E5F3F4F39832E
:10295000288312968D919C9113979B838A834115AE
:10296000510571F4D093E60BC093E50B20C012968D
:102970008D919C911397AD01009711F0DC01D3CF9D
:10298000FA01D383C28321913191E20FF31FCE1755
:10299000DF0769F488819981280F391F2E5F3F4F27
:1029A000FA01318320838A819B8193838283DF9123
:1029B000CF910895A0E0B0E0E0EEF4E10C94D615DC
:1029C0008C01009729F4CB010E94D5138C01BAC069
:1029D0009EEFE92E9FEFF92EE00EF11E5801A60E94
:1029E000B71EAE14BF0408F4ABC08EEF882E8FEF75
:1029F000982E8A0C9B1CE70148815981461757077E
:102A0000B8F04530510508F49DC0CA0104978617F7
:102A1000970708F497C042505040461B570BF401EB
:102A20005183408379836883C5010E9482148AC0E0
:102A30006B01C41AD50AE091E50BF091E60BA0E01A
:102A4000B0E0C0E0D0E042C0E815F905A1F5208172
:102A500031812C153D0578F1C90102968C159D0533
:102A6000A8F04E5F5F4F420F531FE7015983488321
:102A700022813381109729F013963C932E9312975D
:102A800061C03093E60B2093E50B5CC022503040D0
:102A90002C193D0931832083109729F01396FC935C
:102AA000EE93129704C0F093E60BE093E50BF70169
:102AB0007183608347C080819181C817D90708F46A
:102AC000EC01DF01828193819C01F901309709F0CB
:102AD000BBCF400F511F8091E30B9091E40B841703
:102AE0009507E9F4C617D707D0F420911205309165
:102AF00013052115310541F42DB73EB780910E0520
:102B000090910F05281B390BA216B306C8F4B0929A
:102B1000E40BA092E30BE7017983688313C0CB0138
:102B20000E94D513EC01009759F0F70140815181C3
:102B3000B8010E94A815C8010E9482148E0102C02B
:102B400000E010E0C801CDB7DEB7ECE00C94F21560
:102B5000FB01DC0102C001900D9241505040D8F7BA
:102B60000895FB01DC018D91019080190110D9F3CA
:102B7000990B0895FB01DC0101900D920020E1F713
:102B80000895FB01DC014150504048F001900D9246
:102B90000020C9F701C01D9241505040E0F7089550
:102BA0002F923F924F925F926F927F928F929F925D
:102BB000AF92BF92CF92DF92EF92FF920F931F934B
:102BC000CF93DF93CDB7DEB7CA1BDB0B0FB6F894FC
:102BD000DEBF0FBECDBF09942A88398848885F843C
:102BE0006E847D848C849B84AA84B984C884DF80AD
:102BF000EE80FD800C811B81AA81B981CE0FD11D91
:102C00000FB6F894DEBF0FBECDBFED01089511E001
:102C1000C2E0D1E004C0FE010E94D1132296C4306C
:082C2000D107C9F7F894FFCFBA
:102C280030613261373065373036396630343831A3
:102C380066623233626333613732626135633961A8
:102C480035656461643461330000636F6D6D616E76
:102C5800642074696D656F75740041542B4353513A
:102C68000D004F4B0020283020626172732900202C
:102C78002831206261722900202832206261727333
:102C8800290020283320626172732900202834200B
:102C980062617273290041545E534953433D300DBC
:102CA8000041545E534943413D312C330D0041549A
:102CB8005E5349534F3D300D0041545E53495357BD
:102CC8003D302C3235300D005E534953573A203091
:102CD8002C3235302C300047657474696E67206477
:102CE8006174612066726F6D2065786F73697465B1
:102CF80000474554202F6F6E65703A76312F7374F4
:102D080061636B2F616C6961733F002048545450B4
:102D18002F312E310A004163636570743A20617067
:102D2800706C69636174696F6E2F782D7777772D72
:102D3800666F726D2D75726C656E636F6465643B4A
:102D480020636861727365743D7574662D380A0076
:102D58004163636570742D456E636F64696E673A8D
:102D680020677A69702C206465666C6174650A0056
:102D7800486F73743A206D322E65786F7369746585
:102D88002E636F6D0A00436F6E6E656374696F6EB4
:102D98003A20436C6F73650A00582D45786F736944
:102DA80074652D43494B3A20000A0A0A0041545ED3
:102DB800534953523D302C313030300D005E534969
:102DC80053523A20302C000A496E666F726D617456
:102DD800696F6E2074616B656E2066726F6D206519
:102DE800786F736974652E0053657474696E672013
:102DF800757020636F6E6E656374696F6E00415401
:102E08005E534953573D302C3337350D005E5349D7
:102E180053573A20302C3337352C3000504F535409
:102E2800202F6F6E65703A76312F737461636B2F44
:102E3800616C69617320485454502F312E310A0057
:102E48000A00436F6E74656E742D547970653A206C
:102E58006170706C69636174696F6E2F782D777714
:102E6800772D666F726D2D75726C656E636F646514
:102E7800643B20636861727365743D7574662D38B0
:102E88000A004163636570743A206170706C69630D
:102E98006174696F6E2F7868746D6C2B786D6C0A2D
:102EA80000436F6E74656E742D4C656E6774683A76
:102EB80020000A0A000A496E666F726D6174696FB4
:102EC8006E2073656E7420746F2065786F736974F3
:102ED800652E00536F636B6574204469616C2054E0
:102EE8006F2053656E64206461746120746F20459F
:102EF800786F73697465005374617274696E6720C2
:102F080043656C6C756C6172204D6F64656D00492A
:102F18006E697469616C697A696E67206D6F646542
:102F28006D20434F4D20706F727400546573742088
:102F3800415420636F6D6D616E640041540D004112
:102F48005445310D005265736574696E67206D6F65
:102F580064656D0041542B534F46545245534554B4
:102F68000D0041542B43455245473D300D00415417
:102F78002B434D45453D320D0053657474696E67AA
:102F88002075702050445020636F6E74657874000B
:102F980041545E534953533D302C22737276547911
:102FA8007065222C22536F636B6574220D004154A7
:102FB8005E534953533D302C22636F6E4964222C73
:102FC800330D0041545E534953533D302C22616404
:102FD8006472657373222C22736F636B7463703A27
:102FE8002F2F6D322E65786F736974652E636F6D40
:102FF8003A3830220D0041542B43474D520D0042C0
:103008006567696E210066726571650041545E539B
:103018004D534F0D005E53485554444F574E000DC5
:103028000A006E616E00696E66006F7666002000A9
:10303800E70B00000000000045097210130748095B
:103048002B090A09590900000000390A080A130760
:10305800F009C109CA09DF0900000000D30E721087
:0A3068009E0EB00E570E7B0E610E97
:00000001FF
