:100000000C9481000C94A9000C94A9000C94A900F4
:100010000C9474020C9498020C94BC020C94E002B0
:100020000C94A9000C94A9000C94A9000C94A900AC
:100030000C94A9000C94A9000C94A9000C94A9009C
:100040000C94A9000C94A9000C949F070C94A9008F
:100050000C94730A0C94FD0A0C94A9000C94A9004A
:100060000C94A9000C94A9000C94F0050C94A90020
:100070000C94A9000C94A9000C94A9000000210084
:10008000240027002A0000002200250028002B0061
:1000900000002000230026002900040404040202BA
:1000A0000202040402020202030303030303030324
:1000B000040401010101010101010102040801021E
:1000C00004084020102040808040201008040201D5
:1000D0001080804020100804020100000000000091
:1000E000000108030200090A0000000000000000EF
:1000F00004070000000000000000CD00E604B60A7E
:10010000C60011241FBECFEFD0E1DEBFCDBF11E08E
:10011000A0E0B1E0E8E2F9E102C005900D92AA3B4F
:10012000B107D9F715E0AAEBB1E001C01D92AF3ECF
:10013000B107E1F710E0C0E0D1E004C02297FE0172
:100140000E94830CCA3FD107C9F70E9434010C9466
:10015000870C0C9400008130910571F46F5F7F4F24
:10016000A1F48AEB91E062E040E00E948B0486ED0E
:1001700091E00E9485010895892B39F46F5F7F4FCC
:1001800021F48AEB91E00E94EC03089580E090E076
:100190006FEF7FEF0E94AB00089581E090E06FEF7A
:1001A0007FEF0E94AB0008951F93CF93DF9380E908
:1001B00093E063E071E00E94240C11E0C0E0D0E025
:1001C0008DE093E0612F0E94AC048DE093E00E94EB
:1001D00071058823E9F480E993E06FE071E00E9403
:1001E000210C103130F480E993E06EE271E00E945E
:1001F000210C80E993E0612F40E150E00E94EC0B7C
:1002000080E993E060E371E00E94240C219617C01E
:100210008430A9F480E993E064E371E00E94210C4A
:10022000103130F480E993E06EE271E00E94210C1D
:1002300080E993E0612F40E150E00E94030C1F5FD2
:100240001F3709F0BDCFCD2B29F480E993E060E59D
:1002500071E004C080E993E066E671E00E94240C3E
:10026000DF91CF911F9108951F93CF93DF930E9449
:100270000D08569A5E9A549A80E993E040E855E258
:1002800060E070E026E00E9454098DE093E00E9457
:10029000750510E1C0E9D1E08BB181278BB988EEFB
:1002A00093E0FE013197F1F70197D9F780E993E0E8
:1002B0006CE671E00E94240C0E94D40068EE73E0AA
:1002C00080E090E00E944808E7CFFC011082118294
:1002D0001382128214821582168217821086128669
:1002E000118613861486158616861786118A108A3B
:1002F000128A138A148A158A168A108E178A118E0A
:10030000128E138E148E158E08950F931F938C01E9
:100310000E946501F80112A213A214A215A216A24E
:1003200017A210AA11AA12AA13AA14AA15AA16AEE5
:1003300017AE0C5B1F4FF8011082118212821382DC
:10034000085F1F4FF80111928F0110820B5F1F4F42
:10035000F8011082118212821382085F1F4FF80188
:1003600011928F0110820B5F1F4FF80110821182D2
:1003700012821382085F1F4FF80111928F011082C1
:100380000B5F1F4FF8011082118212821382085FE7
:100390001F4FF80111928F0110820B5F1F4FF80160
:1003A0001082118212821382085F1F4FF80111928E
:1003B0008F011082005F1F4F82E0F801819311923C
:1003C0001192119211921192119211921192119215
:1003D0001192119211921192119211921192119205
:1003E000119211928F011082118212821382035294
:1003F0001040F80110821F910F91089580E090E065
:1004000008950F931F93CF93DF93FC01838DA685EF
:10041000B7859585082F027081FF05C08C918923CF
:1004200009F454C004C08C91892309F04FC083891A
:10043000948920E001972FEF8F3F9207D9F7C58964
:10044000D689A685B785758560E031E040E050E04B
:1004500010E0CE01212F01972FEF8F3F9207D9F7A0
:100460008C91872311F0632B03C0832F8095682321
:10047000330F4F5F5F4F4830510559F78789908D93
:1004800020E001972FEF8F3F9207D9F70111609578
:100490008091C5022091C60290E001968F73907002
:1004A00030E08217930779F0E091C502F0E0EB5756
:1004B000FD4F60838091C50290E001968F7390702C
:1004C0008093C50203C0838D8160838FDF91CF91BC
:1004D0001F910F910895809183029091840200975B
:1004E00011F00E94010208951F920F920FB60F9211
:1004F00011242F933F934F935F936F937F938F9329
:100500009F93AF93BF93EF93FF930E946B02FF9172
:10051000EF91BF91AF919F918F917F916F915F917B
:100520004F913F912F910F900FBE0F901F901895F4
:100530001F920F920FB60F9211242F933F934F9358
:100540005F936F937F938F939F93AF93BF93EF933B
:10055000FF930E946B02FF91EF91BF91AF919F912A
:100560008F917F916F915F914F913F912F910F905C
:100570000FBE0F901F9018951F920F920FB60F92FB
:1005800011242F933F934F935F936F937F938F9398
:100590009F93AF93BF93EF93FF930E946B02FF91E2
:1005A000EF91BF91AF919F918F917F916F915F91EB
:1005B0004F913F912F910F900FBE0F901F90189564
:1005C0001F920F920FB60F9211242F933F934F93C8
:1005D0005F936F937F938F939F93AF93BF93EF93AB
:1005E000FF930E946B02FF91EF91BF91AF919F919A
:1005F0008F917F916F915F914F913F912F910F90CC
:100600000FBE0F901F901895FC018485803208F072
:10061000E2C0882309F471C0813009F46EC08230D1
:1006200009F46BC0833009F4CAC0843009F4CAC02D
:10063000853009F4C7C0863009F4C4C0873009F496
:10064000C1C0883009F4BBC0893009F4B8C08A3011
:1006500009F4B8C08B3009F4B5C08C3009F4B2C0CD
:100660008D3009F4AFC08E3009F4AFC08F3009F47B
:10067000ACC0803109F4A9C0813109F4A6C082312F
:1006800009F4A3C0833109F4A0C0843109F49DC0EA
:10069000853109F49AC0863109F491C0873109F097
:1006A0008BC08DC0843089F1853079F1863069F155
:1006B000873059F1883031F1893021F18A3029F1C0
:1006C0008B3019F18C3009F18D30F9F08E3001F159
:1006D0008F30F1F08031E1F08131D1F08231C1F021
:1006E0008331B1F08431A1F0853191F0863151F040
:1006F000873141F0EBE6F0E00DC0E3E7F0E0A3E77F
:10070000B0E008C0E3E7F0E005C0ECE6F0E002C0CE
:10071000EDE6F0E09081882309F440C08130E1F1FA
:100720008230F1F18330F1F18430C1F18530A1F1F3
:100730008630B1F18730B1F18830B1F18930B1F153
:100740008A30B1F18B3091F18C3071F18D30B1F094
:100750008E30A1F08F3041F1803141F1813141F192
:10076000823101F18331E1F08431B1F08531B1F0B2
:100770008631F1F0873111F0883111F48FE719C01B
:10078000893191F08A3191F08B3191F08C3151F0B7
:100790008D3131F08E3111F48DEF0BC08EEF09C029
:1007A0008BEF07C087EF05C08FEB03C08FED01C053
:1007B0008FEE89238C930895ABE6B0E008C0A3E7E1
:1007C000B0E005C0ACE6B0E002C0ADE6B0E083301A
:1007D00009F068CF97CF0895FC0188E891E09183F4
:1007E0008083CF010E9404030895209183023091F9
:1007F00084022817390731F49091C6028091C5020E
:10080000981719F42FEF3FEF0FC0E091C602F0E008
:10081000EB57FD4F20818091C60290E001968F73C7
:1008200090708093C60230E0C90108952091830240
:10083000309184022817390719F020E030E00EC00B
:100840008091C5022091C60290E0805C9F4F821B80
:10085000910960E470E00E94380C9C01C901089580
:1008600080E090E00895209183023091840228175F
:10087000390749F49FB7F8941092C5028091C502D8
:100880008093C6029FBF0895209183023091840215
:100890002817390731F49091C6028091C502981744
:1008A00019F42FEF3FEF0AC0E091C602F0E0EB57DA
:1008B000FD4F8081282F332727FD3095C9010895EA
:1008C0001F93CF93DF93EC01162F862F60E00E94D9
:1008D00085088B8D81FD04C0812F61E00E94F108A5
:1008E0001C87212F30E0C90186549F4FFC01849161
:1008F0008D8726563F4FF9016491E62FF0E0EE0F09
:10090000FF1FE057FF4F859194919F878E87DF915E
:10091000CF911F910895FC011382128288EE93E01B
:10092000A0E0B0E084839583A683B78388E891E054
:1009300091838083148A138A168A158A108E178AE7
:10094000128E118E838D4170440F8C7F842B838F88
:10095000CF010E946004089581E080930C036093AE
:10096000E90210920A0310920B0308952091E80205
:1009700030E08091E702281B3109C90108954091B8
:10098000E7028091E802481718F02FEF3FEF0AC006
:10099000E42FF0E0E953FD4F8081282F30E04F5FD6
:1009A0004093E702C9010895E091E7028091E802CF
:1009B000E81718F0EFEFFFEF06C0F0E0E953FD4F46
:1009C0008081E82FF0E0CF01089508951092100380
:1009D00010920F0388EE93E0A0E0B0E08093110343
:1009E00090931203A0931303B09314038AE991E048
:1009F00090930E0380930D030895CF92DF92EF92B0
:100A0000FF920F931F93CF93DF937C016B018A01B9
:100A100080910C038823A1F0C0E0D0E00DC0D70185
:100A2000ED91FC91D601AC0FBD1F0190F081E02D3E
:100A3000C7016C9109952196C017D10780F304C0B6
:100A4000CB01642F0E94D505C801DF91CF911F9182
:100A50000F91FF90EF90DF90CF900895DF93CF93A9
:100A60000F92CDB7DEB7FC01698380910C03882318
:100A7000C9F080910B03803238F081E090E09383DD
:100A8000828320E030E015C080910A03E82FF0E077
:100A9000E651FD4F998190838F5F80930A03809385
:100AA0000B0305C0CE01019661E00E94D50521E04F
:100AB00030E0C9010F90CF91DF9108950F93062F79
:100AC0008091E9026AEE72E040910B0321E00E94FE
:100AD000800510920A0310920B0310920C030F91E1
:100AE000089561E00E945E0508951092E702109259
:100AF000E80210920A0310920B030E9481070895E6
:100B00000F931F93582F122F413210F081E04AC0EB
:100B1000809119038823E1F782E080931903009301
:100B20001B038FEF8093860310924103409342038F
:100B3000A1E2B3E0FB0102C081918D938E2F861B51
:100B40008417D0F310921A0380911A03550F852B46
:100B500080931A0380911C03813041F410921C038E
:100B600080911A038093BB0085EC01C085EE8093D1
:100B7000BC00112321F0809119038230E1F38091B0
:100B800086038F3F11F480E00DC080918603803290
:100B900011F482E007C080918603803311F084E075
:100BA00001C083E01F910F910895482F613210F02A
:100BB00081E0089580911903843011F082E0089556
:100BC00060936403A3E4B3E0842F9C01F90102C0A5
:100BD00081918D938E2F841B8617D0F380E008952A
:100BE0001F920F920FB60F9211242F933F934F93A2
:100BF0005F936F937F938F939F93AF93BF93EF9385
:100C0000FF938091B90090E0887F907080369105C5
:100C100009F4F2C081369105CCF58832910509F4CA
:100C20007BC089329105B4F48031910509F46FC01D
:100C3000813191053CF4009709F447C1089709F008
:100C40004FC165C08831910509F466C0809709F0ED
:100C500047C182C08034910509F4A4C08134910554
:100C600044F48033910509F482C0C89709F038C173
:100C700089C08035910509F489C08835910509F44A
:100C800096C08834910509F02BC1AEC08839910512
:100C900009F413C189399105ECF48837910509F4F9
:100CA000ABC0893791054CF48836910509F4A4C08E
:100CB0008037910509F014C19FC08838910509F467
:100CC000FCC08039910509F49DC08038910509F078
:100CD00007C198C0803B910509F4C6C0813B9105CE
:100CE0004CF4803A910509F49FC0883A910509F0C7
:100CF000F7C0BAC0803C910509F4E3C0883C910577
:100D000009F4DFC0883B910509F0EAC0C2C08091B8
:100D10001A038093BB00CFC090914103809142039E
:100D2000981768F490914103E92FF0E0EF5DFC4FD4
:100D300080818093BB009F5F90934103BCC08091F2
:100D40001B03882309F44BC085ED8093BC00809180
:100D5000BC0084FDFCCFC2C080E28093860385ED99
:100D60008093BC008091BC0084FDFCCFB7C080E3C1
:100D70008093860385ED8093BC008091BC0084FD48
:100D8000FCCFACC088E3809386039BC08091410375
:100D90009091BB00E82FF0E0EF5DFC4F90838F5FF8
:100DA00080934103909141038091420382C08091DE
:100DB00041039091BB00E82FF0E0EF5DFC4F908382
:100DC0008F5F8093410380911B03882341F085ED61
:100DD0008093BC008091BC0084FDFCCF7FC081E08B
:100DE00080931C0384EA6EC085ED8093BC008091E3
:100DF000BC0084FDFCCF72C083E080931903109285
:100E0000850359C080918503803208F056C08091D7
:100E100085039091BB00E82FF0E0EB59FC4F9083E5
:100E20008F5F8093850347C080918503803230F4C3
:100E3000E0918503F0E0EB59FC4F108285ED809343
:100E4000BC008091BC0084FDFCCF1092190360911E
:100E50008503E0911F03F091200385E693E070E0A5
:100E60000995109285032DC084E080931903109298
:100E7000630310926403E0911D03F0911E03099532
:100E800080916403882329F481E0809364031092A5
:100E9000430390916303E92FF0E0ED5BFC4F808109
:100EA0008093BB009F5F9093630390916303809155
:100EB0006403981710F485EC01C085E88093BC00AA
:100EC0000FC085EC8093BC0009C01092860385EDAD
:100ED0008093BC008091BC0084FDFCCF109219036C
:100EE000FF91EF91BF91AF919F918F917F916F9102
:100EF0005F914F913F912F910F900FBE0F901F90D8
:100F000018951092190381E080931B0310921C0323
:100F100084E161E00E94F10885E161E00E94F1084E
:100F2000E9EBF0E080818E7F808380818D7F8083FC
:100F300088E48093B80085E48093BC0008951F92F4
:100F40000F920FB60F9211242F933F938F939F937D
:100F5000AF93BF9380918B0390918C03A0918D03ED
:100F6000B0918E0330918F030196A11DB11D232FE7
:100F70002D5F2D3720F02D570196A11DB11D209317
:100F80008F0380938B0390938C03A0938D03B09376
:100F90008E038091870390918803A0918903B0917B
:100FA0008A030196A11DB11D809387039093880346
:100FB000A0938903B0938A03BF91AF919F918F91C2
:100FC0003F912F910F900FBE0F901F9018959FB7D4
:100FD000F8942091870330918803409189035091C0
:100FE0008A0386B5A89B06C08F3F21F02F5F3F4F35
:100FF0004F4F5F4F9FBF542F432F322F2227280F71
:10100000311D411D511D82E0220F331F441F551F0A
:101010008A95D1F7B901CA010895789484B58260A0
:1010200084BD84B5816084BD85B5826085BD85B58C
:10103000816085BDEEE6F0E0808181608083E1E83B
:10104000F0E0108280818260808380818160808373
:10105000E0E8F0E0808181608083E1EBF0E0808176
:1010600084608083E0EBF0E0808181608083EAE748
:10107000F0E08081846080838081826080838081D1
:10108000816080838081806880831092C100089590
:10109000AF92BF92CF92DF92EF92FF920F931F9386
:1010A0007B018C010E94E7075B016C0120C00E945C
:1010B000370C12C00894E108F1080109110988EE03
:1010C00093E0A0E0B0E0A80EB91ECA1EDB1EE1143A
:1010D000F1040105110559F00E94E7076A197B091F
:1010E0008C099D09685E73408040904018F7E114B8
:1010F000F10401051105D9F61F910F91FF90EF90B2
:10110000DF90CF90BF90AF900895CF93DF93482F9B
:1011100050E0CA0186549F4FFC01349146565F4F00
:10112000FA018491882369F190E0880F991FFC01EE
:10113000E458FF4FA591B491FC01EA57FF4FC591C8
:10114000D491662351F42FB7F8948C91932F9095F6
:1011500089238C93888189230BC0623061F42FB777
:10116000F8948C91932F909589238C938881832B6D
:1011700088832FBF06C09FB7F8948C91832B8C93E4
:101180009FBFDF91CF910895833071F0843028F4B0
:101190008130A1F0823021F514C08730B1F0883061
:1011A000D1F08430E9F404C0809180008F7703C0CF
:1011B000809180008F7D80938000089584B58F7723
:1011C00002C084B58F7D84BD08958091B0008F7773
:1011D0008093B00008958091B0008F7D8093B0001F
:1011E0000895FF920F931F93F62E482F50E0CA01E7
:1011F00086529F4FFC012491CA0186549F4FFC01E7
:10120000149146565F4FFA0104910023C9F022233E
:1012100019F0822F0E94C408E02FF0E0EE0FFF1FAC
:10122000EA57FF4FA591B4919FB7F894FF2021F49E
:101230008C911095812302C08C91812B8C939FBF40
:101240001F910F91FF900895DC015E968C915E973F
:10125000FD01E80FF11DE15EFD4F20815E968C914E
:101260005E9790E001968F7390705E968C935E9778
:101270005696ED91FC91579720835096ED91FC91F5
:1012800051978081806480835D969C915D975E9686
:101290008C915E97981739F45296ED91FC91539783
:1012A00080818F7D80830895DF92EF92FF920F936C
:1012B0001F93CF93DF93EC017A018B01D22EE88943
:1012C000F98982E08083403081EE580780E068072A
:1012D00080E07807A1F060E079E08DE390E0A8017C
:1012E00097010E944B0C2150304040405040569591
:1012F00047953795279580E12030380798F0E889A1
:10130000F989108260E874E88EE190E0A801970105
:101310000E944B0C2150304040405040569547951C
:1013200037952795EC85FD853083EE85FF852083F5
:10133000188EEC89FD89D082EA89FB8980818061E1
:101340008083EA89FB89808188608083EA89FB89C0
:10135000808180688083EA89FB8980818F7D80839A
:10136000DF91CF911F910F91FF90EF90DF90089543
:10137000FC01218D328D838D948D281B390B3170AA
:10138000C9010895DC0159962D913C915A975B96BD
:101390008D919C915C972817390719F42FEF3FEF37
:1013A00009C05B96ED91FC915C97EA0FFB1F878D5E
:1013B000282F30E0C9010895DC0159962D913C9108
:1013C0005A975B968D919C915C972817390719F471
:1013D0002FEF3FEF12C05B96ED91FC915C97EA0F07
:1013E000FB1F278D5B968D919C915C970196917068
:1013F0005C969C938E935B9730E0C9010895FC0145
:10140000958D868D282F30E0492F50E0981718F0E1
:10141000215C3F4F02C021503040241B350BC901D5
:101420000895CF93DF93EC01888D882361F419C070
:101430008C9185FF0AC0E889F989808185FF05C004
:10144000CE010E942409AA89BB898C9185FD05C023
:10145000E889F989808186FD04C00FB607FEE8CFD0
:10146000F4CFDF91CF9108950F931F93CF93DF9324
:10147000EC01062F81E0888F9D8D8E8D981779F570
:10148000E889F989808185FF2AC0EE89FF89608318
:10149000E889F989808180641AC00FB607FC08C00A
:1014A000E889F989808185FF03C0CE010E94240963
:1014B0008E8D181791F38D8DFE01E80FF11DE15E01
:1014C000FD4F00831D8FEA89FB89808180628083C4
:1014D00081E090E0DF91CF911F910F9108951D8DD4
:1014E0001F5F1F73E5CF1F920F920FB60F9211244B
:1014F0002F933F934F938F939F93EF93FF93E0919D
:10150000A003F091A103808182FD1FC0E091A6039A
:10151000F091A70340812091A9033091AA032F5F86
:101520003F4F31708091AB039091AC03281739077E
:1015300089F0E091A903F091AA03E057FC4F478F8F
:101540003093AA032093A90305C0E091A603F0916C
:10155000A703E081FF91EF919F918F914F913F9170
:101560002F910F900FBE0F901F901895109293031C
:101570001092920388EE93E0A0E0B0E08093940391
:1015800090939503A0939603B09397038CEA91E010
:10159000909391038093900385EC90E090939D034A
:1015A00080939C0384EC90E090939F0380939E0330
:1015B00080EC90E09093A1038093A00381EC90E0F5
:1015C0009093A3038093A20382EC90E09093A503F1
:1015D0008093A40386EC90E09093A7038093A603E6
:1015E0001092AA031092A9031092AC031092AB03BD
:1015F0001092AD031092AE0308951F920F920FB692
:101600000F9211242F933F934F935F936F937F9388
:101610008F939F93AF93BF93EF93FF9380E993E0F2
:101620000E942409FF91EF91BF91AF919F918F91FB
:101630007F916F915F914F913F912F910F900FBECE
:101640000F901F901895CF92DF92EF92FF920F9319
:101650001F93CF93DF937C018B016A01C0E0D0E040
:101660000FC0D701ED91FC910190F081E02DC701F1
:10167000D8016C910995892B31F00F5F1F4F21968E
:10168000CC16DD0671F7CE01DF91CF911F910F913E
:10169000FF90EF90DF90CF900895CF93DF93EC0110
:1016A0006115710519F420E030E00FC0DB010D90E9
:1016B0000020E9F71197A61BB70BE881F98102809A
:1016C000F381E02DAD0109959C01C901DF91CF9116
:1016D00008953F924F925F926F927F928F929F9266
:1016E000AF92BF92CF92DF92EF92FF920F931F9330
:1016F000DF93CF93CDB7DEB7A3970FB6F894DEBFD5
:101700000FBECDBF9BA38AA3342E452E562E672E27
:10171000223008F42AE019A281E2C82ED12CCC0E86
:10172000DD1E822E9924AA24BB24632D742D852DC1
:10173000962DA50194010E944B0C762E632D742DDD
:10174000852D962DA50194010E944B0C79018A01EB
:10175000D801C701382E492E5A2E6B2E0894C10885
:10176000D10889E087151CF0672D605D02C0672DE8
:10177000695CF6016083E114F10401051105A9F625
:101780008AA19BA1B6010E944D0BA3960FB6F894B7
:10179000DEBF0FBECDBFCF91DF911F910F91FF90A4
:1017A000EF90DF90CF90BF90AF909F908F907F9001
:1017B0006F905F904F903F900895DC0121153105A7
:1017C00041F4ED91FC910190F081E02D642F099599
:1017D00008950E94690B0895EF92FF920F931F9353
:1017E0009A01E62EFF2400E010E0B801A7010E9454
:1017F000DD0B1F910F91FF90EF90089565E771E069
:101800000E944D0B0895CF92DF92EF92FF920F93BB
:101810001F936C01E62E9A01FF2400E010E0B8014E
:10182000A7010E94DD0B8C01C6010E94FE0B080F70
:10183000191FC8011F910F91FF90EF90DF90CF907B
:1018400008950E944D0B0895EF92FF920F931F93FE
:101850007C010E944D0B8C01C7010E94FE0B080FFA
:10186000191FC8011F910F91FF90EF9008950895DF
:1018700097FB092E07260AD077FD04D02ED006D07C
:1018800000201AF4709561957F4F0895F6F79095B2
:1018900081959F4F0895A1E21A2EAA1BBB1BFD0143
:1018A0000DC0AA1FBB1FEE1FFF1FA217B307E4073F
:1018B000F50720F0A21BB30BE40BF50B661F771F97
:1018C000881F991F1A9469F7609570958095909577
:1018D0009B01AC01BD01CF010895AA1BBB1B51E1C7
:1018E00007C0AA1FBB1FA617B70710F0A61BB70B90
:1018F000881F991F5A95A9F780959095BC01CD0135
:101900000895EE0FFF1F0590F491E02D099411E06A
:10191000C0E0D1E004C0FE010E94830C2296C230D8
:08192000D107C9F7F894FFCFCD
:10192800005F005363616E6E696E672E2E2E00494C
:1019380032432064657669636520666F756E64203E
:1019480061742061646472657373203078003000BC
:1019580020202100556E6B6E6F776E206572726F56
:10196800722061742061646472657373203078003A
:101978004E6F20493243206465766963657320663B
:101988006F756E640A00646F6E650A0048496A6F75
:1019980073686169000D0A006E616E00696E660009
:1019A8006F766600000000003004230BFE0133044C
:1019B8001604F5034404000000002E05FD04FE0192
:1019C800E504B604BF04D40400000000340A230B65
:0A19D800FF09110AB809DC09C20971
:00000001FF
