:100000000C9479000C94A1000C94A1000C94A10014
:100010000C94A1000C94A1000C94A1000C94A100DC
:100020000C94A1000C94A1000C94A1000C94A100CC
:100030000C94A1000C94A1000C94A1000C94A100BC
:100040000C94A1000C94A1000C94D1020C94A1007A
:100050000C9493020C946D020C94A1000C94A100DA
:100060000C94A1000C94A1000C94A1000C94A1008C
:100070000C94A1000C94A1000C94A100000021009C
:10008000240027002A0000002200250028002B0061
:100090000404040402020202040402020202030332
:1000A000030303030303040401010101010101012E
:1000B0000102040801020408402010204080804012
:1000C0002010080402011080804020100804020162
:1000D000000000000000000108030200090A0000FF
:1000E0000000000000000407000000000000000005
:1000F0001B0311241FBECFEFD0E1DEBFCDBF11E047
:10010000A0E0B1E0E4E2F8E002C005900D92AC316D
:10011000B107D9F723E0ACE1B1E001C01D92A438EA
:10012000B207E1F710E0C9E7D0E004C02197FE0173
:100130000E940504C837D107C9F70E944A030C94EE
:1001400010040C940000E8EDF0E02491E8EBF0E0FE
:100150009491E8E9F0E0E491EE2309F43BC0222316
:1001600039F1233091F038F42130A9F0223001F533
:1001700024B52F7D12C0273091F02830A1F0243013
:10018000B9F4209180002F7D03C0209180002F774B
:10019000209380000DC024B52F7724BD09C0209185
:1001A000B0002F7703C02091B0002F7D2093B000C6
:1001B000F0E0EE0FFF1FEA57FF4FA591B4912FB764
:1001C000F894EC91811103C090959E2301C09E2B61
:1001D0009C932FBF0895CF92DF92EF92FF920F93DF
:1001E0001F93CF93DF936C017A018B01C0E0D0E0C5
:1001F000CE15DF0589F0D8016D918D01D601ED9105
:10020000FC910190F081E02DC6010995892B11F434
:100210007E0102C02196ECCFC701DF91CF911F91E3
:100220000F91FF90EF90DF90CF900895089580E0B8
:1002300090E00895FC01558D468D252F30E0842FE8
:1002400090E0821B930B541710F0CF9608950197FE
:100250000895FC01218D328D838D948D28173907E7
:1002600079F0A38DB48DAE0FBF1F5F968C91238D57
:10027000348D2F5F3F4F3170348F238F90E008957E
:100280008FEF9FEF0895FC01218D328D838D948D2A
:100290002817390739F0838D948DE80FF91F878D62
:1002A00090E008958FEF9FEF0895FC01218D328D2E
:1002B000838D948DA901481B590BCA019170089533
:1002C000FC01868DDF01A80FB11DA15EBD4F2C91F1
:1002D000868D90E001968F739927868FA689B789BE
:1002E0002C93A089B1898C9180648C93958D868D97
:1002F000981306C00288F389E02D80818F7D80836A
:100300000895EF92FF920F931F93CF93DF93EC0129
:1003100081E0888F9D8D8E8D981305C0E889F989BD
:10032000808185FD24C0F62E0D8D10E00F5F1F4FDC
:100330000F731127E02E8E8DE8120CC00FB607FC4C
:10034000FACFE889F989808185FFF5CFCE010E9437
:100350006001F1CF8D8DFE01E80FF11DE15EFD4FD3
:10036000F0820D8FEA89FB898081806207C0EE8967
:10037000FF896083E889F98980818064808381E0D6
:1003800090E0DF91CF911F910F91FF90EF90089532
:10039000CF93DF93EC01888D8823C9F0EA89FB892C
:1003A000808185FD05C0A889B9898C9186FD0FC023
:1003B0000FB607FCF5CF808185FFF2CFA889B989F8
:1003C0008C9185FFEDCFCE010E946001E7CFDF91D8
:1003D000CF9108953FB7F894809121019091220127
:1003E000A0912301B091240126B5A89B05C02F3F01
:1003F00019F00196A11DB11D3FBFBA2FA92F982F4B
:100400008827820F911DA11DB11DBC01CD0142E0C5
:10041000660F771F881F991F4A95D1F708958F920D
:100420009F92AF92BF92CF92DF92EF92FF926B01B9
:100430007C010E94EA014B015C01C114D104E1047A
:10044000F104F1F00E94EA01DC01CB01881999095D
:10045000AA09BB09883E9340A105B10570F321E0CC
:10046000C21AD108E108F10888EE880E83E0981ED0
:10047000A11CB11CC114D104E104F10419F7DDCFB2
:10048000FF90EF90DF90CF90BF90AF909F908F90B4
:100490000895CF93DF93009779F0FC01019000203D
:1004A000E9F73197AF01481B590BBC0185E291E098
:1004B0000E94EB00EC0102C0C0E0D0E042E050E05E
:1004C00062E171E085E291E00E94EB008C0F9D1FDC
:1004D000DF91CF9108950E940B041F920F920FB6E7
:1004E0000F9211242F933F934F935F936F937F93BA
:1004F0008F939F93AF93BF93EF93FF9385E291E028
:100500000E946001FF91EF91BF91AF919F918F91F8
:100510007F916F915F914F913F912F910F900FBEFF
:100520000F901F9018951F920F920FB60F921124E3
:100530002F934F935F938F939F93EF93FF93E0914C
:100540003501F09136018081E0913B01F0913C0151
:1005500082FD1AC0208180913E0190913F01019659
:10056000917040914001509141018417950769F0C5
:10057000E0913E01F0913F01EB5DFE4F278F90939C
:100580003F0180933E0101C08081FF91EF919F91D7
:100590008F915F914F912F910F900FBE0F901F90F1
:1005A00018951F920F920FB60F9211242F933F931D
:1005B0008F939F93AF93BF9380911D0190911E01E4
:1005C000A0911F01B091200130911C0123E0230F65
:1005D0002D3720F40196A11DB11D05C026E8230F7B
:1005E0000296A11DB11D20931C0180931D019093C3
:1005F0001E01A0931F01B0932001809121019091D1
:100600002201A0912301B09124010196A11DB11DE9
:100610008093210190932201A0932301B0932401A0
:10062000BF91AF919F918F913F912F910F900FBEEE
:100630000F901F901895E5E2F1E01382128288EE88
:1006400093E0A0E0B0E084839583A683B78384E041
:1006500091E09183808385EC90E09587848784EC9A
:1006600090E09787868780EC90E0918B808B81EC7F
:1006700090E0938B828B82EC90E0958B848B86EC60
:1006800090E0978B868B128E118E148E138E158EA2
:10069000168E0895789484B5826084BD84B5816097
:1006A00084BD85B5826085BD85B5816085BD80913D
:1006B0006E00816080936E001092810080918100B5
:1006C00082608093810080918100816080938100AD
:1006D000809180008160809380008091B10084606F
:1006E0008093B1008091B00081608093B0008091D0
:1006F0007A00846080937A0080917A00826080938F
:100700007A0080917A00816080937A0080917A00EB
:10071000806880937A001092C100E0913501F091D9
:10072000360182E08083E0913101F0913201108244
:10073000E0913301F09134018FEC808310923D0100
:10074000E0913901F0913A0186E08083E091370130
:10075000F0913801808180618083E0913701F091D0
:100760003801808188608083E0913701F091380101
:10077000808180688083E0913701F0913801808129
:100780008F7D8083E8EBF0E02491E8E9F0E084914C
:10079000882399F090E0880F991FFC01E458FF4FDF
:1007A000A591B491FC01EA57FF4F859194918FB7C1
:1007B000F894EC91E22BEC938FBF81E00E94A300B0
:1007C00085E191E00E94490264E670E080E090E0FB
:1007D0000E940F0288E191E00E94490280E00E949D
:1007E000A30064E670E080E090E00E940F0281E0E8
:1007F0000E94A30085E191E00E94490268EC70E04C
:1008000080E090E00E940F02D8CFEE0FFF1F05900E
:10081000F491E02D099481E090E0F8940C94100498
:04082000F894FFCF7A
:10082400000000008101EB001A01C80155012901F3
:0C08340043010D0A004F4E004F464600E5
:00000001FF
