:100000000C947F000C94A7000C94A7000C94A700FC
:100010000C94A7000C94A7000C94A7000C94A700C4
:100020000C94A7000C94A7000C94A7000C94A700B4
:100030000C94A7000C94A7000C94A7000C94A700A4
:100040000C94A7000C94A7000C94E20C0C94A7004D
:100050000C94D80F0C9462100C94A7000C94A70079
:100060000C94A7000C94A7000C94330B0C94A700DD
:100070000C94A7000C94A7000C94A700000021008A
:10008000240027002A0000002200250028002B0061
:1000900000002000230026002900040404040202BA
:1000A0000202040402020202030303030303030324
:1000B000040401010101010101010102040801021E
:1000C00004084020102040808040201008040201D5
:1000D0001080804020100804020100000000000091
:1000E000000108030200090A0000000000000000EF
:1000F00004070000000000000000290A1B10112462
:100100001FBECFEFD0E1DEBFCDBF12E0A0E0B1E077
:10011000EEEEF5E202C005900D92A83AB107D9F7CC
:1001200015E0A8EAB2E001C01D92A03DB107E1F7D9
:1001300010E0CEEFD0E004C02297FE010E94F11241
:10014000CA3FD107C9F70E9490080C94F5120C948D
:100150000000EF92FF920F931F937B018C0120E030
:1001600030E040E05FE40E94550488238CF0C80131
:10017000B70120E030E040E05FE40E9421020E94ED
:100180006E059B01AC01205030404040504806C0F5
:10019000C801B7010E946E059B01AC01B901CA01FB
:1001A0001F910F91FF90EF900895A0E0B0E0EBED6C
:1001B000F0E00C94B812DC012B01FA019C91923012
:1001C00008F439C1EB018881823008F433C19430DE
:1001D00069F4843009F02FC111969C91119789819F
:1001E000981709F428C1AAE7B1E025C1843009F4C1
:1001F00021C18230A9F4923009F01DC19A01AD01EC
:1002000088E0EA010990AE01E90109929E0181505E
:10021000C1F7E201898111969C918923818308C1EC
:10022000923009F407C112962D903C901397EB0180
:100230008A819B811496AD90BD90CD90DC901797EC
:10024000EC80FD800E811F819101281B390BB901C3
:1002500037FF04C066277727621B730B6032710576
:100260000CF061C0121613066CF537014801062E1A
:1002700004C096948794779467940A94D2F721E007
:1002800030E040E050E004C0220F331F441F551FF0
:100290006A95D2F721503040404050402E213F21F6
:1002A00040235123211531054105510521F021E05D
:1002B00030E040E050E079018A01E628F72808297B
:1002C00019293CC0232BD1F1260E371E35014601DA
:1002D000062E04C096948794779467940A94D2F774
:1002E00021E030E040E050E004C0220F331F441F03
:1002F000551F6A95D2F721503040404050402A2186
:100300003B214C215D21211531054105510521F08D
:1003100021E030E040E050E059016A01A628B7280A
:10032000C828D9280BC0821593052CF01C01AA24DB
:10033000BB24650103C0EE24FF24870111969C9124
:10034000D20111968C91981709F445C0992339F080
:10035000A80197012A193B094C095D0906C0A601AD
:1003600095012E193F09400B510B57FD08C0118212
:100370003382228224833583468357831DC081E0E4
:1003800081833382228288279927DC01821B930B89
:10039000A40BB50B84839583A683B7830DC0220F6E
:1003A000331F441F551F248335834683578382811F
:1003B000938101979383828324813581468157817C
:1003C000DA01C9010197A109B1098F5F9F4FAF4FB2
:1003D000BF4328F30BC0918333822282EA0CFB1CBB
:1003E0000C1D1D1DE482F5820683178383E0808344
:1003F000248135814681578157FF1AC0C901AA2738
:1004000097FDA095BA2F81709070A070B07056952E
:10041000479537952795822B932BA42BB52B848357
:100420009583A683B7838281938101969383828388
:10043000DF0101C0D201CD01CDB7DEB7E2E10C94FE
:10044000D412A0E2B0E0E7E2F2E00C94C4126983B7
:100450007A838B839C832D833E834F835887E9E087
:10046000EE2EF12CEC0EFD1ECE010196B7010E947E
:100470005F078E010F5E1F4FCE010596B8010E94E7
:100480005F078A8991E089278A8BC701B801AE018D
:10049000475E5F4F0E94D5000E948A06A096E6E064
:1004A0000C94E012A0E2B0E0E8E5F2E00C94C41293
:1004B00069837A838B839C832D833E834F83588704
:1004C000F9E0EF2EF12CEC0EFD1ECE010196B701E6
:1004D0000E945F078E010F5E1F4FCE010596B80187
:1004E0000E945F07C701B801AE01475E5F4F0E94DF
:1004F000D5000E948A06A096E6E00C94E012A0E2E5
:10050000B0E0E5E8F2E00C94B81269837A838B835B
:100510009C832D833E834F835887CE010196BE0175
:10052000675F7F4F0E945F07CE010596BE016F5E39
:100530007F4F0E945F079985923088F089898230C9
:10054000C8F0943019F4823051F404C0843029F496
:10055000923081F48AE791E0C6C0923049F420E0FD
:100560009A858A89981321E02A87CE010996BBC013
:10057000823049F420E09A858A89981321E02A8BF9
:10058000CE014196B0C02D843E844F8458886D883A
:100590007E888F88988CEE24FF248701AA24BB24B0
:1005A000650140E050E060E070E0E0E0F0E0C101B3
:1005B00081709070892BE9F0E60CF71C081D191D5D
:1005C0009A01AB012A0D3B1D4C1D5D1D80E090E0A2
:1005D000A0E0B0E0E614F7040805190520F481E076
:1005E00090E0A0E0B0E0BA01A901480F591F6A1FCE
:1005F0007B1FAA0CBB1CCC1CDD1C97FE08C081E035
:1006000090E0A0E0B0E0A82AB92ACA2ADB2A3196F5
:10061000E032F10549F0660C771C881C991C569451
:10062000479437942794C3CFFA85EA892B893C896C
:100630008B859C85280F391F2E5F3F4F17C0CA013D
:1006400081709070892B61F016950795F794E79467
:1006500080E090E0A0E0B0E8E82AF92A0A2B1B2B02
:1006600076956795579547952F5F3F4F77FDE7CF75
:100670000CC0440F551F661F771F17FD4160EE0C1D
:10068000FF1C001F111F21503040403090E05907DF
:1006900090E0690790E4790760F32B8F3C8FDB01D2
:1006A000CA018F779070A070B07080349105A10559
:1006B000B10561F447FD0AC0E114F104010511051B
:1006C00029F0405C5F4F6F4F7F4F40781A8EFE17C6
:1006D00011F081E08A8F4D8F5E8F6F8F78A383E05A
:1006E000898FCE0149960E948A06A096E2E10C9479
:1006F000D412A8E1B0E0EFE7F3E00C94C0126983F4
:100700007A838B839C832D833E834F835887B9E004
:10071000EB2EF12CEC0EFD1ECE010196B7010E94CE
:100720005F078E010F5E1F4FCE010596B8010E9434
:100730005F072985223008F47EC03989323010F4F1
:10074000B8017CC08A859A8989278A87243011F06C
:10075000223031F4231709F06EC06AE771E06EC0F1
:10076000343039F41D861E861F86188A1C861B8627
:1007700004C0323021F484E08987B7015FC02B8543
:100780003C858B899C89281B390B3C872B87ED8402
:10079000FE840F851889AD88BE88CF88D88CEA146E
:1007A000FB040C051D0540F4EE0CFF1C001F111F7F
:1007B000215030403C872B8720E030E040E050E083
:1007C00080E090E0A0E0B0E460E070E0EA14FB04B8
:1007D0000C051D0540F0282B392B4A2B5B2BEA1802
:1007E000FB080C091D09B695A79597958795EE0C02
:1007F000FF1C001F111F6F5F7F4F6F31710531F7B5
:10080000DA01C9018F779070A070B07080349105C3
:10081000A105B10561F427FD0AC0E114F104010549
:10082000110529F0205C3F4F4F4F5F4F20782D87F7
:100830003E874F87588BBE01675F7F4FCB010E9479
:100840008A066896EAE00C94DC12A8E1B0E0EBE2DC
:10085000F4E00C94C41269837A838B839C832D8388
:100860003E834F83588789E0E82EF12CEC0EFD1E65
:10087000CE010196B7010E945F078E010F5E1F4FE8
:10088000CE010596B8010E945F078985823040F04D
:100890008989823028F0C701B8010E94D70701C0BA
:1008A0008FEF6896E6E00C94E012A8E1B0E0EBE58B
:1008B000F4E00C94C41269837A838B839C832D8328
:1008C0003E834F83588789E0E82EF12CEC0EFD1E05
:1008D000CE010196B7010E945F078E010F5E1F4F88
:1008E000CE010596B8010E945F078985823040F0ED
:1008F0008989823028F0C701B8010E94D70701C05A
:100900008FEF6896E6E00C94E012A8E1B0E0EBE827
:10091000F4E00C94C41269837A838B839C832D83C7
:100920003E834F83588789E0E82EF12CEC0EFD1EA4
:10093000CE010196B7010E945F078E010F5E1F4F27
:10094000CE010596B8010E945F078985823040F08C
:100950008989823028F0C701B8010E94D70701C0F9
:1009600081E06896E6E00C94E012A8E1B0E0EBEBE1
:10097000F4E00C94C41269837A838B839C832D8367
:100980003E834F83588789E0E82EF12CEC0EFD1E44
:10099000CE010196B7010E945F078E010F5E1F4FC7
:1009A000CE010596B8010E945F078985823040F02C
:1009B0008989823028F0C701B8010E94D70701C099
:1009C00081E06896E6E00C94E012A8E1B0E0EBEE7E
:1009D000F4E00C94C81269837A838B839C832D8303
:1009E0003E834F835887CE010196BE01675F7F4FDC
:1009F0000E945F07CE010596BE016F5E7F4F0E9489
:100A00005F078985823028F020E030E089898230D4
:100A100010F421E030E0822F6896E2E00C94E412BA
:100A2000A8E0B0E0E6E1F5E00C94C1129B01AC0156
:100A300083E08983DA01C9018827B7FD8395992767
:100A4000AA27BB27B82E211531054105510519F4F8
:100A500082E089833AC08823A9F0203080E03807FB
:100A600080E0480780E8580729F460E070E080E003
:100A70009FEC30C0EE24FF248701E21AF30A040B36
:100A8000150B02C079018A018EE1C82ED12CDC82BF
:100A9000CB82ED82FE820F831887C801B7010E94C6
:100AA0003B0601971816190684F4082E04C0EE0CB4
:100AB000FF1C001F111F0A94D2F7ED82FE820F83E4
:100AC0001887C81AD90ADC82CB82BA82CE01019675
:100AD0000E948A062896E9E00C94DD12ACE0B0E0B2
:100AE000E4E7F5E00C94C81269837A838B839C83D6
:100AF000CE010196BE016B5F7F4F0E945F078D8123
:100B0000823061F1823050F1843021F48E8188236B
:100B100051F12EC02F81388537FD20C06E812F31D5
:100B200031051CF06623F9F023C08EE190E0821BB2
:100B3000930B29853A854B855C8504C0569547956E
:100B4000379527958A95D2F76623B1F05095409551
:100B5000309521953F4F4F4F5F4F0EC020E030E062
:100B600040E050E009C02FEF3FEF4FEF5FE704C0D8
:100B700020E030E040E050E8B901CA012C96E2E004
:100B80000C94E412A8E0B0E0E8ECF5E00C94C0129C
:100B90007B018C01611571058105910519F482E0D5
:100BA000898360C083E089838EE1C82ED12CDC82EA
:100BB000CB82ED82FE820F831887C801B7010E94A5
:100BC0003B06FC013197F7FF3BC0222733272E1B42
:100BD0003F0B57016801022E04C0D694C794B79406
:100BE000A7940A94D2F740E050E060E070E081E022
:100BF00090E0A0E0B0E004C0880F991FAA1FBB1FBF
:100C00002A95D2F70197A109B1098E219F21A0232E
:100C1000B1230097A105B10521F041E050E060E06B
:100C200070E04A295B296C297D294D835E836F839F
:100C300078878EE190E08E1B9F0B9C838B8312C084
:100C4000309781F00E2E04C0EE0CFF1C001F111F08
:100C50000A94D2F7ED82FE820F831887CE1ADF0A3C
:100C6000DC82CB821A82CE0101960E948A062896E7
:100C7000EAE00C94DC12EF92FF920F931F937B013A
:100C80008C0180E0E81680E0F80681E0080780E04B
:100C9000180788F48FEFE816F1040105110531F00B
:100CA00028F088E090E0A0E0B0E017C080E090E09D
:100CB000A0E0B0E012C080E0E81680E0F80680E036
:100CC000080781E0180728F088E190E0A0E0B0E094
:100CD00004C080E190E0A0E0B0E020E230E040E03D
:100CE00050E0281B390B4A0B5B0B04C01695079587
:100CF000F794E7948A95D2F7F701EE57FE4F80817B
:100D0000281B310941095109C9011F910F91FF9019
:100D1000EF900895DF92EF92FF920F931F93FC01E3
:100D2000E480F58006811781D1808081823048F48B
:100D300080E090E0A0E1B0E0E82AF92A0A2B1B2B22
:100D4000A5C0843009F49FC0823021F4EE24FF2432
:100D5000870105C0E114F1040105110519F4E0E073
:100D6000F0E096C0628173819FEF623879070CF0E2
:100D70005BC022E83FEF261B370B2A3131052CF0F0
:100D800020E030E040E050E02AC0B801A701022E88
:100D900004C076956795579547950A94D2F781E0F8
:100DA00090E0A0E0B0E004C0880F991FAA1FBB1F0D
:100DB0002A95D2F70197A109B1098E219F21A0237D
:100DC000B1230097A105B10521F081E090E0A0E0FA
:100DD000B0E09A01AB01282B392B4A2B5B2BDA01AF
:100DE000C9018F779070A070B07080349105A10513
:100DF000B10539F427FF09C0205C3F4F4F4F5F4FCB
:100E000004C0215C3F4F4F4F5F4FE0E0F0E02030E7
:100E1000A0E03A07A0E04A07A0E45A0710F0E1E09A
:100E2000F0E079018A0127C06038710564F5FB01A3
:100E3000E158FF4FD801C7018F779070A070B07054
:100E400080349105A105B10539F4E7FE0DC080E4B9
:100E500090E0A0E0B0E004C08FE390E0A0E0B0E05C
:100E6000E80EF91E0A1F1B1F17FF05C016950795F0
:100E7000F794E794319687E016950795F794E794F1
:100E80008A95D1F705C0EE24FF248701EFEFF0E04B
:100E90006E2F679566276795902F9F77D794DD24EF
:100EA000D7948E2F8695492F462B582F5D29B70151
:100EB000CA011F910F91FF90EF90DF900895FC0100
:100EC000DB01408151812281622F6F7770E0221F08
:100ED0002227221F9381892F880F822B282F30E011
:100EE000991F9927991F11969C93119721153105E8
:100EF000A9F5411551056105710511F482E037C06E
:100F000082E89FEF13969C938E9312979A01AB0100
:100F100067E0220F331F441F551F6A95D1F783E006
:100F20008C930DC0220F331F441F551F12968D91B5
:100F30009C911397019713969C938E931297203050
:100F400080E0380780E0480780E4580758F314969B
:100F50002D933D934D935C93179708952F3F310543
:100F600079F4411551056105710519F484E08C93FC
:100F7000089564FF03C081E08C9312C01C9210C0DE
:100F80002F57304013963C932E93129783E08C9307
:100F900087E0440F551F661F771F8A95D1F770644D
:100FA00014964D935D936D937C93179708951F93BB
:100FB000DC01FB019C91923008F447C080818230B3
:100FC00008F443C0943051F411961C91843099F583
:100FD0008181682F70E0611B71093FC0843021F06E
:100FE000923031F48230B9F18181882389F12DC0AA
:100FF00011961C9111978230F1F081811817D9F464
:1010000012962D913C9113978281938182179307B9
:1010100094F028173907BCF014968D919D910D908E
:10102000BC91A02D2481358146815781281739072D
:101030004A075B0718F4112341F00AC0821793078F
:10104000A407B50740F4112319F061E070E005C072
:101050006FEF7FEF02C060E070E0CB011F91089559
:101060001F93CF93DF9381E793E060E071E00E94EC
:10107000821211E0C0E0D0E08EEE92E0612F0E947B
:10108000EF098EEE92E00E94B40A8823E9F481E72A
:1010900093E06CE071E00E948611103130F481E73A
:1010A00093E06BE271E00E94861181E793E0612F8B
:1010B00040E150E00E94511181E793E06DE271E060
:1010C0000E948212219617C08430A9F481E793E030
:1010D00061E371E00E948611103130F481E793E002
:1010E0006BE271E00E94861181E793E0612F40E19D
:1010F00050E00E9468111F5F1F3709F0BDCFCD2B54
:1011000029F481E793E06DE471E004C081E793E0A6
:1011100063E671E00E948212DF91CF911F910895E2
:101120000E94500D8EEE92E00E94B80A81E793E093
:1011300040E855E260E070E026E00E94B90E84E0ED
:1011400061E00E94EA0D0E94300884E061E00E94A4
:10115000560E64E670E080E090E00E948B0D84E023
:1011600060E00E94560E64E670E080E090E00E942D
:101170008B0D84E061E00E94560E68EC70E080E028
:1011800090E00E948B0D8FE10E94C80DAA2797FD69
:10119000A095BA2FBC01CD010E94100520E030E0DF
:1011A00040EA50E40E947F0220E030EC4FE754E434
:1011B0000E947903AB01BC0181E793E022E030E0BB
:1011C0000E946F1281E793E069E671E00E94861148
:1011D0008EE10E94C80DAA2797FDA095BA2FBC01E9
:1011E000CD010E94100520E030E040EA50E40E946A
:1011F0007F0220E030EC4FE754E40E947903AB011A
:10120000BC0181E793E022E030E00E946F1281E7A9
:1012100093E069E671E00E9486118DE10E94C80D9D
:10122000AA2797FDA095BA2FBC01CD010E941005F9
:1012300020E030E040EA50E40E947F0220E030EC01
:101240004FE754E40E947903AB01BC0181E793E0CE
:1012500022E030E00E946F1281E793E069E671E0DE
:101260000E9486118CE10E94C80DAA2797FDA095C7
:10127000BA2FBC01CD010E94100520E030E040EA09
:1012800050E40E947F0220E030EC4FE754E40E94DB
:101290007903AB01BC0181E793E022E030E00E94DA
:1012A0006F1281E793E069E671E00E9486118BE19D
:1012B0000E94C80DAA2797FDA095BA2FBC01CD01A9
:1012C0000E94100520E030E040EA50E40E947F02D6
:1012D00020E030EC4FE754E40E947903AB01BC01FD
:1012E00081E793E022E030E00E946F1281E793E013
:1012F00069E671E00E9486118AE10E94C80DAA2762
:1013000097FDA095BA2FBC01CD010E94100520E0E9
:1013100030E040EA50E40E947F0220E030EC4FE7EA
:1013200054E40E947903AB01BC0181E793E022E021
:1013300030E00E946F1281E793E069E671E00E945D
:10134000861189E10E94C80DAA2797FDA095BA2FA2
:10135000BC01CD010E94100520E030E040EA50E4DD
:101360000E947F0220E030EC4FE754E40E947903B2
:10137000AB01BC0181E793E022E030E00E946F12F4
:1013800081E793E069E671E00E94861188E10E949E
:10139000C80DAA2797FDA095BA2FBC01CD010E94C8
:1013A000100520E030E040EA50E40E947F0220E097
:1013B00030EC4FE754E40E947903AB01BC0181E7B4
:1013C00093E022E030E00E946F1268EE73E080E06C
:1013D00090E00E948B0DB7CE80E090E0089581E010
:1013E0008093ED026093CA021092EB021092EC021D
:1013F00008952091C90230E08091C802281B31096C
:10140000C90108954091C8028091C902481718F097
:101410002FEF3FEF0AC0E42FF0E0E855FD4F808149
:10142000282F30E04F5F4093C802C9010895E09132
:10143000C8028091C902E81718F0EFEFFFEF06C06D
:10144000F0E0E855FD4F8081E82FF0E0CF010895EE
:1014500008951092F1021092F00288EE93E0A0E05D
:10146000B0E08093F2029093F302A093F402B09361
:10147000F50287E892E09093EF028093EE020895E0
:10148000CF92DF92EF92FF920F931F93CF93DF9350
:101490007C016B018A018091ED028823A1F0C0E0FC
:1014A000D0E00DC0D701ED91FC91D601AC0FBD1F6E
:1014B0000190F081E02DC7016C9109952196C0172C
:1014C000D10780F304C0CB01642F0E94180BC80120
:1014D000DF91CF911F910F91FF90EF90DF90CF9010
:1014E0000895DF93CF930F92CDB7DEB7FC016983E8
:1014F0008091ED028823C9F08091EC02803238F0AF
:1015000081E090E09383828320E030E015C08091F9
:10151000EB02E82FF0E0E553FD4F998190838F5F58
:101520008093EB028093EC0205C0CE01019661E04E
:101530000E94180B21E030E0C9010F90CF91DF919C
:1015400008950F93062F8091CA026BEC72E04091D0
:10155000EC0221E00E94C30A1092EB021092EC020E
:101560001092ED020F91089561E00E94A10A089582
:101570001092C8021092C9021092EB021092EC0273
:101580000E94C40C08950F931F93582F122F4132BD
:1015900010F081E04AC08091FA028823E1F782E0EE
:1015A0008093FA020093FC028FEF809367031092FE
:1015B000220340932303A2E0B3E0FB0102C0819128
:1015C0008D938E2F861B8417D0F31092FB0280918F
:1015D000FB02550F852B8093FB028091FD02813029
:1015E00041F41092FD028091FB028093BB0085ECD8
:1015F00001C085EE8093BC00112321F08091FA0296
:101600008230E1F3809167038F3F11F480E00DC0D9
:1016100080916703803211F482E007C080916703F4
:10162000803311F084E001C083E01F910F91089591
:10163000482F613210F081E008958091FA028430E1
:1016400011F082E0089560934503A4E2B3E0842F93
:101650009C01F90102C081918D938E2F841B861706
:10166000D0F380E008951F920F920FB60F921124CD
:101670002F933F934F935F936F937F938F939F939A
:10168000AF93BF93EF93FF938091B90090E0887F71
:1016900090708036910509F4F2C081369105CCF541
:1016A0008832910509F47BC089329105B4F4803108
:1016B000910509F46FC0813191053CF4009709F45C
:1016C00047C1089709F04FC165C08831910509F4F9
:1016D00066C0809709F047C182C08034910509F443
:1016E000A4C08134910544F48033910509F482C08B
:1016F000C89709F038C189C08035910509F489C0BF
:101700008835910509F496C08834910509F02BC1FC
:10171000AEC08839910509F413C189399105ECF4FB
:101720008837910509F4ABC0893791054CF48836A8
:10173000910509F4A4C08037910509F014C19FC038
:101740008838910509F4FCC08039910509F49DC0E1
:101750008038910509F007C198C0803B910509F4D4
:10176000C6C0813B91054CF4803A910509F49FC0B5
:10177000883A910509F0F7C0BAC0803C910509F498
:10178000E3C0883C910509F4DFC0883B910509F06E
:10179000EAC0C2C08091FB028093BB00CFC0909191
:1017A000220380912303981768F490912203E92F74
:1017B000F0E0EE5FFC4F80818093BB009F5F9093D1
:1017C0002203BCC08091FC02882309F44BC085ED44
:1017D0008093BC008091BC0084FDFCCFC2C080E23D
:1017E0008093670385ED8093BC008091BC0084FDED
:1017F000FCCFB7C080E38093670385ED8093BC0086
:101800008091BC0084FDFCCFACC088E3809367036B
:101810009BC0809122039091BB00E82FF0E0EE5F27
:10182000FC4F90838F5F80932203909122038091DD
:10183000230382C0809122039091BB00E82FF0E047
:10184000EE5FFC4F90838F5F809322038091FC02B8
:10185000882341F085ED8093BC008091BC0084FD1D
:10186000FCCF7FC081E08093FD0284EA6EC085EDED
:101870008093BC008091BC0084FDFCCF72C083E0EB
:101880008093FA021092660359C0809166038032F9
:1018900008F056C0809166039091BB00E82FF0E0FD
:1018A000EA5BFC4F90838F5F8093660347C0809113
:1018B0006603803230F4E0916603F0E0EA5BFC4FAF
:1018C000108285ED8093BC008091BC0084FDFCCF2C
:1018D0001092FA0260916603E0910003F091010317
:1018E00086E493E070E00995109266032DC084E0D1
:1018F0008093FA021092440310924503E091FE0295
:10190000F091FF02099580914503882329F481E035
:10191000809345031092240390914403E92FF0E053
:10192000EC5DFC4F80818093BB009F5F90934403EC
:101930009091440380914503981710F485EC01C001
:1019400085E88093BC000FC085EC8093BC0009C083
:101950001092670385ED8093BC008091BC0084FDEC
:10196000FCCF1092FA02FF91EF91BF91AF919F913E
:101970008F917F916F915F914F913F912F910F9038
:101980000FBE0F901F9018951092FA0281E080937D
:10199000FC021092FD0284E161E00E94560E85E196
:1019A00061E00E94560EE9EBF0E080818E7F80833B
:1019B00080818D7F808388E48093B80085E4809364
:1019C000BC0008951F920F920FB60F9211242F930F
:1019D0003F938F939F93AF93BF9380916C039091AC
:1019E0006D03A0916E03B0916F0330917003019667
:1019F000A11DB11D232F2D5F2D3720F02D570196EE
:101A0000A11DB11D2093700380936C0390936D030F
:101A1000A0936E03B0936F03809168039091690364
:101A2000A0916A03B0916B030196A11DB11D809333
:101A3000680390936903A0936A03B0936B03BF910B
:101A4000AF919F918F913F912F910F900FBE0F906B
:101A50001F9018959FB7F8942091680330916903FF
:101A600040916A0350916B0386B5A89B06C08F3FD7
:101A700021F02F5F3F4F4F4F5F4F9FBF542F432F9A
:101A8000322F2227280F311D411D511D82E0220FC8
:101A9000331F441F551F8A95D1F7B901CA01089514
:101AA000789484B5826084BD84B5816084BD85B539
:101AB000826085BD85B5816085BDEEE6F0E0808100
:101AC00081608083E1E8F0E0108280818260808321
:101AD000808181608083E0E8F0E0808181608083A4
:101AE000E1EBF0E0808184608083E0EBF0E08081D6
:101AF00081608083EAE7F0E0808184608083808178
:101B0000826080838081816080838081806880831F
:101B10001092C1000895AF92BF92CF92DF92EF92E0
:101B2000FF920F931F937B018C010E942A0D5B0192
:101B30006C0120C00E94951212C00894E108F108BF
:101B40000109110988EE93E0A0E0B0E0A80EB91EEB
:101B5000CA1EDB1EE114F1040105110559F00E94B3
:101B60002A0D6A197B098C099D09685E73408040C3
:101B7000904018F7E114F10401051105D9F61F9101
:101B80000F91FF90EF90DF90CF90BF90AF900895AE
:101B9000982F883108F09851977080918202829531
:101BA000880F880F807C892B80937C0080917A003D
:101BB000806480937A0080917A0086FDFCCF20912A
:101BC000780040917900942F80E030E0282B392B69
:101BD000C9010895CF93DF93482F50E0CA0186547E
:101BE0009F4FFC01349146565F4FFA018491882340
:101BF00069F190E0880F991FFC01E458FF4FA5910F
:101C0000B491FC01EA57FF4FC591D491662351F47A
:101C10002FB7F8948C91932F909589238C9388817A
:101C200089230BC0623061F42FB7F8948C91932F05
:101C3000909589238C938881832B88832FBF06C03E
:101C40009FB7F8948C91832B8C939FBFDF91CF919A
:101C50000895833071F0843028F48130A1F082300F
:101C600021F514C08730B1F08830D1F08430E9F428
:101C700004C0809180008F7703C0809180008F7DA9
:101C800080938000089584B58F7702C084B58F7DDE
:101C900084BD08958091B0008F778093B00008953F
:101CA0008091B0008F7D8093B0000895FF920F93D4
:101CB0001F93F62E482F50E0CA0186529F4FFC0119
:101CC0002491CA0186549F4FFC01149146565F4FE0
:101CD000FA0104910023C9F0222319F0822F0E94F7
:101CE000290EE02FF0E0EE0FFF1FEA57FF4FA591FE
:101CF000B4919FB7F894FF2021F48C911095812323
:101D000002C08C91812B8C939FBF1F910F91FF90EC
:101D10000895DC015E968C915E97FD01E80FF11D40
:101D2000E15EFD4F20815E968C915E9790E001967A
:101D30008F7390705E968C935E975696ED91FC91A2
:101D4000579720835096ED91FC9151978081806444
:101D500080835D969C915D975E968C915E979817B7
:101D600039F45296ED91FC91539780818F7D808359
:101D70000895DF92EF92FF920F931F93CF93DF931B
:101D8000EC017A018B01D22EE889F98982E0808307
:101D9000403081EE580780E0680780E07807A1F0C6
:101DA00060E079E08DE390E0A80197010E9496122F
:101DB00021503040404050405695479537952795E3
:101DC00080E12030380798F0E889F989108260E8CE
:101DD00074E88EE190E0A80197010E9496122150CC
:101DE0003040404050405695479537952795EC85B3
:101DF000FD853083EE85FF852083188EEC89FD8973
:101E0000D082EA89FB89808180618083EA89FB89AD
:101E1000808188608083EA89FB89808180688083F3
:101E2000EA89FB8980818F7D8083DF91CF911F912B
:101E30000F91FF90EF90DF900895FC01218D328D7E
:101E4000838D948D281B390B3170C9010895DC01F5
:101E500059962D913C915A975B968D919C915C97E8
:101E60002817390719F42FEF3FEF09C05B96ED9162
:101E7000FC915C97EA0FFB1F878D282F30E0C9018A
:101E80000895DC0159962D913C915A975B968D915E
:101E90009C915C972817390719F42FEF3FEF12C078
:101EA0005B96ED91FC915C97EA0FFB1F278D5B968B
:101EB0008D919C915C97019691705C969C938E930A
:101EC0005B9730E0C9010895FC01958D868D282F20
:101ED00030E0492F50E0981718F0215C3F4F02C0C6
:101EE00021503040241B350BC9010895CF93DF9357
:101EF000EC01888D882361F419C08C9185FF0AC09C
:101F0000E889F989808185FF05C0CE010E94890E8C
:101F1000AA89BB898C9185FD05C0E889F9898081F2
:101F200086FD04C00FB607FEE8CFF4CFDF91CF9156
:101F300008950F931F93CF93DF93EC01062F81E059
:101F4000888F9D8D8E8D981779F5E889F989808124
:101F500085FF2AC0EE89FF896083E889F98980813D
:101F600080641AC00FB607FC08C0E889F98980812F
:101F700085FF03C0CE010E94890E8E8D181791F344
:101F80008D8DFE01E80FF11DE15EFD4F00831D8F79
:101F9000EA89FB8980818062808381E090E0DF9123
:101FA000CF911F910F9108951D8D1F5F1F73E5CF76
:101FB0001F920F920FB60F9211242F933F934F93BE
:101FC0008F939F93EF93FF93E0918103F0918203AE
:101FD000808182FD1FC0E0918703F09188034081DA
:101FE00020918A0330918B032F5F3F4F3170809196
:101FF0008C0390918D032817390789F0E0918A03AB
:10200000F0918B03EF58FC4F478F30938B03209355
:102010008A0305C0E0918703F0918803E081FF9176
:10202000EF919F918F914F913F912F910F900FBE04
:102030000F901F901895109274031092730388EEFE
:1020400093E0A0E0B0E08093750390937603A093B3
:102050007703B093780389E992E0909372038093B9
:10206000710385EC90E090937E0380937D0384EC74
:1020700090E09093800380937F0380EC90E09093B6
:1020800082038093810381EC90E09093840380939A
:10209000830382EC90E0909386038093850386EC23
:1020A00090E0909388038093870310928B031092A3
:1020B0008A0310928D0310928C0310928E0310925B
:1020C0008F0308951F920F920FB60F9211242F9332
:1020D0003F934F935F936F937F938F939F93AF93B0
:1020E000BF93EF93FF9381E793E00E94890EFF91E6
:1020F000EF91BF91AF919F918F917F916F915F9180
:102100004F913F912F910F900FBE0F901F901895F8
:10211000CF92DF92EF92FF920F931F93CF93DF93B3
:102120007C018B016A01C0E0D0E00FC0D701ED91C6
:10213000FC910190F081E02DC701D8016C910995C7
:10214000892B31F00F5F1F4F2196CC16DD0671F7FA
:10215000CE01DF91CF911F910F91FF90EF90DF9013
:10216000CF900895CF93DF93EC016115710519F4B9
:1021700020E030E00FC0DB010D900020E9F711975F
:10218000A61BB70BE881F9810280F381E02DAD0138
:1021900009959C01C901DF91CF9108953F924F921B
:1021A0005F926F927F928F929F92AF92BF92CF92E7
:1021B000DF92EF92FF920F931F93DF93CF93CDB7F0
:1021C000DEB7A3970FB6F894DEBF0FBECDBF9BA3BB
:1021D0008AA3342E452E562E672E223008F42AE08C
:1021E00019A281E2C82ED12CCC0EDD1E822E99249C
:1021F000AA24BB24632D742D852D962DA501940151
:102200000E949612762E632D742D852D962DA50194
:1022100094010E94961279018A01D801C701382ED3
:10222000492E5A2E6B2E0894C108D10889E08715D3
:102230001CF0672D605D02C0672D695CF60160834C
:10224000E114F10401051105A9F68AA19BA1B601CB
:102250000E94B210A3960FB6F894DEBF0FBECDBF9A
:10226000CF91DF911F910F91FF90EF90DF90CF9072
:10227000BF90AF909F908F907F906F905F904F90A6
:102280003F900895DC012115310541F4ED91FC9159
:102290000190F081E02D642F099508950E94CE10E1
:1022A0000895EF92FF920F931F939A01E62EFF2459
:1022B00000E010E0B801A7010E9442111F910F91A8
:1022C000FF90EF9008956BE671E00E94B2100895C0
:1022D000CF92DF92EF92FF920F931F936C01E62E45
:1022E0009A01FF2400E010E0B801A7010E9442110A
:1022F0008C01C6010E946311080F191FC8011F91AC
:102300000F91FF90EF90DF90CF9008950E94B21050
:1023100008957F928F929F92AF92BF92CF92DF9259
:10232000EF92FF920F931F93CF93DF934C017A01AB
:102330008B01722ECB01BA01A80197010E94E5041E
:10234000882321F0C4016EE671E021C0C0E0D0E036
:1023500057016801E894D7F8C601B5012FEF3FEFA8
:102360004FE75FE70E94E504882351F4C601B501F9
:102370002FEF3FEF4FE75FE70E94B504181614F008
:10238000C1E0D0E0219739F0C40162E771E00E941A
:10239000B210EC0195C0C801B7012FEF3FEF4FE736
:1023A0005FE40E942504181654F0C801B7012FEF0E
:1023B0003FEF4FE75FEC0E948504882324F4C401BB
:1023C00066E771E0E4CFC801B70120E030E040E00B
:1023D00050E00E94850487FD03C0C0E0D0E00EC03D
:1023E000D401ED91FC910190F081E02DC4016DE2EA
:1023F0000995EC0117FB109517F9109520E030E0D6
:1024000040E05FE3DD240BC0CA01B90120E030E009
:1024100040E251E40E9479039B01AC01D394D714AC
:1024200098F3C801B7010E9452025B016C010E943F
:10243000A9007B018C01C401B801A7012AE030E0AA
:102440000E944211C80FD91F772059F0D401ED9195
:10245000FC910190F081E02DC4016EE20995C80F56
:10246000D91FC801B7010E94C2059B01AC01C6017A
:10247000B5010E94210222C020E030E040E251E498
:102480000E947F027B018C010E94A9005B016C010C
:10249000CC24DD24C401B601A5012AE030E00E946D
:1024A0004211C80FD91FC601B5010E94C2059B0188
:1024B000AC01C801B7010E9421027A947720E1F6AD
:1024C000CE01DF91CF911F910F91FF90EF90DF90A0
:1024D000CF90BF90AF909F908F907F900895EF9294
:1024E000FF920F931F937C010E9489118C01C701F9
:1024F0000E946311080F191FC8011F910F91FF90CF
:10250000EF900895EF92FF920F931F937C010E942A
:10251000B2108C01C7010E946311080F191FC80176
:102520001F910F91FF90EF9008950895A1E21A2E48
:10253000AA1BBB1BFD010DC0AA1FBB1FEE1FFF1F67
:10254000A217B307E407F50720F0A21BB30BE40BB7
:10255000F50B661F771F881F991F1A9469F76095FE
:102560007095809590959B01AC01BD01CF010895B8
:102570002F923F924F925F926F927F928F929F9293
:10258000AF92BF92CF92DF92EF92FF920F931F9381
:10259000CF93DF93CDB7DEB7CA1BDB0B0FB6F89432
:1025A000DEBF0FBECDBF09942A88398848885F8472
:1025B0006E847D848C849B84AA84B984C884DF80E3
:1025C000EE80FD800C811B81AA81B981CE0FD11DC7
:1025D0000FB6F894DEBF0FBECDBFED010895EE0F2C
:0E25E000FF1F0590F491E02D0994F894FFCFB1
:1025EE005363616E6E696E672E2E2E004932432044
:1025FE0064657669636520666F756E64206174200C
:10260E00616464726573732030780030002020217D
:10261E0000556E6B6E6F776E206572726F722061F1
:10262E00742061646472657373203078004E6F207D
:10263E00493243206465766963657320666F756EF3
:10264E00640A00646F6E650A0009000D0A006E616F
:10265E006E00696E66006F76660000000000000076
:10266E000000000102020303030304040404040433
:10267E0004040505050505050505050505050505FE
:10268E0005050606060606060606060606060606DE
:10269E0006060606060606060606060606060606CC
:1026AE0006060707070707070707070707070707AE
:1026BE00070707070707070707070707070707079C
:1026CE00070707070707070707070707070707078C
:1026DE00070707070707070707070707070707077C
:1026EE00070708080808080808080808080808085E
:1026FE00080808080808080808080808080808084C
:10270E00080808080808080808080808080808083B
:10271E00080808080808080808080808080808082B
:10272E00080808080808080808080808080808081B
:10273E00080808080808080808080808080808080B
:10274E0008080808080808080808080808080808FB
:10275E0008080808080808080808080808080808EB
:10276E0008080100000000710A400AEC09280AF965
:10277E0009020A170A00000000990F8810640F76EC
:08278E000F1D0F410F270F0082
:00000001FF
