:100000000C9481000C94A9000C94A9000C94A900F4
:100010000C9466010C948A010C94AE010C94D201EC
:100020000C94A9000C94A9000C94A9000C94A900AC
:100030000C94A9000C94A9000C94A9000C94A9009C
:100040000C94A9000C94A9000C941B060C94A90014
:100050000C94EF080C9479090C94A9000C94A90055
:100060000C94A9000C94A9000C946C040C94A900A5
:100070000C94A9000C94A9000C94A9000000210084
:10008000240027002A0000002200250028002B0061
:1000900000002000230026002900040404040202BA
:1000A0000202040402020202030303030303030324
:1000B000040401010101010101010102040801021E
:1000C00004084020102040808040201008040201D5
:1000D0001080804020100804020100000000000091
:1000E000000108030200090A0000000000000000EF
:1000F00004070000000000000000C900CE03320920
:10010000C20011241FBECFEFD0E1DEBFCDBF11E092
:10011000A0E0B1E0E4EBF4E102C005900D92A43B55
:10012000B107D9F715E0A4EBB1E001C01D92AB33E4
:10013000B107E1F710E0C0E0D1E004C02297FE0172
:100140000E94490ACA3FD107C9F70E94D0000C9407
:100150004D0A0C9400008130910551F46F5F7F4F80
:1001600081F484EB91E066E040E00E947D03089515
:10017000892B39F46F5F7F4F21F484EB91E00E946B
:10018000DE02089580E090E06FEF7FEF0E94AB0009
:10019000089581E090E06FEF7FEF0E94AB0008953B
:1001A0000E94890689E592E00E9446048CED92E067
:1001B00040E855E260E070E026E00E94D00784E06D
:1001C00061E00E9401078CED92E060E071E00E9426
:1001D000EA0968EB7BE080E090E00E94C406FFCF74
:1001E00080E090E008950F931F93CF93DF93FC017D
:1001F000838DA685B7859585082F027081FF05C080
:100200008C91892309F454C004C08C91892309F08E
:100210004FC08389948920E001972FEF8F3F920789
:10022000D9F7C589D689A685B785758560E031E09F
:1002300040E050E010E0CE01212F01972FEF8F3FDB
:100240009207D9F78C91872311F0632B03C0832F7A
:1002500080956823330F4F5F5F4F4830510559F742
:100260008789908D20E001972FEF8F3F9207D9F774
:1002700001116095809112022091130290E0019685
:100280008F73907030E08217930779F0E09112023B
:10029000F0E0EE52FE4F60838091120290E00196F2
:1002A0008F7390708093120203C0838D8160838F5F
:1002B000DF91CF911F910F9108958091D00190917E
:1002C000D101009711F00E94F30008951F920F9240
:1002D0000FB60F9211242F933F934F935F936F9319
:1002E0007F938F939F93AF93BF93EF93FF930E945E
:1002F0005D01FF91EF91BF91AF919F918F917F91A0
:100300006F915F914F913F912F910F900FBE0F9082
:100310001F9018951F920F920FB60F9211242F93D2
:100320003F934F935F936F937F938F939F93AF937D
:10033000BF93EF93FF930E945D01FF91EF91BF91F7
:10034000AF919F918F917F916F915F914F913F916D
:100350002F910F900FBE0F901F9018951F920F9224
:100360000FB60F9211242F933F934F935F936F9388
:100370007F938F939F93AF93BF93EF93FF930E94CD
:100380005D01FF91EF91BF91AF919F918F917F910F
:100390006F915F914F913F912F910F900FBE0F90F2
:1003A0001F9018951F920F920FB60F9211242F9342
:1003B0003F934F935F936F937F938F939F93AF93ED
:1003C000BF93EF93FF930E945D01FF91EF91BF9167
:1003D000AF919F918F917F916F915F914F913F91DD
:1003E0002F910F900FBE0F901F901895FC018485E0
:1003F000803208F0E2C0882309F471C0813009F42A
:100400006EC0823009F46BC0833009F4CAC08430F6
:1004100009F4CAC0853009F4C7C0863009F4C4C0E5
:10042000873009F4C1C0883009F4BBC0893009F4B1
:10043000B8C08A3009F4B8C08B3009F4B5C08C302C
:1004400009F4B2C08D3009F4AFC08E3009F4AFC0EA
:100450008F3009F4ACC0803109F4A9C0813109F4AE
:10046000A6C0823109F4A3C0833109F4A0C084314D
:1004700009F49DC0853109F49AC0863109F491C010
:10048000873109F08BC08DC0843089F1853079F1D6
:10049000863069F1873059F1883031F1893021F1A6
:1004A0008A3029F18B3019F18C3009F18D30F9F057
:1004B0008E3001F18F30F1F08031E1F08131D1F0F7
:1004C0008231C1F08331B1F08431A1F0853191F0F6
:1004D000863151F0873141F0EBE6F0E00DC0E3E703
:1004E000F0E0A3E7B0E008C0E3E7F0E005C0ECE629
:1004F000F0E002C0EDE6F0E09081882309F440C00E
:100500008130E1F18230F1F18330F1F18430C1F1D9
:100510008530A1F18630B1F18730B1F18830B1F189
:100520008930B1F18A30B1F18B3091F18C3071F1B9
:100530008D30B1F08E30A1F08F3041F1803141F13A
:10054000813141F1823101F18331E1F08431B1F047
:100550008531B1F08631F1F0873111F0883111F435
:100560008FE719C0893191F08A3191F08B3191F088
:100570008C3151F08D3131F08E3111F48DEF0BC093
:100580008EEF09C08BEF07C087EF05C08FEB03C06C
:100590008FED01C08FEE89238C930895ABE6B0E018
:1005A00008C0A3E7B0E005C0ACE6B0E002C0ADE62D
:1005B000B0E0833009F068CF97CF0895FC0182E85E
:1005C00091E091838083CF010E94F60108952091EC
:1005D000D0013091D1012817390731F490911302DD
:1005E00080911202981719F42FEF3FEF0FC0E0919E
:1005F0001302F0E0EE52FE4F20818091130290E052
:1006000001968F7390708093130230E0C9010895B2
:100610002091D0013091D1012817390719F020E03D
:1006200030E00EC0809112022091130290E0805CB5
:100630009F4F821B910960E470E00E94FE099C01BB
:10064000C901089580E090E008952091D001309193
:10065000D1012817390749F49FB7F8941092120274
:1006600080911202809313029FBF08952091D001C0
:100670003091D1012817390731F4909113028091FC
:100680001202981719F42FEF3FEF0AC0E0911302FE
:10069000F0E0EE52FE4F8081282F332727FD309562
:1006A000C90108951F93CF93DF93EC01162F862F76
:1006B00060E00E9401078B8D81FD04C0812F61E005
:1006C0000E946D071C87212F30E0C90186549F4F7F
:1006D000FC0184918D8726563F4FF9016491E62FE6
:1006E000F0E0EE0FFF1FE057FF4F859194919F8739
:1006F0008E87DF91CF911F910895FC0113821282A2
:1007000088EE93E0A0E0B0E084839583A683B7836E
:1007100082E891E091838083148A138A168A158A6D
:10072000108E178A128E118E838D4170440F8C7F2C
:10073000842B838FCF010E945203089520913502AC
:1007400030E080913402281B3109C901089540919D
:10075000340280913502481718F02FEF3FEF0AC09E
:10076000E42FF0E0EC5EFD4F8081282F30E04F5FFA
:1007700040933402C9010895E0913402809135021A
:10078000E81718F0EFEFFFEF06C0F0E0EC5EFD4F6A
:100790008081E82FF0E0CF010895089510925C0267
:1007A00010925B0288EE93E0A0E0B0E080935D02DF
:1007B00090935E02A0935F02B093600284E991E09F
:1007C00090935A02809359020895CF92DF92EF924C
:1007D000FF920F931F93CF93DF937C016B018A01EC
:1007E000809158028823A1F0C0E0D0E00DC0D7016D
:1007F000ED91FC91D601AC0FBD1F0190F081E02D71
:10080000C7016C9109952196C017D10780F304C0E8
:10081000CB01642F0E945104C801DF91CF911F9139
:100820000F91FF90EF90DF90CF900895DF93CF93DB
:100830000F92CDB7DEB7FC016983809158028823FF
:10084000C9F080915702803238F081E090E09383C4
:10085000828320E030E015C080915602E82FF0E05E
:10086000EA5CFD4F998190838F5F8093560280935D
:10087000570205C0CE01019661E00E94510421E0BB
:1008800030E0C9010F90CF91DF91089510923402AA
:100890001092350210925602109257020E94FD05E6
:1008A0000895482F613210F081E00895809165022B
:1008B000843011F082E008956093B002AFE8B2E0B6
:1008C000842F9C01F90102C081918D938E2F841B8E
:1008D0008617D0F380E008951F920F920FB60F9203
:1008E00011242F933F934F935F936F937F938F9335
:1008F0009F93AF93BF93EF93FF938091B90090E0E4
:10090000887F90708036910509F4F2C08136910598
:10091000CCF58832910509F47BC089329105B4F495
:100920008031910509F46FC0813191053CF4009745
:1009300009F447C1089709F04FC165C08831910596
:1009400009F466C0809709F047C182C080349105E0
:1009500009F4A4C08134910544F48033910509F46D
:1009600082C0C89709F038C189C08035910509F463
:1009700089C08835910509F496C08834910509F03D
:100980002BC1AEC08839910509F413C1893991058D
:10099000ECF48837910509F4ABC0893791054CF424
:1009A0008836910509F4A4C08037910509F014C177
:1009B0009FC08838910509F4FCC08039910509F47D
:1009C0009DC08038910509F007C198C0803B910512
:1009D00009F4C6C0813B91054CF4803A910509F4B5
:1009E0009FC0883A910509F0F7C0BAC0803C9105D4
:1009F00009F4E3C0883C910509F4DFC0883B910508
:100A000009F0EAC0C2C0809166028093BB00CFC0EB
:100A100090918D0280918E02981768F490918D02CA
:100A2000E92FF0E0E359FD4F80818093BB009F5F89
:100A300090938D02BCC080916702882309F44BC05B
:100A400085ED8093BC008091BC0084FDFCCFC2C0CA
:100A500080E28093D20285ED8093BC008091BC003F
:100A600084FDFCCFB7C080E38093D20285ED8093F4
:100A7000BC008091BC0084FDFCCFACC088E38093B7
:100A8000D2029BC080918D029091BB00E82FF0E0D4
:100A9000E359FD4F90838F5F80938D0290918D027B
:100AA00080918E0282C080918D029091BB00E82FD0
:100AB000F0E0E359FD4F90838F5F80938D0280912A
:100AC0006702882341F085ED8093BC008091BC00D3
:100AD00084FDFCCF7FC081E08093680284EA6EC011
:100AE00085ED8093BC008091BC0084FDFCCF72C07A
:100AF00083E0809365021092D10259C08091D102A7
:100B0000803208F056C08091D1029091BB00E82F4E
:100B1000F0E0EF54FD4F90838F5F8093D10247C088
:100B20008091D102803230F4E091D102F0E0EF54B4
:100B3000FD4F108285ED8093BC008091BC0084FD48
:100B4000FCCF109265026091D102E0916B02F091AE
:100B50006C0281EB92E070E009951092D1022DC0F9
:100B600084E0809365021092AF021092B002E0918F
:100B70006902F0916A0209958091B002882329F4F4
:100B800081E08093B00210928F029091AF02E92F22
:100B9000F0E0E157FD4F80818093BB009F5F909311
:100BA000AF029091AF028091B002981710F485ECDB
:100BB00001C085E88093BC000FC085EC8093BC0029
:100BC00009C01092D20285ED8093BC008091BC00D8
:100BD00084FDFCCF10926502FF91EF91BF91AF9120
:100BE0009F918F917F916F915F914F913F912F9145
:100BF0000F900FBE0F901F9018951092650281E024
:100C0000809367021092680284E161E00E946D07A0
:100C100085E161E00E946D07E9EBF0E080818E7F65
:100C2000808380818D7F808388E48093B80085E411
:100C30008093BC0008951F920F920FB60F9211245B
:100C40002F933F938F939F93AF93BF938091D7023E
:100C50009091D802A091D902B091DA023091DB02D2
:100C60000196A11DB11D232F2D5F2D3720F02D578B
:100C70000196A11DB11D2093DB028093D7029093B2
:100C8000D802A093D902B093DA028091D302909156
:100C9000D402A091D502B091D6020196A11DB11D3A
:100CA0008093D3029093D402A093D502B093D6023E
:100CB000BF91AF919F918F913F912F910F900FBE58
:100CC0000F901F9018959FB7F8942091D302309100
:100CD000D4024091D5025091D60286B5A89B06C099
:100CE0008F3F21F02F5F3F4F4F4F5F4F9FBF542FDC
:100CF000432F322F2227280F311D411D511D82E025
:100D0000220F331F441F551F8A95D1F7B901CA011D
:100D10000895789484B5826084BD84B5816084BD73
:100D200085B5826085BD85B5816085BDEEE6F0E064
:100D3000808181608083E1E8F0E0108280818260C0
:100D40008083808181608083E0E8F0E08081816041
:100D50008083E1EBF0E0808184608083E0EBF0E071
:100D6000808181608083EAE7F0E080818460808315
:100D700080818260808380818160808380818068BF
:100D800080831092C1000895AF92BF92CF92DF92FC
:100D9000EF92FF920F931F937B018C010E946306D9
:100DA0005B016C0120C00E94FD0912C00894E1089B
:100DB000F1080109110988EE93E0A0E0B0E0A80E67
:100DC000B91ECA1EDB1EE114F1040105110559F01C
:100DD0000E9463066A197B098C099D09685E73404D
:100DE0008040904018F7E114F10401051105D9F68F
:100DF0001F910F91FF90EF90DF90CF90BF90AF9039
:100E00000895CF93DF93482F50E0CA0186549F4F37
:100E1000FC01349146565F4FFA018491882369F1B1
:100E200090E0880F991FFC01E458FF4FA591B49101
:100E3000FC01EA57FF4FC591D491662351F42FB7B7
:100E4000F8948C91932F909589238C938881892392
:100E50000BC0623061F42FB7F8948C91932F90956A
:100E600089238C938881832B88832FBF06C09FB7EB
:100E7000F8948C91832B8C939FBFDF91CF91089531
:100E8000833071F0843028F48130A1F0823021F574
:100E900014C08730B1F08830D1F08430E9F404C058
:100EA000809180008F7703C0809180008F7D809338
:100EB0008000089584B58F7702C084B58F7D84BD8E
:100EC00008958091B0008F778093B000089580914D
:100ED000B0008F7D8093B0000895FF920F931F9311
:100EE000F62E482F50E0CA0186529F4FFC012491F4
:100EF000CA0186549F4FFC01149146565F4FFA0178
:100F000004910023C9F0222319F0822F0E94400788
:100F1000E02FF0E0EE0FFF1FEA57FF4FA591B491CD
:100F20009FB7F894FF2021F48C911095812302C083
:100F30008C91812B8C939FBF1F910F91FF900895EF
:100F4000DC015E968C915E97FD01E80FF11DE15E7C
:100F5000FD4F20815E968C915E9790E001968F7395
:100F600090705E968C935E975696ED91FC91579794
:100F700020835096ED91FC9151978081806480830D
:100F80005D969C915D975E968C915E97981739F46B
:100F90005296ED91FC91539780818F7D80830895C7
:100FA000DF92EF92FF920F931F93CF93DF93EC01A9
:100FB0007A018B01D22EE889F98982E08083403062
:100FC00081EE580780E0680780E07807A1F060E0D4
:100FD00079E08DE390E0A80197010E94110A215069
:100FE000304040405040569547953795279580E1D1
:100FF0002030380798F0E889F989108260E874E8B1
:101000008EE190E0A80197010E94110A2150304022
:10101000404050405695479537952795EC85FD857E
:101020003083EE85FF852083188EEC89FD89D08280
:10103000EA89FB89808180618083EA89FB898081DC
:1010400088608083EA89FB89808180688083EA895F
:10105000FB8980818F7D8083DF91CF911F910F91DC
:10106000FF90EF90DF900895FC01218D328D838DEC
:10107000948D281B390B3170C9010895DC015996F4
:101080002D913C915A975B968D919C915C97281776
:10109000390719F42FEF3FEF09C05B96ED91FC91F2
:1010A0005C97EA0FFB1F878D282F30E0C901089558
:1010B000DC0159962D913C915A975B968D919C91AC
:1010C0005C972817390719F42FEF3FEF12C05B9692
:1010D000ED91FC915C97EA0FFB1F278D5B968D913C
:1010E0009C915C97019691705C969C938E935B9714
:1010F00030E0C9010895FC01958D868D282F30E0E0
:10110000492F50E0981718F0215C3F4F02C0215042
:101110003040241B350BC9010895CF93DF93EC01B8
:10112000888D882361F419C08C9185FF0AC0E889F5
:10113000F989808185FF05C0CE010E94A007AA8998
:10114000BB898C9185FD05C0E889F989808186FD80
:1011500004C00FB607FEE8CFF4CFDF91CF9108951A
:101160000F931F93CF93DF93EC01062F81E0888FBD
:101170009D8D8E8D981779F5E889F989808185FF95
:101180002AC0EE89FF896083E889F98980818064BB
:101190001AC00FB607FC08C0E889F989808185FF6D
:1011A00003C0CE010E94A0078E8D181791F38D8D7C
:1011B000FE01E80FF11DE15EFD4F00831D8FEA89FE
:1011C000FB8980818062808381E090E0DF91CF9114
:1011D0001F910F9108951D8D1F5F1F73E5CF1F9203
:1011E0000F920FB60F9211242F933F934F938F932B
:1011F0009F93EF93FF93E091EC02F091ED028081D9
:1012000082FD1FC0E091F202F091F3024081209133
:10121000F5023091F6022F5F3F4F31708091F70257
:101220009091F8022817390789F0E091F502F091C2
:10123000F602E452FD4F478F3093F6022093F502F9
:1012400005C0E091F202F091F302E081FF91EF918D
:101250009F918F914F913F912F910F900FBE0F90C3
:101260001F9018951092DF021092DE0288EE93E034
:10127000A0E0B0E08093E0029093E102A093E2024C
:10128000B093E30286EA91E09093DD028093DC0262
:1012900085EC90E09093E9028093E80284EC90E082
:1012A0009093EB028093EA0280EC90E09093ED0241
:1012B0008093EC0281EC90E09093EF028093EE0239
:1012C00082EC90E09093F1028093F00286EC90E043
:1012D0009093F3028093F2021092F6021092F502BC
:1012E0001092F8021092F7021092F9021092FA028C
:1012F00008951F920F920FB60F9211242F933F93D0
:101300004F935F936F937F938F939F93AF93BF930D
:10131000EF93FF938CED92E00E94A007FF91EF9175
:10132000BF91AF919F918F917F916F915F914F91FD
:101330003F912F910F900FBE0F901F901895CF9255
:10134000DF92EF92FF920F931F93CF93DF937C0175
:101350008B016A01C0E0D0E00FC0D701ED91FC9194
:101360000190F081E02DC701D8016C910995892B7E
:1013700031F00F5F1F4F2196CC16DD0671F7CE01BD
:10138000DF91CF911F910F91FF90EF90DF90CF9061
:101390000895CF93DF93EC016115710519F420E0F6
:1013A00030E00FC0DB010D900020E9F71197A61B7C
:1013B000B70BE881F9810280F381E02DAD01099539
:1013C0009C01C901DF91CF9108956FE671E00E9401
:1013D000C9090895EF92FF920F931F937C010E9419
:1013E000C9098C01C7010E94E509080F191FC8012E
:1013F0001F910F91FF90EF900895089597FB092E8C
:1014000007260AD077FD04D02ED006D000201AF48B
:10141000709561957F4F0895F6F7909581959F4F50
:101420000895A1E21A2EAA1BBB1BFD010DC0AA1F25
:10143000BB1FEE1FFF1FA217B307E407F50720F03D
:10144000A21BB30BE40BF50B661F771F881F991FB8
:101450001A9469F760957095809590959B01AC0101
:10146000BD01CF010895AA1BBB1B51E107C0AA1FF4
:10147000BB1FA617B70710F0A61BB70B881F991F35
:101480005A95A9F780959095BC01CD010895EE0F6E
:10149000FF1F0590F491E02D099411E0C0E0D1E028
:1014A00004C0FE010E94490A2296C230D107C9F742
:0414B000F894FFCFDE
:1014B4005374617274005363616E6E696E672E2E8D
:1014C4002E004932432064657669636520666F7532
:1014D4006E64206174206164647265737320307873
:1014E40000300020202100556E6B6E6F776E2065F2
:1014F40072726F7220617420616464726573732008
:101504003078004E6F204932432064657669636504
:101514007320666F756E640A00646F6E650A000D51
:101524000A006E616E00696E66006F7666000000E8
:10153400000022039F09F00025030803E702360395
:10154400000000001604E503F000CD039E03A7038A
:10155400BC0300000000B0089F097B088D08340814
:0415640058083E08DD
:00000001FF
