:100000000C940A030C9432030C9432030C943203C4
:100010000C943B190C945F190C9483190C94A71938
:100020000C9434030C9432030C9432030C9432037A
:100030000C9432030C9432030C9432030C9432036C
:100040000C9432030C9432030C9448200C94320329
:100050000C944C230C94D6230C9432030C9432034E
:100060000C9432030C9432030C94991E0C943203BA
:100070000C94FC230C9486240C943203A416B3161F
:10008000B716BE16C416E816F116FC160717111798
:100090001117111711171117111711171117111720
:1000A0001117111711171117111711171117111710
:1000B000111711171117111711171117A416AB16D5
:1000C000B316B716BE16C416CB16D616E116426581
:1000D00067696E210000004C6F636174696F6E3A4E
:1000E0002020200053616C696E6974793A202020C9
:1000F0000054656D70657261747572653A202020D8
:1001000000436F6E6475637469766974793A202070
:10011000200043686C6F726F7068796C6C3A2020B5
:10012000200020410043757272656E742044726134
:10013000773A2000205700506F77657220436F6E2A
:1001400073756D7074696F6E3A2020202020002036
:100150005600536F7572636520766F6C74616765C6
:100160003A2020200048756D69646974793A20202E
:100170002000426F6172642054656D706572617415
:100180007572653A202020005369676E616C2053B8
:100190007472656E6774683A202020006C6F6E6719
:1001A00069747564653D0026006C617469747564DA
:1001B000653D0026006669656C64373D0026006673
:1001C00069656C64343D0026006669656C64333D86
:1001D0000026006669656C64323D0026006669652C
:1001E0006C64313D0026006669656C64353D00260F
:1001F000006669656C64363D0047657474696E67B6
:100200002044617461004D6F64656D204F66660027
:1002100041545E534D534F0D0043616C69627261EE
:1002200074696F6E20446F6E650048696768204D81
:1002300061676E6974756465203220466F756E64FF
:100240000048696768204D61676E69747564652050
:100250003120466F756E64004C6F77204D61676E7C
:100260006974756465203220466F756E64004C6F4A
:1002700077204D61676E6974756465203120466F23
:10028000756E64000A496E666F726D6174696F6E97
:100290002073656E7420746F205468696E675370A4
:1002A00065616B2E0041545E534953433D300D0050
:1002B00041545E534953523D302C313030300D00A3
:1002C000436F6E74656E742D547970653A20617059
:1002D000706C69636174696F6E2F782D7777772DF5
:1002E000666F726D2D75726C656E636F6465643BCD
:1002F00020636861727365743D7574662D380A00F9
:10030000436F6E6E656374696F6E3A20636C6F73D2
:10031000650A00486F73743A206170692E746869C9
:100320006E67737065616B2E636F6D0A00504F537B
:1003300054202F75706461746520485454502F31D7
:100340002E310A0041545E5349534F3D300D004158
:10035000545E534943413F0D0041545E534943416C
:100360003D312C330D0041545E534943413F0D0054
:1003700041545E534943413D312C330D0041545E9D
:10038000534953533D302C22616464726573732268
:100390002C22736F636B7463703A2F2F6170692E18
:1003A0007468696E67737065616B2E636F6D3A3840
:1003B00030220D0041545E534953533D302C22638B
:1003C0006F6E4964222C330D0041545E53495353E0
:1003D0003D302C2273727654797065222C22536F33
:1003E000636B6574220D0041542B434744434F4EC9
:1003F000543D332C22495056345636222C224E4935
:100400004D424C494E4B2E475731322E565A574586
:100410004E5450220D0041542B434553510D004181
:10042000542B534F465452455345540D0041545C90
:1004300051330D0041540D00546573742041542014
:10044000636F6D6D616E6400536F636B6574204400
:1004500069616C20546F2053656E6420646174611F
:1004600020746F2045786F736974650053746172EE
:1004700074696E672043656C6C756C6172204D6F9A
:1004800064656D2028333073656329008586878213
:10049000838400002100240027002A00000022009D
:1004A000250028002B000000200023002600290042
:1004B000040404040202020204040202020203030E
:1004C000030303030303040401010101010101010A
:1004D00001020408010204084020102040808040EE
:1004E000201008040201108080402010080402013E
:1004F000000000000000000108030200090A0000DB
:1005000000000000000004070000000000000000E0
:1005100000407A10F35A00A0724E18090010A5D4BA
:10052000E80000E87648170000E40B54020000CA17
:100530009A3B000000E1F50500008096980000005D
:1005400040420F000000A0860100000010270000BC
:100550000000E803000000006400000000000A0042
:10056000000000000100000000002C76D888DC6745
:100570004F0823DFC1DFAE59E1B1B796E5E3E4539D
:10058000C63AE651997696E8E6C28426EB898C9BBA
:1005900062ED407C6FFCEFBC9C9F40F2BAA56FA55A
:1005A000F490055A2AF75C936B6CF9676DC11BFCDC
:1005B000E0E40D47FEF520E6B500D0ED902E0300F7
:1005C000943577050080841E080000204E0A000044
:1005D00000C80C333333330F986E12831141EF8D03
:1005E0002114893BE65516CFFEE6DB18D1844B3843
:1005F0001BF77C1D901DA4BBE424203284725E2274
:100600008100C9F124ECA1E53D27A003351D8F230E
:100610003F24990311241FBECFEFD0E1DEBFCDBF31
:1006200013E0A0E0B1E0E4ECF1E602C005900D9229
:10063000A837B107D9F71AE0A8E7B3E001C01D92C7
:10064000A433B107E1F716E0C2E1D6E004C0229777
:10065000FE010E94BF2BCA30D107C9F70E94160BBA
:100660000C94D5300C944B031F920F920FB60F923F
:1006700011248F930FB6F894A8958091600088613B
:1006800080936000109260000FBE8F910F900FBE9C
:100690000F901F9018951F920F920FB60F92112472
:1006A0008F9381E28093C600FDCF14BEE0E6F0E0B8
:1006B00090819861908380648083A89583B7817FBF
:1006C000846083BF83B7816083BF889583B78E7F43
:1006D00083BF089581309105D1F46F5F7F4F41F55D
:1006E0008FE893E066E040E00E94DA1C8BEA93E03A
:1006F0000E94D21288E594E060E071E00E949527A4
:100700008EE594E061E171E00E9495270895892BC0
:1007100079F46F5F7F4F61F48EE594E00E94912839
:1007200088E594E00E9491288FE893E00E943B1CAA
:10073000089580E090E06FEF7FEF0E946A030895D4
:1007400081E090E06FEF7FEF0E946A030895CF92FF
:10075000DF92EF92FF920F931F938FEE94E00E942F
:10076000D51D88E793E06FE020E030E04AEF55E4E4
:100770000F2EF0E0EF2EF0E0FF2EF0E80F2FF0E468
:100780001F2FF02DA2E0CA2E0E94DE1065E070E05F
:1007900080E090E00E94FF2065E070E080E090E063
:1007A0000E94FF20FAE7CF2EF3E0DF2EC60161E4BE
:1007B0000E94A212C60161E070E043E050E023E035
:1007C00030E003E010E0E7E0EE2EF12C0E9445114E
:1007D000C6014DEC5CEC6CEC7DE300E010E020E049
:1007E00030E40E9433121F910F91FF90EF90DF9041
:1007F000CF90089582E795E040E052EC61E070E030
:1008000026E00E942D228FE893E040E855E260E068
:1008100070E00E94CB1981ED97E040E052EC61E07E
:1008200070E026E00E942D228AE061E00E945E21B5
:1008300081E161E00E945E2186E161E00E945E212B
:1008400087E061E00E945E2188E061E00E945E2115
:1008500085E060E00E945E2184E060E00E945E210D
:1008600083E161E00E945E2182E161E00E945E21FD
:100870000895EF92FF920F931F93CF93DF937C0124
:100880008B01C0E0D0E00AC084E694E0B9010E9488
:100890001A11F801EC0FFD1F808321969E012E0D89
:1008A0003F1DC430D10581F784E090E0DF91CF9106
:1008B0001F910F91FF90EF900895882319F486E11E
:1008C00060E002C086E161E00E94CA2108958823A9
:1008D00019F488E060E002C088E061E00E94CA216B
:1008E0000895EF92FF920F931F93CF93DF93EC0144
:1008F00083E161E00E945E2182E161E00E945E216D
:10090000C436D10531F483E160E00E94CA2182E15E
:1009100007C02A9739F482E160E00E94CA2183E18E
:1009200061E006C082E160E00E94CA2183E160E0EC
:100930000E94CA2164EF71E080E090E00E94FF20F5
:100940008EE10E943C21AA2797FDA095BA2FBC01F9
:10095000CD010E94B52920E030E040EA50E40E9439
:10096000A92A20E030EC4FE754E40E941A297B01C9
:100970008C0164EF71E080E090E00E94FF2083E151
:1009800060E00E945E2182E160E00E945E21B7018A
:10099000C801DF91CF911F910F91FF90EF900895C3
:1009A000CF92DF92EF92FF920F931F93DF93CF933B
:1009B00000D000D000D0CDB7DEB7D82EC92E62E26D
:1009C00071E00E9495270E9490207B018C012BC032
:1009D0008FE893E00E94651C892B29F18FE893E052
:1009E0000E94441C682F8BEA93E00E945A17809162
:1009F000AC038823C1F08BEA93E00E949A13AB0109
:100A0000BC018E010F5F1F4FC8012AE00E94E02742
:100A10008D2D9C2DB8010E947028C8010E9491283C
:100A20008D2D9C2D0BC00E9490206E197F09800B8C
:100A3000910B685873418040904050F226960FB653
:100A4000F894DEBF0FBECDBFCF91DF911F910F9104
:100A5000FF90EF90DF90CF900895CF92DF92EF92CA
:100A6000FF920F931F93DF93CF9300D000D000D05D
:100A7000CDB7DEB7D82EC92E62E271E00E9495276D
:100A80000E9490207B018C012BC08FE893E00E9494
:100A9000651C892B29F18FE893E00E94441C682F84
:100AA0008BEA93E00E945A178091AC038823C1F02F
:100AB0008BEA93E00E946313AB01BC018E010F5FD0
:100AC0001F4FC8012AE00E94E0278D2D9C2DB80100
:100AD0000E947028C8010E9491288D2D9C2D0BC06A
:100AE0000E9490206E197F09800B910B685873410A
:100AF0008040904050F226960FB6F894DEBF0FBEAD
:100B0000CDBFCF91DF911F910F91FF90EF90DF90BC
:100B1000CF9008952F923F924F925F926F927F9263
:100B20008F929F92AF92BF92CF92DF92EF92FF92FD
:100B30000F931F93DF93CF93CDB7DEB7C257D0404B
:100B40000FB6F894DEBF0FBECDBF782E692E82E7B8
:100B500095E069EF71E00E94142632E2E32E31E065
:100B6000F32E872D962DB7010E9495270F2EF0E0CA
:100B70008F2EF0E09F2EF0E0AF2EF0E0BF2EF02D94
:100B80008D829E82AF82B88680E090E0A0E8BFEBC5
:100B9000898F9A8FAB8FBC8F09E713E0C8010E9441
:100BA0005B18E3966CAF7DAF8EAF9FAFE397C80144
:100BB0000E948218AF966CAF7DAF8EAF9FAFAF979C
:100BC0002DE1222E312C2C0E3D1EC101B7010E94B9
:100BD000952793E2492E512C4C0E5D1EC201B701A0
:100BE0000E949527CE018996B7010E94952786E03D
:100BF00090E0BE016F5F7F4F0E9439048CE090E06F
:100C0000BE016B5F7F4F0E94390409811A812B81DD
:100C10003C818DB79EB70F970FB6F8949EBF0FBE5D
:100C20008DBFEDB7FEB73196CD80DE80EF80F884C2
:100C3000ADB7BEB711968D929D92AD92BC921497AE
:100C400088E48483CE01459696838583CE014996B8
:100C500090878783CE01099692878187CE010D9672
:100C600094878387CE0141969687858788E793E0AE
:100C7000B901A8010F2EF0E08F2EF0E09F2EF0E8D2
:100C8000AF2EFFE3BF2EF02D0E94C20F8DB79EB78F
:100C90000F960FB6F8949EBF0FBE8DBF8E01015DFB
:100CA0001F4F49855A856B857C85C80122E00E94CB
:100CB0001028C101B8010E947028C8010E94912823
:100CC0008E010B5C1F4F4D855E856F857889C8014D
:100CD00022E00E941028C201B8010E947028C801B9
:100CE0000E9491288E01055C1F4F49895A896B89A2
:100CF0007C89C80122E00E941028CE018996B801A3
:100D00000E947028C8010E949128872D962D63E4C7
:100D100071E00E94D026872D962D61EF71E00E9430
:100D20007126872D962DB1010E94E026872D962DE4
:100D30006FEE71E00E947126872D962D67EE71E0AF
:100D40000E947126872D962DB2010E94E026872DE4
:100D5000962D65EE71E00E947126872D962D6DED22
:100D600071E00E9471268AE7E82E83E0F82EC70121
:100D70000E940412AB01BC018E010F5B1F4FC80122
:100D800022E00E941028872D962DB8010E94E026AF
:100D9000C8010E949128872D962D6BED71E00E946D
:100DA0007126872D962D63ED71E00E947126C70193
:100DB0000E941B12AB01BC018E01095B1F4FC801D1
:100DC00022E00E941028872D962DB8010E94E0266F
:100DD000C8010E949128872D962D61ED71E00E9437
:100DE0007126872D962D69EC71E00E9471268E0187
:100DF000035B1F4FC801AF964CAD5DAD6EAD7FADCF
:100E0000AF9722E00E941028872D962DB8010E94EE
:100E1000E026C8010E949128872D962D67EC71E08D
:100E20000E947126872D962D6FEB71E00E9471262E
:100E30008E010D5A1F4FC801E3964CAD5DAD6EADEE
:100E40007FADE39722E00E941028872D962DB801F0
:100E50000E94E026C8010E949128872D962D6DEBF7
:100E600071E00E947126872D962D65EB71E00E943E
:100E700071268AE090E00E947104AB01BC018E01F2
:100E8000075A1F4FC80122E00E941028872D962D77
:100E9000B8010E94E026C8010E949128872D962D56
:100EA00063EB71E00E947126872D962D69EA71E04F
:100EB0000E9471268E01015A1F4FC8010E942D0504
:100EC000872D962DB8010E94E026C8010E94912826
:100ED000872D962D67EA71E00E947126872D962D49
:100EE0006CE971E00E9471268E010B591F4FC801F9
:100EF0000E94D004872D962DB8010E94E026C801DB
:100F00000E94912882E795E00E94EA2282E795E01C
:100F1000672D762D0E940026CE0189960E94912889
:100F2000C2010E949128C1010E949128872D962D0F
:100F3000CE58DF4F0FB6F894DEBF0FBECDBFCF91B6
:100F4000DF911F910F91FF90EF90DF90CF90BF90B6
:100F5000AF909F908F907F906F905F904F903F9059
:100F60002F90089504C081ED97E00E94B52281ED95
:100F700097E00E94912218161906ACF30895CF93BA
:100F8000DF939C01EB011899FECF81ED97E0B90149
:100F90000E94FA24BE01882777FD8095982F0E9431
:100FA000FF2085E061E00E945E2185E060E00E9414
:100FB000CA2185E060E00E945E2182E795E00E9400
:100FC000EA220E94B20781ED97E00E94EA22DF91B7
:100FD000CF910895AF92BF92CF92DF92EF92FF929E
:100FE0000F931F93DF93CF93CDB7DEB7C454D04098
:100FF0000FB6F894DEBF0FBECDBF7C0182E795E04F
:1010000065E471E00E9428268091300A9091310AAF
:10101000009711F484E39AE0BE016F5F7F4F681B75
:10102000790B82E795E04AE050E00E94E1258E01CD
:101030000D5F1F4FC80164E473E00E946A27C80176
:1010400068EE73E00E94BF07C8010E94912882E702
:1010500095E062E571E00E9428268091300A909127
:10106000310A009711F484E39AE0BE016F5F7F4F6D
:10107000681B790B82E795E04AE050E00E94E12589
:101080008E01015F1F4FC8016FE571E00E94AE271E
:10109000C8016EE574E00E941627B7010E9416276A
:1010A00068E671E00E94FA26BC01CE0109960E9412
:1010B0008728C8010E94972882E795E06AE671E0D8
:1010C0000E9428268091300A9091310A009711F4ED
:1010D00084E39AE0BE016F5F7F4F681B790B82E764
:1010E00095E04AE050E00E94E125AD84BE848E0187
:1010F0000B5E1F4FC80162E271E00E949527C80194
:101100006DE273E00E944D27C80163E173E00E9425
:101110007126C80160E073E00E947126C80160EC8E
:1011200072E00E94712671E2C72ED12CCC0EDD1E1A
:10113000C60167E771E00E94AE276BE1E62EF12C55
:10114000EC0EFD1EC701B5014AE00E944028C60111
:10115000B7010E94162768E871E00E94FA26BC01D8
:10116000C8010E94E026C7010E949128C6010E9482
:101170009728C801BE01675F7F4F0E94E02682E783
:1011800095E06BE871E00E9428268091300A9091EA
:10119000310A009711F484E39AE0BE016F5F7F4F3C
:1011A000681B790B82E795E04AE050E00E94E12558
:1011B000098D1A8D60ED77E080E090E00E94FF20BD
:1011C0005DE2C52ED12CCC0EDD1EC60168E971E0B2
:1011D0000E94AE2747E2E42EF12CEC0EFD1EC70163
:1011E000B8014AE00E944028C601B7010E941627B4
:1011F00063EA71E00E94FA26BC018E010D5C1F4F6C
:10120000C8010E948728C80168EE73E00E94BF07EA
:10121000C8010E949128C7010E949128C6010E941E
:10122000972882E795E065EA71E00E942826809180
:10123000300A9091310A009711F484E39AE0BE01DC
:101240006F5F7F4F681B790B82E795E04AE050E0C3
:101250000E94E12581ED97E0BE016B5E7F4F0E9409
:10126000FA2482E795E062EB71E00E9428268091E3
:10127000300A9091310A009711F484E39AE0BE019C
:101280006F5F7F4F681B790B82E795E04AE050E083
:101290000E94E1258E01075C1F4FC80160EB72E0E0
:1012A0000E946A27C80168EE73E00E94BF07C80168
:1012B0000E9491288E01015C1F4FC80165EA72E00F
:1012C0000E946A27C80164EF71E00E94BF07C8014D
:1012D0000E94912882E795E06FEB71E00E9428263A
:1012E0008091300A9091310A009711F484E39AE0DA
:1012F000BE016F5F7F4F681B790B82E795E04AE084
:1013000050E00E94E12582E795E00E94EA2281ED0B
:1013100097E00E94EA2282E795E064E872E00E948A
:101320001426CE0145960E949128CE0109960E946E
:101330009128CC5BDF4F0FB6F894DEBF0FBECDBF58
:10134000CF91DF911F910F91FF90EF90DF90CF90A1
:10135000BF90AF9008950F931F93DF93CF93CDB7B6
:10136000DEB7C854D0400FB6F894DEBF0FBECDBF75
:1013700005E010E082E795E0B8014AE050E00E9405
:10138000E1256AEF70E080E090E00E94FF200150CC
:10139000104081F782E795E06CE674E00E94142625
:1013A00064E975E780E090E00E94FF2082E795E025
:1013B00068E474E00E94142682E795E068E374E034
:1013C0000E9414260E94B20765E070E080E090E081
:1013D0000E94FF208E010F5F1F4FC80164E374E07D
:1013E0000E946A27C80164EF71E00E94BF07C8012C
:1013F0000E9491288E01095F1F4FC8016DE274E0C1
:101400000E946A27C80164EF71E00E94BF07C8010B
:101410000E9491288E01035F1F4FC8016FE174E0A5
:101420000E946A27C80160E273E00E94BF07C801FA
:101430000E9491288E010D5E1F4FC80166E174E085
:101440000E946A27C80164EF71E00E94BF07C801CB
:101450000E9491288E01075E1F4FC80167EE73E05E
:101460000E946A27C8016CED75E00E94BF07C801A1
:101470000E9491288E01015E1F4FC80169EC73E044
:101480000E946A27C80160EB74E00E94BF07C80190
:101490000E9491288E010B5D1F4FC80164EB73E021
:1014A0000E946A27C80168EE73E00E94BF07C80166
:1014B0000E9491288E01055D1F4FC8016DE773E002
:1014C0000E946A27C80168EE73E00E94BF07C80146
:1014D0000E9491288E010F5C1F4FC80160E773E0E6
:1014E0000E946A27C80164EF71E00E94BF07C8012B
:1014F0000E9491288E01095C1F4FC80166E673E0C7
:101500000E946A27C80164EF71E00E94BF07C8010A
:101510000E9491288E01035C1F4FC80169E573E0AA
:101520000E946A27C80164EF71E00E94BF07C801EA
:101530000E9491288E010D5B1F4FC8016FE473E07C
:101540000E946A27C80164EF71E00E94BF07C801CA
:101550000E94912864EF71E080E090E00E94FF20FB
:10156000C85BDF4F0FB6F894DEBF0FBECDBFCF9183
:10157000DF911F910F9108950F931F93DF93CF93E6
:1015800000D000D000D0CDB7DEB7882339F58E016A
:101590000F5F1F4FC80160E172E00E946A27C80117
:1015A0006CED75E00E94BF07C8010E94912864E1BC
:1015B00075E080E090E00E94FF2087E060E00E94FC
:1015C000CA2182E795E066E072E00E94142668EE88
:1015D00073E080E090E00E94FF201DC081ED97E065
:1015E00040E052EC61E070E026E00E942D2287E0AE
:1015F00061E00E94CA218AE061E00E94CA2168EE8F
:1016000073E080E090E00E94FF208AE060E00E94AA
:10161000CA210E94AB0926960FB6F894DEBF0FBE12
:10162000CDBFCF91DF911F910F910895AF92BF92DF
:10163000CF92DF92EF92FF920F931F93DF93CF939E
:10164000CDB7DEB728970FB6F894DEBF0FBECDBF7B
:101650000E94C4200E94FA035E010894A11CB11CE0
:10166000E3E0CE2ED12CCC0EDD1EEE24EA9482E7F0
:1016700095E06CEC71E00E9428268091300A9091F0
:10168000310A009711F484E39AE0B501681B790BE5
:1016900082E795E04AE050E00E94E12582E795E08C
:1016A0006EEC70E00E94142604B600FE06C082E7CD
:1016B00095E069ED71E00E94282604B601FE06C09F
:1016C00082E795E06AEE71E00E94282604B602FEE9
:1016D00006C082E795E06BEF71E00E94282604B611
:1016E00003FE06C082E795E06CE072E00E942826C7
:1016F00004B604FE06C082E795E06DE172E00E9448
:10170000282614BE81E00E945D0481E00E946704E7
:101710000E94A70381E00E94BC0AC6010E948A05BC
:10172000C6010E94EA07C6010E94912882E795E05F
:101730006AE272E00E9428268091300A9091310A74
:10174000009711F484E39AE0B501681B790B82E7F6
:1017500095E04AE050E00E94E12580E00E94BC0A4A
:1017600080E00E945D0480E00E94670464EF71E005
:1017700080E090E00E94FF201092BC00F0907A0080
:1017800010927A0082E795E067E372E00E942826D3
:101790008091300A9091310A009711F484E39AE025
:1017A000B501681B790B82E795E04AE050E00E94A2
:1017B000E12562E370E080E090E00E94FF208091EC
:1017C0006400E092640000E010E086E00E945503AF
:1017D0000F5F1F4F0C331105C1F7F0927A00809113
:1017E00064001092640060ED77E080E090E00E9479
:1017F000FF203DCF1F93DF93CF9300D00F92CDB743
:10180000DEB7122FCB01BA0120E034E244E757E4FF
:101810000E941A2920E030E040E05DE40E94A92AFD
:101820000E94822989837A836B83FE01E10FF11D77
:1018300081810F900F900F90CF91DF911F910895AC
:101840000F931F930FEE14E0C80168E470E00E944C
:10185000FB1CC80160E00E947D1DC8010E94C01DE4
:101860001F910F9108950F931F93162F042F8FEE42
:1018700094E06DE070E00E94FB1C8FEE94E0612F1D
:101880000E947D1D8FEE94E0602F0E947D1D8FEEE3
:1018900094E00E94C01DE0EAFFE03197F1F790E08C
:1018A000882309F491E0892F1F910F910895FF92E9
:1018B0000F931F938C01F62E6AE840E00E94330CD0
:1018C000C8016AE84F2D0E94330C1F910F91FF90C1
:1018D0000895FF920F931F938C01F62E68E840E065
:1018E0000E94330CC80169E84F2D0E94330C1F91F0
:1018F0000F91FF900895CF92DF92EF92FF920F9396
:101900001F93CF93DF936C017A018B01C0E0D0E08D
:10191000C601B801A7012C2F0E94FA0B482FFE0127
:10192000E457FB4FC60160810E94330C2196C330FF
:10193000D10571F7DF91CF911F910F91FF90EF903B
:10194000DF90CF900895CF92DF92EF92FF920F93A6
:101950001F93CF93DF936C017A018B01C0E0D0E03D
:10196000C601B801A7012C2F0E94FA0B482FFE01D7
:10197000E157FB4FC60160810E94330C2196C330B2
:10198000D10571F7DF91CF911F910F91FF90EF90EB
:10199000DF90CF9008950F931F93062F8FEE94E062
:1019A00068E470E041E050E00E94D11D1FEF05C0E7
:1019B0008FEE94E00E940E1D182F8FEE94E00E948F
:1019C000051D892BA9F7093070F4812F90E0602F55
:1019D0006150683008F067E002C0959587956A9578
:1019E000E2F7182F1170812F1F910F9108950F9317
:1019F0001F93162F042F69E00E94CB0C282F115043
:101A0000002389F0183008F017E081E090E0A0E0B2
:101A1000B0E004C0880F991FAA1FBB1F1A95D2F708
:101A2000122F182B11C0183008F017E081E090E059
:101A3000A0E0B0E004C0880F991FAA1FBB1F1A9531
:101A4000D2F7182F109512238FEE94E068E470E01F
:101A50000E94FB1C8FEE94E0612F0E947D1D8FEE93
:101A600094E00E94C01D1F910F9108951F93162F9F
:101A70008FEE94E06DE070E00E94FB1C8FEE94E02E
:101A8000612F0E947D1D8FEE94E00E94C01D80EAB0
:101A90009FE00197F1F78FEE94E06DE070E041E098
:101AA00050E00E94D11D8FEE94E00E94051D181693
:101AB000190614F08FEF04C08FEE94E00E940E1D03
:101AC00090E01F9108950F931F938C0160E80E948E
:101AD000360D482F407F4160C80160E80E94330CFA
:101AE000E0E4FCE93197F1F71F910F910895EF922F
:101AF000FF921F937C01162F60E80E94360D482F3D
:101B00004F701295107F412BC70160E80E94330C83
:101B1000E0EAFFE03197F1F71F91FF90EF90089511
:101B20006FE80E94360D9C0127703070C90108953E
:101B30006F927F928F929F92AF92BF92CF92DF92DD
:101B4000EF92FF920F931F933A014B0158016901E5
:101B5000C901B80120E030E040E050E00E941629C1
:101B600087FD38C1C601B50120E030E040EF51E407
:101B70000E94A52A18160CF42DC1C401B30120E05F
:101B800030E040E050E00E94162918165CF00F2E5D
:101B9000F0E0EF2EF0E0FF2EF0E00F2FF0EC1F2F23
:101BA000F02D22C1C401B30120E032EA47E257E43C
:101BB0000E941A297B018C01C601B50122E73DED87
:101BC00049E850E30E94A92A2AE138E14BE355E3B2
:101BD0000E949E289B01AC01C601B5010E94A92A62
:101BE00024E734E947EE58E30E949F289B01AC01AB
:101BF000C601B5010E94A92A22E53DE444EA5CE35E
:101C00000E949F289B01AC01C601B5010E94A92A30
:101C10002BE436E34DE25FE30E949F289B01AC0179
:101C2000C801B7010E941A290E94102B7B018C0168
:101C30002AEF3DEE4BE65CEB0E94A92A28EB30E44C
:101C400042E85DE30E949F289B01AC01C801B701F7
:101C50000E94A92A2AE939E949E15DE30E949E2808
:101C60009B01AC01C801B7010E94A92A20ED34E410
:101C700048ED5BE30E949E289B01AC01C801B701BF
:101C80000E94A92A24E330E847EB5BE30E949E28E8
:101C90009B01AC01C801B7010E94A92A2FE632E1DD
:101CA00043E05AE30E949F283B014C01C601B50165
:101CB00020E030E040E751E40E949E285B016C0187
:101CC000C801B70123E831E54DE250E40E94A92A9A
:101CD00020ED35ED40EE50E40E949E289B01AC01C2
:101CE000C801B7010E94A92A2FE631E841E651E474
:101CF0000E949F289B01AC01C801B7010E94A92A3C
:101D00002FEA34E14BEC51E40E949F289B01AC0187
:101D1000C801B7010E94A92A24EC32E44DE25EE337
:101D20000E949E289B01AC01C801B7010E94A92A0C
:101D30002FE632E143E05CE30E949F287B018C01A7
:101D4000C601B5012DED35EB44E85CE30E94A92AFC
:101D500020E030E040E85FE30E949F289B01AC0157
:101D6000C601B5010E941A299B01AC01C401B3014F
:101D70000E94A92A9B01AC01C801B7010E949F28BB
:101D80007B018C0120E030E040E050E40E94162905
:101D900088235CF40F2EF0E0EF2EF0E0FF2EF0E44D
:101DA0000F2FF0EC1F2FF02D1FC0C801B70120E04E
:101DB00030E048E252E40E94A52A1816ACF40F2E37
:101DC000F0E0EF2EF0E0FF2EF0E80F2FF0EC1F2FE9
:101DD000F02D0AC00F2EF0E0EF2EF0E0FF2EF0E81D
:101DE0000F2FFFEB1F2FF02DB701C8011F910F918F
:101DF000FF90EF90DF90CF90BF90AF909F908F902B
:101E00007F906F9008954F925F926F927F928F9222
:101E10009F92AF92BF92CF92DF92EF92FF920F9379
:101E20001F93CF93DF93EC01162F042F0E94630DB5
:101E3000CE010E94200CCE01612F41E00E94F70CE0
:101E4000CE01602F41E00E94F70CCE010E94630D8D
:101E5000CE016BE00E94770DCE0161E00E94770D0C
:101E600088EE93E020E931E0F9013197F1F701972D
:101E7000D9F7CE0162E00E94770D80E9482E81E01B
:101E8000582E60C080E293E0F2013197F1F701979C
:101E9000D9F7CE010E94900D029709F046C0CE01FD
:101EA00064E90E94360D982ECE0165E90E94360D38
:101EB0007C01CE0166E90E94360D882ECE0167E9CD
:101EC0000E94360D5C01792C6624E628F72800274D
:101ED000F7FC0095102FC801B7010E94B5299B019E
:101EE000AC010E94A92A7B018C01982C8824A82887
:101EF000B928CC24B7FCC094DC2CC601B5010E94E3
:101F0000B5299B01AC010E94A92A9B01AC01C80123
:101F1000B7010E949F280E94102B162F072FE82E32
:101F2000A92ECE0163E00E94770DCE010E94900D94
:101F3000049708F4A7CF80E293E0F2013197F1F71C
:101F40000197D9F7CE010E94900D069770F3CE014C
:101F50006AE00E94770D212F302F4E2D5A2DB901A6
:101F6000CA01DF91CF911F910F91FF90EF90DF9009
:101F7000CF90BF90AF909F908F907F906F905F9029
:101F80004F9008952F923F924F925F926F927F925F
:101F90008F929F92AF92BF92CF92DF92EF92FF9279
:101FA0000F931F93DF93CF93CDB7DEB728970FB66C
:101FB000F894DEBF0FBECDBF1C012A013B0109838F
:101FC0001A832B833C83CD82DE82EF82F886CEA0FB
:101FD000DFA061E047E00E94030FA30192010E948D
:101FE000A92A9B01AC0160E070E080E89FE30E94B9
:101FF0001A2926E636E646E65FE30E949E28EAA115
:10200000FBA1608371838283938320E030E048ECFE
:1020100052EC0E941A2920E030E040E85FE30E9481
:102020009F2820E835E04BE156E30E94A92A28E6E4
:1020300032E240E857E30E949F280E94102B23E3DE
:1020400031E140E85BE30E949E2820E835E04BE95F
:1020500055EB0E941A29E8A5F9A560837183828354
:102060009383F9A1F83419F461E070E007C089A105
:102070008C3411F080E089C062E070E0C10148E07A
:102080000E94030F7B018C0129813A814B815C8185
:102090000E94A92A9B01AC0160E070E080E89FE308
:1020A0000E941A292AE939E949E150E40E949E2850
:1020B000ECA1FDA16083718382839383C801B70182
:1020C0002D813E814F8158850E949E2829813A8129
:1020D0004B815C810E94A92A7B018C0199A19834D3
:1020E00051F5C801B70120E030E048EC52EC0E9405
:1020F000A92A20E030E040E85FE30E949F289B018E
:10210000AC01C801B7010E941A2920E030E04AE77B
:1021100054E40E94A92AF601608371838283938329
:10212000A50194010E94A92A2D8D3E8D4F8D58A1A5
:102130000E949F2808C0C801B70120E030E04AE7AC
:1021400054E40E94A92AF6016083718382839383F9
:10215000F601608171818281938120E030E04AE75D
:1021600054E40E94A92AAB01BC01E8A5F9A50081AD
:10217000118122813381C1010E94980DEAA5FBA53E
:10218000608371838283938381E028960FB6F894ED
:10219000DEBF0FBECDBFCF91DF911F910F91FF909A
:1021A000EF90DF90CF90BF90AF909F908F907F90F7
:1021B0006F905F904F903F902F9008958F929F92D5
:1021C000AF92BF92CF92DF92EF92FF920F931F9345
:1021D000CF93DF93EC01D62E49015A018FEE94E0A4
:1021E0000E94D51D80E197E220E931E0F9013197A5
:1021F000F1F70197D9F7CE016D2D0E94570CCE0152
:10220000B501A4010E94A30CCE01B801A7010E9450
:102210007B0CCE016C2D0E94690CDF91CF911F9138
:102220000F91FF90EF90DF90CF90BF90AF909F9075
:102230008F900895CB010E944C2E0895DF92EF926B
:10224000FF920F931F93FC01F62ED42EE52E0FEE76
:1022500014E06081772767FD7095C8010E94FB1C20
:10226000C8016F2D0E947D1DC8016E2D0E947D1D2D
:10227000C8016D2D0E947D1DC8010E94C01D1F91C7
:102280000F91FF90EF90DF900895CF92DF92EF9241
:10229000FF920F931F93CF93DF93EC0169019B0192
:1022A000FA016115710541F06130710569F480E052
:1022B00090E0A0E0B2E404C080E090E0A0E8B1E4E7
:1022C0008D879E87AF87B88BE130F105B1F0E230A2
:1022D000F1051CF43097B1F01DC0E230F10541F07A
:1022E000E330F105B9F48AE097EDA3EABEE30EC04E
:1022F0008AE097EDA3E2BEE309C08AE097EDA3EA86
:10230000BDE304C08AE097EDA3E2BDE389879A8725
:10231000AB87BC87FE2FEE27FF0FFF0FFF0F322F7B
:1023200022273295330F307EE22BF32BD694DC2C10
:10233000CC24D794C794EC29FD2983E0000F111F0A
:102340008A95E1F7E02BF12BEE29FF29CE0160E021
:10235000AF010E941E1181E0DF91CF911F910F917B
:10236000FF90EF90DF90CF900895FF920F931F930F
:102370008C01F62EFC016081772767FD70958FEE4A
:1023800094E00E94FB1C8FEE94E06F2D0E947D1D57
:102390008FEE94E00E94C01D61E070E080E090E06C
:1023A0000E94FF20F8016081772767FD70958FEE0E
:1023B00094E00E94FB1CF8016081772767FD70950F
:1023C0008FEE94E042E050E00E94D11D8FEE94E049
:1023D0000E94051D892BD1F38FEE94E00E940E1D03
:1023E000F82E8FEE94E00E940E1D082F8FEE94E0E1
:1023F0000E94C01D9F2D80E010E0082B192BC80102
:102400001F910F91FF90089562E00E94B511E3E0E3
:1024100095958795EA95E1F7AA2797FDA095BA2F9C
:10242000BC01CD010E94B5292FE632E143E85BE310
:102430000E94A92A08950F931F938C0164E00E94C3
:10244000B511AA2797FDA095BA2FBC01CD010E9416
:10245000B529F80121813281438154810E94A92A42
:102460001F910F9108958F929F92AF92BF92CF923A
:10247000DF92EF92FF920F931F936C014A015B0171
:10248000C901B801F601818A928AA38AB48A20E040
:102490003EEF4FEF56E40E941A2920E23CEB4EEB50
:1024A0005CE40E94A92A0E94872980E090E00E94B3
:1024B000B32920E23CEB4EEB5CE40E941A2927E1B1
:1024C00037EB41ED58E30E941A290E94032927E1C6
:1024D00037EB41ED58E30E94A92A7B018C01F601FC
:1024E000618372838383948320E030E040EA51E487
:1024F0000E94A92AF6016583768387839087C801A5
:10250000B701A50194010E94A92A9B01AC016CEAC4
:1025100075EC87E29DE30E941A290E9487299B019E
:10252000AC01C60165E0A9010E941E1181E01F9166
:102530000F91FF90EF90DF90CF90BF90AF909F9062
:102540008F900895FF920F931F938C01F62E8FEEBC
:1025500094E00E94D51DF801F08281E01F910F9157
:10256000FF900895FC01108211821382128214825E
:10257000158216821782108612861186138614869B
:10258000158616861786118A108A128A138A148A6B
:10259000158A168A108E178A118E128E138E148E3B
:1025A000158E08950F931F938C010E94B212F801AB
:1025B00012A213A214A215A216A217A210AA11AA5F
:1025C00012AA13AA14AA15AA16AE17AE0C5B1F4FB7
:1025D000F8011082118212821382085F1F4FF801E6
:1025E00011928F0110820B5F1F4FF8011082118230
:1025F00012821382085F1F4FF80111928F0110821F
:102600000B5F1F4FF8011082118212821382085F44
:102610001F4FF80111928F0110820B5F1F4FF801BD
:102620001082118212821382085F1F4FF8011192EB
:102630008F0110820B5F1F4FF801108211821282EE
:102640001382085F1F4FF80111928F011082005F03
:102650001F4F82E0F8018193119211921192119211
:102660001192119211921192119211921192119252
:1026700011921192119211921192119211928F0155
:10268000108211821282138203521040F8011082CC
:102690001F910F910895262F862F8154863030F494
:1026A000772767FD7095675370400BC0772767FDEC
:1026B00070952156263018F46755704002C060535B
:1026C0007040CB010895CF92DF92EF92FF920F936B
:1026D0001F938C01FC0111826281738180E090E084
:1026E0000E94B3296B017C01F801648175818681A8
:1026F00097810E94B32928E23BE64EE65EE40E9401
:102700001A299B01AC01C701B6010E949F286B01E9
:102710007C01F8018085882321F0F7FAF094F7F81E
:10272000F094B601C7011F910F91FF90EF90DF90D9
:10273000CF900895CF92DF92EF92FF920F931F9365
:102740008C01FC0111826185728580E090E00E941D
:10275000B3296B017C01F8016385748585859685B5
:102760000E94B32928E23BE64EE65EE40E941A2965
:102770009B01AC01C701B6010E949F286B017C013F
:10278000F8018785882321F0F7FAF094F7F8F094A0
:10279000B601C7011F910F91FF90EF90DF90CF908E
:1027A000089540E150E00E94072E08950F931F9373
:1027B0008C014096B8010E94002E0E949020F801E2
:1027C00060A371A382A393A381E085A384A31F9137
:1027D0000F9108950F931F938C01FC0182859385BF
:1027E000A485B58586839783A087B1870E949020B2
:1027F000F801628373838483958381E0818380837E
:102800001F910F9108950F931F938C01FC018285F6
:102810009385A485B58586839783A087B1870E9419
:102820009020F801628373838483958381E08183A0
:1028300080831F910F9108950F931F938C01FC01CA
:1028400086819781A085B18582839383A483B58394
:102850000E949020F801628773878487958781E0C2
:10286000818380831F910F9108950F931F938C0193
:10287000FC0186819781A085B18582839383A4839F
:10288000B5830E949020F8016287738784879587BB
:1028900081E0818380831F910F910895CF93DF930F
:1028A000EC01DC011296FC01709687E001900D921C
:1028B0008150E1F7DE011996FE01779687E00190DD
:1028C0000D928150E1F70E9490206E8F7F8F88A338
:1028D00099A381E089838883DF91CF9108956F92D6
:1028E0007F928F929F92AF92BF92CF92DF92EF92A0
:1028F000FF920F931F93CF93DF934C013B010E94F4
:10290000B72D162F072FF82EE92E24E630E040E0F1
:1029100050E00E94872B80E090E020E836E948E90B
:1029200050E00E94552B5B016C01612F702F8F2DA1
:102930009E2D24E630E040E050E00E94872BF3011A
:102940003183208303C00894811C911CF4012081F1
:10295000822F992787FD9095C0970A97A0F32E3272
:1029600071F530E8E32E36E9F32E38E9032F112D07
:1029700019C0C801B7012AE030E040E050E00E94F1
:10298000872BC901DA017C018D019E01442737FDA7
:102990004095542FC801B7010E94552BA60EB71EB3
:1029A000C81ED91E0894811C911CF4018081C82F77
:1029B000DD27C7FDD095E097CA30D105D0F2C6011A
:1029C000B50122E0660F771F881F991F2A95D1F75E
:1029D0006A0D7B1D8C1D9D1D6F5F7F4F8F4F9F4F1D
:1029E00023E030E040E050E00E94872BF301228397
:1029F0003383448355831682DF91CF911F910F91CA
:102A0000FF90EF90DF90CF90BF90AF909F908F900E
:102A10007F906F9008951F93CF93DF93EC0110E0A8
:102A200088818D3211F411E02196CE010E94B72DDC
:102A300024E630E040E050E00E94552B9B01AC01C1
:102A400001C021966881862F992787FD9095C097B0
:102A50000A97B8F36E3249F56981862F992787FD69
:102A60009095C0970A9708F58AE06802C001112482
:102A7000805E9140AA2797FDA095BA2F280F391F95
:102A80004A1F5B1F8A81682F772767FD7095605307
:102A900070406A30710548F4CB01AA2797FDA095D4
:102AA000BA2F280F391F4A1F5B1F112339F0509589
:102AB0004095309521953F4F4F4F5F4FB901CA0167
:102AC000DF91CF911F910895AF92BF92CF92DF9285
:102AD000EF92FF920F931F93CF93DF93EC01CB57AD
:102AE000DF4F8881C558D040882309F4A9C0FE0172
:102AF000EA57FF4FCE0160810E944B138C01CE013B
:102B0000C957DF4F68810E944B13E4E0000F111F8B
:102B1000EA95E1F7800F23979881C458D040891730
:102B200009F07FC0FE01E755FF4F80819181A281AE
:102B3000B3810196A11DB11D80839183A283B383CC
:102B4000C856DF4F8881C859D040882371F0FE01F4
:102B5000EF55FF4F80819181A281B3810196A11D24
:102B6000B11D80839183A283B383CB56DF4F8881CD
:102B7000C559D0408823E1F08130B9F5CE01829665
:102B80000E943514CE01C0960E941C14C856DF4F17
:102B90008881C859D040882341F1CE010E944E144B
:102BA000CE01CE960E940314CE01845B9F4F1BC0C2
:102BB000CE01C0960E941C14C856DF4F8881C859A8
:102BC000D040882341F0CE010E944E14CE01865A97
:102BD0009F4F0E940314CE0188599F4F0E94EA1311
:102BE000CE018A589F4F0E940314FE01E556FF4F05
:102BF000C081D1818F0106C0CE010E94D6130AA4E4
:102C0000DBA5C02D209709F43EC1D801ED91FC91C0
:102C100066A177A18EA19FA10E94F72D009761F375
:102C200032C1FE01EB55FF4F80819181A281B381BA
:102C30000196A11DB11D80839183A283B38325C119
:102C4000CA56DF4F8881C659D040882309F055C045
:102C500076E8C72ED12CCC0EDD1EC60164E472E0EE
:102C60000E94F72D009739F0C6016AE472E00E94D5
:102C7000F72D009721F4CB56DF4F81E015C0C60138
:102C800060E572E00E94F72D009739F0C60166E515
:102C900072E00E94F72D009721F4CB56DF4F188287
:102CA00004C0CB56DF4F82E08883C559D0406BE922
:102CB000E62EF12CEC0EFD1EC756DF4F8881998160
:102CC000F70191838083570105C08AA59BA5D50193
:102CD0008D939C93F501C081D181209709F4D5C0D3
:102CE0000EA11FA1C801B6010E94F72D97FDEDCFDF
:102CF000D8C0D7011D921C92C8C0CB56DF4F388177
:102D0000C559D040323009F48CC0DE01AA57BF4FFC
:102D10002C91222309F485C0E32FF0E055E0EE0F5B
:102D2000FF1F5A95E1F790E0E82BF92B3197E93234
:102D3000F10508F076C0E25CFF4FCD01EE0FFF1FFA
:102D40000590F491E02D09940E940B156EAB7FABBA
:102D500088AF99AF66C0FE01E856FF4F108221345C
:102D600009F05FC03BC0BE01605F7F4F0AC01E8A92
:102D7000233509F056C081E08E8B53C0BE01695ED9
:102D80007F4F0E946F144DC01D8E273509F049C03A
:102D900081E08D8F46C00E940B15C85BDF4F6883B2
:102DA00079838A839B83C854D0403BC00E940B1513
:102DB000CA5ADF4F688379838A839B83C655D04084
:102DC00030C00E94B72D68A779A78AA79BA729C002
:102DD000FE01E856FF4F108221331CF181E0808311
:102DE00020C00E94B72DCE58DF4F688379838A8335
:102DF0009B83C257D04015C00E940B15C058DF4FAF
:102E0000688379838A839B83C058D0400AC00E941C
:102E10000B15CC59DF4F688379838A839B83C45613
:102E2000D040FE01E556FF4F0081118146E8C42ED7
:102E3000D12CCC0EDD1E7F01CA56DF4F0AC02817E9
:102E4000390721F4C801B6010E94D113F80102A587
:102E500013A501151105C9F0D701ED91FC9166A1EB
:102E600077A1F80186A197A10E94F72D009769F438
:102E7000D80198962D913C919997888190E082177E
:102E80009307ECF602C081E001C080E0DF91CF91B2
:102E90001F910F91FF90EF90DF90CF90BF90AF9078
:102EA0000895C801B6010E94F72D181619060CF4F2
:102EB00020CFEBCF1F93CF93DF93EC01162FFC01B4
:102EC000E356FF4F80819181A281B3810196A11DBC
:102ED000B11D80839183A283B3836432A1F1DE01AB
:102EE000A956BF4F65322CF46A3069F06D30C9F5D0
:102EF0000AC06A3241F06C32A1F5FE01EC57FF4F77
:102F00008081862780838C918F3010F090E00AC0FA
:102F1000FE01E80FF11DEA57FF4F1082CE010E941B
:102F20006415982FFE01EA56FF4F80818F5F8083E2
:102F3000C956DF4F1882FE01729710821A3251F57E
:102F400081E0808327C0C956DF4F18821A926297AA
:102F50001882619682E0888360971882639618824F
:102F600018C08C918E3040F4FE01E80FF11DEA5735
:102F7000FF4F10838F5F8C93CB57DF4F8881C558ED
:102F8000D040882331F4FE01EC57FF4F8081812728
:102F9000808390E0892FDF91CF911F910895EF9268
:102FA000FF920F931F9380E090E0982F872F762F4A
:102FB0006627242F30E040E050E0262B372B482BAB
:102FC000592BE12C90E8F92E98E9092F112D67E192
:102FD00070E0DA01C901062E04C0B695A795979551
:102FE00087950A94D2F780FF04C02E253F254027FD
:102FF0005127615070406730710529F0169507958B
:10300000F794E794E6CF822F1F910F91FF90EF90F6
:1030100008950F931F93CF93DF93EC01162F8FEE3C
:1030200094E060E470E00E94FB1C8FEE94E0612F5E
:103030000E947D1D8FEE94E00E94C01D10E06AE0AA
:1030400070E080E090E00E94FF208FEE94E060E46A
:1030500070E043E050E00E94D11D1F5F1A3019F468
:1030600066EE73E022C0833051F78FEE94E00E9449
:103070000E1D082F8FEE94E00E940E1D182F8FEE6C
:1030800094E00E940E1D482F902F80E0012F10E049
:10309000082B192BCE01B8010E94CF17882319F0F5
:1030A00067EE73E002C0B8016C7FCB01DF91CF9176
:1030B0001F910F91089563EF0E9409189C0140E051
:1030C00050E0865E9340029728F4CA01B9010E943D
:1030D000B32910C0CA01B9010E94B32922E538EB17
:1030E0004FE25BE30E94A92A26E636E64BE352E470
:1030F0000E949E28E62F2E2F372F482F592FB901D7
:10310000CA01089565EF0E9409189C0140E050E053
:10311000865E9340029728F4CA01B9010E94B32940
:1031200010C0CA01B9010E94B32920E030E04AEF83
:103130005AE30E94A92A20E030E040EC50E40E94CB
:103140009E28E62F2E2F372F482F592FB901CA015D
:10315000089580E090E00895FC01809165049091CD
:1031600066048E179F0711F480E00895838D8E7F8B
:10317000838F9FB7F8941092A7048091A70480933F
:10318000A804F0936604E09365049FBF81E008956E
:103190000F931F93CF93DF93FC01838DA685B78593
:1031A0009585082F027081FF05C08C91892309F451
:1031B00054C004C08C91892309F04FC0838994893D
:1031C00020E001972FEF8F3F9207D9F7C589D68965
:1031D000A685B785758560E031E040E050E010E0FD
:1031E000CE01212F01972FEF8F3F9207D9F78C91B6
:1031F000872311F0632B03C0832F80956823330F3F
:103200004F5F5F4F4830510559F78789908D20E017
:1032100001972FEF8F3F9207D9F7011160958091A9
:10322000A7042091A80490E001968F73907030E07D
:103230008217930779F0E091A704F0E0E959FB4F7A
:1032400060838091A70490E001968F7390708093C3
:10325000A70403C0838D8160838FDF91CF911F917D
:103260000F9108958091650490916604009711F084
:103270000E94C81808951F920F920FB60F92112442
:103280002F933F934F935F936F937F938F939F936E
:10329000AF93BF93EF93FF930E943219FF91EF9189
:1032A000BF91AF919F918F917F916F915F914F915E
:1032B0003F912F910F900FBE0F901F9018951F9266
:1032C0000F920FB60F9211242F933F934F935F935A
:1032D0006F937F938F939F93AF93BF93EF93FF93DE
:1032E0000E943219FF91EF91BF91AF919F918F9101
:1032F0007F916F915F914F913F912F910F900FBEF2
:103300000F901F9018951F920F920FB60F921124D5
:103310002F933F934F935F936F937F938F939F93DD
:10332000AF93BF93EF93FF930E943219FF91EF91F8
:10333000BF91AF919F918F917F916F915F914F91CD
:103340003F912F910F900FBE0F901F9018951F92D5
:103350000F920FB60F9211242F933F934F935F93C9
:103360006F937F938F939F93AF93BF93EF93FF934D
:103370000E943219FF91EF91BF91AF919F918F9170
:103380007F916F915F914F913F912F910F900FBE61
:103390000F901F901895CF92DF92EF92FF920F93AC
:1033A0001F93CF93DF93EC017A018B011A8E198E54
:1033B000188E1F8A1E8A1D8A1C8A1B8A20E030E014
:1033C0006901CC0CDD1CC20ED31EB601660F771F3F
:1033D000660F771FAB0148545D4FFA0185919591B7
:1033E000A591B4918E159F05A007B107E9F4FB01E3
:1033F000E454FD4F859194919C8B8B8BFB01E2549F
:10340000FD4F859194919E8B8D8BFB01E054FD4F78
:1034100085919491988F8F8BFB01EE53FD4F859191
:1034200094919A8F898F06C02F5F3F4F2D303105C1
:1034300009F0C6CF8F89988D892B09F41CC18C8522
:10344000803208F010C120916800882381F181301A
:1034500071F1823061F1833051F1843051F1853066
:1034600041F1863031F1873021F1883001F1893026
:10347000F1F08A30F1F08B30E1F08C30D1F08D300A
:10348000C1F08E30C1F08F30B1F08031A1F08131C8
:1034900091F0823181F0833171F0843161F08531B6
:1034A00051F0863121F0873111F091E005C098E0AC
:1034B00003C092E001C094E0922B909368008823AF
:1034C00009F473C0813009F470C0823009F46DC012
:1034D000833009F4DCC0843009F4DCC0853009F4A1
:1034E000D9C0863009F4D6C0873009F4D3C08830FB
:1034F00009F4CDC0893009F4CAC08A3009F4CAC0C1
:103500008B3009F4C7C08C3009F4C4C08D3009F485
:10351000C1C08E3009F4C1C08F3009F4BEC0803103
:1035200009F4BBC0813109F4B8C0823109F4B5C0D7
:10353000833109F4B2C0843109F4AFC0853109F494
:10354000ACC0863109F4A3C0873109F4A0C0ABE652
:10355000B0E0A5C0843089F1853079F1863069F119
:10356000873059F1883031F1893021F18A3029F1E1
:103570008B3019F18C3009F18D30F9F08E3001F17A
:103580008F30F1F08031E1F08131D1F08231C1F042
:103590008331B1F08431A1F0853191F0863151F061
:1035A000873141F0EBE6F0E00DC0E3E7F0E0A3E7A0
:1035B000B0E008C0E3E7F0E005C0ECE6F0E002C0F0
:1035C000EDE6F0E09081882309F440C08130E1F11C
:1035D0008230F1F18330F1F18430C1F18530A1F115
:1035E0008630B1F18730B1F18830B1F18930B1F175
:1035F0008A30B1F18B3091F18C3071F18D30B1F0B6
:103600008E30A1F08F3041F1803141F1813141F1B3
:10361000823101F18331E1F08431B1F08531B1F0D3
:103620008631F1F0873111F0883111F480E819C04A
:10363000893191F08A3191F08B3191F08C3151F0D8
:103640008D3131F08E3111F482E00BC081E009C080
:1036500084E007C088E005C080E403C080E201C0C8
:1036600080E1892B8C93898D9A8D20E001972FEF33
:103670008F3F9207D9F7CE010E94AC18DF91CF910E
:103680001F910F91FF90EF90DF90CF900895A3E7E7
:10369000B0E005C0ACE6B0E002C0ADE6B0E083301B
:1036A00009F058CF87CFFC018485803208F0E2C052
:1036B000882309F471C0813009F46EC0823009F4A6
:1036C0006BC0833009F4CAC0843009F4CAC08530A5
:1036D00009F4C7C0863009F4C4C0873009F4C1C0FA
:1036E000883009F4BBC0893009F4B8C08A3009F4C5
:1036F000B8C08B3009F4B5C08C3009F4B2C08D303D
:1037000009F4AFC08E3009F4AFC08F3009F4ACC0FB
:10371000803109F4A9C0813109F4A6C0823109F4CD
:10372000A3C0833109F4A0C0843109F49DC0853160
:1037300009F49AC0863109F491C0873109F08BC031
:103740008DC0843089F1853079F1863069F1873018
:1037500059F1883031F1893021F18A3029F18B30EB
:1037600019F18C3009F18D30F9F08E3001F18F3084
:10377000F1F08031E1F08131D1F08231C1F083315B
:10378000B1F08431A1F0853191F0863151F087316B
:1037900041F0EBE6F0E00DC0E3E7F0E0A3E7B0E0D6
:1037A00008C0E3E7F0E005C0ECE6F0E002C0EDE6BB
:1037B000F0E09081882309F440C08130E1F182304B
:1037C000F1F18330F1F18430C1F18530A1F186301F
:1037D000B1F18730B1F18830B1F18930B1F18A307F
:1037E000B1F18B3091F18C3071F18D30B1F08E30C0
:1037F000A1F08F3041F1803141F1813141F18231CD
:1038000001F18331E1F08431B1F08531B1F08631DD
:10381000F1F0873111F0883111F48FE719C0893147
:1038200091F08A3191F08B3191F08C3151F08D31E2
:1038300031F08E3111F48DEF0BC08EEF09C08BEF9C
:1038400007C087EF05C08FEB03C08FED01C08FEE7F
:1038500089238C930895ABE6B0E008C0A3E7B0E0FD
:1038600005C0ACE6B0E002C0ADE6B0E0833009F0E0
:1038700068CF97CF0895FC018AEA92E09183808314
:10388000CF010E94531B0895209165043091660476
:103890002817390731F49091A8048091A70498174C
:1038A00019F42FEF3FEF0FC0E091A804F0E0E959C1
:1038B000FB4F20818091A80490E001968F73907057
:1038C0008093A80430E0C9010895209165043091E7
:1038D00066042817390719F020E030E00EC0809107
:1038E000A7042091A80490E0805C9F4F821B91095F
:1038F00060E470E00E94742B9C01C901089580E08F
:1039000090E00895209165043091660428173907E6
:1039100049F49FB7F8941092A7048091A70480936C
:10392000A8049FBF0895209165043091660428176C
:10393000390731F49091A8048091A704981719F4DD
:103940002FEF3FEF0AC0E091A804F0E0E959FB4FE8
:103950008081282F332727FD3095C90108951F93B3
:10396000CF93DF93EC01162F862F60E00E945E213B
:103970008B8D81FD04C0812F61E00E94CA211C87CC
:10398000212F30E0C90180539B4FFC0184918D872A
:1039900020553B4FF9016491E62FF0E0EE0FFF1F39
:1039A000EA55FB4F859194919F878E87DF91CF9148
:1039B0001F910895FC011382128288EE93E0A0E02B
:1039C000B0E084839583A683B7838AEA92E09183EB
:1039D0008083148A138A168A158A108E178A128E8B
:1039E000118E838D4170440F8C7F842B838FCF0188
:1039F0000E94AF1C089581E08093EE046093CB0495
:103A00001092EC041092ED0408952091CA0430E065
:103A10008091C904281B3109C90108954091C90446
:103A20008091CA04481718F02FEF3FEF0AC0E42F27
:103A3000F0E0E755FB4F8081282F30E04F5F409347
:103A4000C904C9010895E091C9048091CA04E81726
:103A500018F0EFEFFFEF06C0F0E0E755FB4F808175
:103A6000E82FF0E0CF01089508951092F20410922B
:103A7000F10488EE93E0A0E0B0E08093F30490932B
:103A8000F404A093F504B093F60488E593E09093D2
:103A9000F0048093EF040895CF92DF92EF92FF92AB
:103AA0000F931F93CF93DF937C016B018A01809169
:103AB000EE048823A1F0C0E0D0E00DC0D701ED9165
:103AC000FC91D601AC0FBD1F0190F081E02DC70124
:103AD0006C9109952196C017D10780F304C0CB01E2
:103AE000642F0E947E1EC801DF91CF911F910F911C
:103AF000FF90EF90DF90CF900895DF93CF930F92D8
:103B0000CDB7DEB7FC0169838091EE048823C9F04C
:103B10008091ED04803238F081E090E093838283DD
:103B200020E030E015C08091EC04E82FF0E0E45391
:103B3000FB4F998190838F5F8093EC048093ED0419
:103B400005C0CE01019661E00E947E1E21E030E0BA
:103B5000C9010F90CF91DF9108950F93062F8091A7
:103B6000CB046CEC74E04091ED0421E00E94291E2E
:103B70001092EC041092ED041092EE040F9108954F
:103B800061E00E94AD1D0895413208F040E2862FA9
:103B900069EA74E00E94E01D1092C9048093CA048F
:103BA000089521E00E94C41D08951092C904109246
:103BB000CA041092EC041092ED040E942A20089589
:103BC000382F413210F040E042C08091FB0488233E
:103BD000E1F791E09093FB042093FD048FEF809335
:103BE0006805109223054150409324054F5F909340
:103BF000FC048091FC04330F832B8093FC048091A0
:103C0000FE04813041F41092FE048091FC04809304
:103C1000BB0085EC01C085EE8093BC008091FB0465
:103C20008130E1F380912305841710F4409123053E
:103C300020E030E00AC0FB01E20FF31FD901AD5FC5
:103C4000BA4F8C9180832F5F3F4F2417A0F3842FAE
:103C500008950F931F93582F122F413210F081E0D7
:103C60004AC08091FB048823E1F782E08093FB0443
:103C70000093FD048FEF8093680510922305409315
:103C80002405A3E0B5E0FB0102C081918D938E2F46
:103C9000861B8417D0F31092FC048091FC04550F0E
:103CA000852B8093FC048091FE04813041F41092B6
:103CB000FE048091FC048093BB0085EC01C085EE7E
:103CC0008093BC00112321F08091FB048230E1F34A
:103CD000809168058F3F11F480E00DC080916805E8
:103CE000803211F482E007C080916805803311F0C2
:103CF00084E001C083E01F910F910895482F613245
:103D000010F081E008958091FB04843011F082E08E
:103D1000089560934605A5E2B5E0842F9C01F90162
:103D200002C081918D938E2F841B8617D0F380E083
:103D300008951F920F920FB60F9211242F933F9365
:103D40004F935F936F937F938F939F93AF93BF93A3
:103D5000EF93FF938091B90090E0887F9070803658
:103D6000910509F4F2C081369105CCF588329105B0
:103D700009F47BC089329105B4F48031910509F4CE
:103D80006FC0813191053CF4009709F447C1089751
:103D900009F04FC165C08831910509F466C080976C
:103DA00009F047C182C08034910509F4A4C0813470
:103DB000910544F48033910509F482C0C89709F055
:103DC00038C189C08035910509F489C088359105CD
:103DD00009F496C08834910509F02BC1AEC088392A
:103DE000910509F413C189399105ECF488379105DF
:103DF00009F4ABC0893791054CF48836910509F474
:103E0000A4C08037910509F014C19FC0883891057E
:103E100009F4FCC08039910509F49DC080389105F2
:103E200009F007C198C0803B910509F4C6C0813BE9
:103E300091054CF4803A910509F49FC0883A9105A8
:103E400009F0F7C0BAC0803C910509F4E3C0883C92
:103E5000910509F4DFC0883B910509F0EAC0C2C0B2
:103E60008091FC048093BB00CFC09091230580918A
:103E70002405981768F490912305E92FF0E0ED5F91
:103E8000FA4F80818093BB009F5F90932305BCC055
:103E90008091FD04882309F44BC085ED8093BC001C
:103EA0008091BC0084FDFCCFC2C080E28093680595
:103EB00085ED8093BC008091BC0084FDFCCFB7C031
:103EC00080E38093680585ED8093BC008091BC0001
:103ED00084FDFCCFACC088E3809368059BC08091D3
:103EE00023059091BB00E82FF0E0ED5FFA4F90833F
:103EF0008F5F80932305909123058091240582C0D4
:103F0000809123059091BB00E82FF0E0ED5FFA4F20
:103F100090838F5F809323058091FD04882341F077
:103F200085ED8093BC008091BC0084FDFCCF7FC0F8
:103F300081E08093FE0484EA6EC085ED8093BC002E
:103F40008091BC0084FDFCCF72C083E08093FB04B1
:103F50001092670559C080916705803208F056C0FD
:103F6000809167059091BB00E82FF0E0E95BFA4F84
:103F700090838F5F8093670547C08091670580328B
:103F800030F4E0916705F0E0E95BFA4F108285EDCF
:103F90008093BC008091BC0084FDFCCF1092FB0498
:103FA00060916705E0910105F091020587E495E0D5
:103FB00070E00995109267052DC084E08093FB04A2
:103FC0001092450510924605E091FF04F09100051E
:103FD000099580914605882329F481E08093460560
:103FE0001092250590914505E92FF0E0EB5DFA4F21
:103FF00080818093BB009F5F90934505909145051C
:1040000080914605981710F485EC01C085E88093EF
:10401000BC000FC085EC8093BC0009C010926805FD
:1040200085ED8093BC008091BC0084FDFCCF109294
:10403000FB04FF91EF91BF91AF919F918F917F9181
:104040006F915F914F913F912F910F900FBE0F9005
:104050001F9018951092FB0481E08093FD0410924C
:10406000FE0484E161E00E94CA2185E161E00E94D2
:10407000CA21E9EBF0E080818E7F808380818D7F93
:10408000808388E48093B80085E48093BC00089521
:104090001F920F920FB60F9211242F933F938F937D
:1040A0009F93AF93BF9380916D0590916E05A09102
:1040B0006F05B0917005309171050196A11DB11D7C
:1040C000232F2D5F2D3720F02D570196A11DB11DF7
:1040D0002093710580936D0590936E05A0936F05F5
:1040E000B09370058091690590916A05A0916B0568
:1040F000B0916C050196A11DB11D80936905909347
:104100006A05A0936B05B0936C05BF91AF919F9129
:104110008F913F912F910F900FBE0F901F90189588
:104120008FB7F89420916D0530916E0540916F0521
:10413000509170058FBFB901CA0108959FB7F894D7
:104140002091690530916A0540916B0550916C058D
:1041500086B5A89B06C08F3F21F02F5F3F4F4F4F82
:104160005F4F9FBF542F432F322F2227280F311D1F
:10417000411D511D82E0220F331F441F551F8A9598
:10418000D1F7B901CA010895789484B5826084BDDD
:1041900084B5816084BD85B5826085BD85B581604B
:1041A00085BDEEE6F0E0808181608083E1E8F0E0AB
:1041B0001082808182608083808181608083E0E8DA
:1041C000F0E0808181608083E1EBF0E080818460B9
:1041D0008083E0EBF0E0808181608083EAE7F0E0BB
:1041E000808184608083808182608083808181601F
:1041F00080838081806880831092C1000895AF928F
:10420000BF92CF92DF92EF92FF920F931F937B01A9
:104210008C010E949E205B016C0120C00E949D28A1
:1042200012C00894E108F1080109110988EE93E031
:10423000A0E0B0E0A80EB91ECA1EDB1EE114F10416
:104240000105110559F00E949E206A197B098C090D
:104250009D09685E73408040904018F7E114F104B6
:1042600001051105D9F61F910F91FF90EF90DF9096
:10427000CF90BF90AF900895982F883108F0985153
:1042800097708091A5028295880F880F807C892B7A
:1042900080937C0080917A00806480937A00809182
:1042A0007A0086FDFCCF2091780040917900942F10
:1042B00080E030E0282B392BC9010895CF93DF939C
:1042C000482F50E0CA0180539B4FFC013491405568
:1042D0005B4FFA018491882369F190E0880F991F60
:1042E000FC01EE56FB4FA591B491FC01E456FB4F47
:1042F000C591D491662351F42FB7F8948C91932FE4
:10430000909589238C93888189230BC0623061F456
:104310002FB7F8948C91932F909589238C93888153
:10432000832B88832FBF06C09FB7F8948C91832B73
:104330008C939FBFDF91CF910895833071F08430CB
:1043400028F48130A1F0823021F514C08730B1F01B
:104350008830D1F08430E9F404C0809180008F77F8
:1043600003C0809180008F7D80938000089584B584
:104370008F7702C084B58F7D84BD08958091B00091
:104380008F778093B00008958091B0008F7D8093E7
:10439000B0000895FF920F931F93F62E482F50E020
:1043A000CA0180519B4FFC012491CA0180539B4F4D
:1043B000FC01149140555B4FFA0104910023C9F0B0
:1043C000222319F0822F0E949D21E02FF0E0EE0FB2
:1043D000FF1FE456FB4FA591B4919FB7F894FF20BF
:1043E00021F48C911095812302C08C91812B8C93A8
:1043F0009FBF1F910F91FF900895DC015E968C91F5
:104400005E97FD01E80FF11DE15EFD4F20815E9694
:104410008C915E9790E001968F7390705E968C936E
:104420005E975696ED91FC91579720835096ED91AB
:10443000FC9151978081806480835D969C915D970B
:104440005E968C915E97981739F45296ED91FC9197
:10445000539780818F7D80830895DF92EF92FF9242
:104460000F931F93CF93DF93EC017A018B01D22E30
:10447000E889F98982E08083403081EE580780E046
:10448000680780E07807A1F060E079E08DE390E0D4
:10449000A80197010E94872B215030404040504096
:1044A000569547953795279580E12030380798F045
:1044B000E889F989108260E874E88EE190E0A8014B
:1044C00097010E94872B2150304040405040569524
:1044D000479537952795EC85FD853083EE85FF85DB
:1044E0002083188EEC89FD89D082EA89FB8980813E
:1044F00080618083EA89FB89808188608083EA8982
:10450000FB89808180688083EA89FB8980818F7D37
:104510008083DF91CF911F910F91FF90EF90DF90FB
:104520000895FC01218D328D838D948D281B390BCC
:104530003170C9010895DC0159962D913C915A972B
:104540005B968D919C915C972817390719F42FEF92
:104550003FEF09C05B96ED91FC915C97EA0FFB1F62
:10456000878D282F30E0C9010895DC0159962D91DF
:104570003C915A975B968D919C915C9728173907CF
:1045800019F42FEF3FEF12C05B96ED91FC915C9711
:10459000EA0FFB1F278D5B968D919C915C9701968E
:1045A00091705C969C938E935B9730E0C90108955F
:1045B000FC01958D868D282F30E0492F50E098170B
:1045C00018F0215C3F4F02C021503040241B350BB6
:1045D000C9010895CF93DF93EC01888D882361F49E
:1045E00019C08C9185FF0AC0E889F989808185FF0F
:1045F00005C0CE010E94FD21AA89BB898C9185FD51
:1046000005C0E889F989808186FD04C00FB607FEE0
:10461000E8CFF4CFDF91CF9108950F931F93CF93FD
:10462000DF93EC01062F81E0888F9D8D8E8D98178A
:1046300079F5E889F989808185FF2AC0EE89FF89AB
:104640006083E889F989808180641AC00FB607FC0D
:1046500008C0E889F989808185FF03C0CE010E94E6
:10466000FD218E8D181791F38D8DFE01E80FF11D40
:10467000E15EFD4F00831D8FEA89FB8980818062A6
:10468000808381E090E0DF91CF911F910F91089599
:104690001D8D1F5F1F73E5CF1F920F920FB60F92F4
:1046A00011242F933F934F938F939F93EF93FF93F7
:1046B000E0918205F0918305808182FD1FC0E09129
:1046C0008805F0918905408120918B0530918C05FA
:1046D0002F5F3F4F317080918D0590918E05281787
:1046E000390789F0E0918B05F0918C05EE58FA4F6F
:1046F000478F30938C0520938B0505C0E09188058A
:10470000F0918905E081FF91EF919F918F914F91F9
:104710003F912F910F900FBE0F901F901895109200
:1047200075051092740588EE93E0A0E0B0E08093E8
:10473000760590937705A0937805B09379058AE67E
:1047400093E0909373058093720585EC90E09093CD
:104750007F0580937E0584EC90E0909381058093A3
:10476000800580EC90E0909383058093820581EC36
:1047700090E0909385058093840582EC90E090937F
:1047800087058093860586EC90E090938905809359
:10479000880510928C0510928B0510928E05109250
:1047A0008D0510928F051092900508951F920F921B
:1047B0000FB60F9211242F933F934F935F936F93F4
:1047C0007F938F939F93AF93BF93EF93FF9382E772
:1047D00095E00E94FD21FF91EF91BF91AF919F91D4
:1047E0008F917F916F915F914F913F912F910F909A
:1047F0000FBE0F901F9018951F920F920FB60F9239
:1048000011242F933F934F938F939F93EF93FF9395
:10481000E091E107F091E207808182FD1FC0E09105
:10482000E707F091E80740812091EA073091EB0714
:104830002F5F3F4F31708091EC079091ED07281763
:10484000390789F0E091EA07F091EB07EF52F84F52
:10485000478F3093EB072093EA0705C0E091E70705
:10486000F091E807E081FF91EF919F918F914F9137
:104870003F912F910F900FBE0F901F90189510929F
:10488000D4071092D30788EE93E0A0E0B0E08093C5
:10489000D5079093D607A093D707B093D8078AE699
:1048A00093E09093D2078093D1078DEC90E09093A2
:1048B000DE078093DD078CEC90E09093E007809317
:1048C000DF0788EC90E09093E2078093E10789ECA2
:1048D00090E09093E4078093E3078AEC90E0909354
:1048E000E6078093E5078EEC90E09093E8078093CD
:1048F000E7071092EB071092EA071092ED0710926B
:10490000EC071092EE071092EF0708951F920F9296
:104910000FB60F9211242F933F934F935F936F9392
:104920007F938F939F93AF93BF93EF93FF9381ED0B
:1049300097E00E94FD21FF91EF91BF91AF919F9170
:104940008F917F916F915F914F913F912F910F9038
:104950000FBE0F901F901895CF92DF92EF92FF92AB
:104960000F931F93CF93DF937C018B016A01C0E00B
:10497000D0E00FC0D701ED91FC910190F081E02DC6
:10498000C701D8016C910995892B31F00F5F1F4F3A
:104990002196CC16DD0671F7CE01DF91CF911F91E4
:1049A0000F91FF90EF90DF90CF900895EF92FF92DC
:1049B0000F931F93CF93DF938C017B01C0E0D0E076
:1049C000F701EC0FFD1F6491662361F0D801ED91B2
:1049D000FC910190F081E02DC8010995892B11F01F
:1049E0002196EECFCE01DF91CF911F910F91FF90D5
:1049F000EF900895CF93DF93FB01EC01A881B9817B
:104A000060817181448155811296ED91FC911397DB
:104A10000995DF91CF910895CF93DF93EC01611554
:104A2000710519F420E030E00FC0DB010D9000208B
:104A3000E9F71197A61BB70BE881F9810280F38192
:104A4000E02DAD0109959C01C901DF91CF91089539
:104A50003F924F925F926F927F928F929F92AF920E
:104A6000BF92CF92DF92EF92FF920F931F93DF934B
:104A7000CF93CDB7DEB7A3970FB6F894DEBF0FBEC6
:104A8000CDBF9BA38AA3342E452E562E672E2230EF
:104A900008F42AE019A281E2C82ED12CCC0EDD1E2A
:104AA000822E9924AA24BB24632D742D852D962D46
:104AB000A50194010E94872B762E632D742D852DE0
:104AC000962DA50194010E94872B79018A01D801B6
:104AD000C701382E492E5A2E6B2E0894C108D108D2
:104AE00089E087151CF0672D605D02C0672D695C49
:104AF000F6016083E114F10401051105A9F68AA10C
:104B00009BA1B6010E940C25A3960FB6F894DEBFB8
:104B10000FBECDBFCF91DF911F910F91FF90EF900E
:104B2000DF90CF90BF90AF909F908F907F906F90CD
:104B30005F904F903F900895CF92DF92EF92FF9257
:104B40000F931F93CF93DF93EC016A017B01211533
:104B5000310541F4E881F9810190F081E02D642F65
:104B600009951FC02A303105D1F477FF17C0E881BD
:104B7000F9810190F081E02D6DE209958C014427C7
:104B80005527BA014C195D096E097F09CE012AE04B
:104B90000E9428259801280F391F04C02AE00E948E
:104BA00028259C01C901DF91CF911F910F91FF90A2
:104BB000EF90DF90CF90089560E972E00E940C259D
:104BC0000895CF92DF92EF92FF920F931F936C01A3
:104BD0007B019A010027F7FC0095102FB801A7016F
:104BE0000E949C258C01C6010E94DC25080F191F1C
:104BF000C8011F910F91FF90EF90DF90CF90089523
:104C0000EF92FF920F931F937C010E94FA248C0174
:104C1000C7010E94DC259C01200F311FC9011F9193
:104C20000F91FF90EF900895EF92FF920F931F93D3
:104C30007C010E94D6248C01C7010E94DC259C01C6
:104C4000200F311FC9011F910F91FF90EF90089520
:104C5000EF92FF920F931F937C010E940C258C0111
:104C6000C7010E94DC25080F191FC8011F910F9171
:104C7000FF90EF9008950F931F93CF93DF93EC0174
:104C80008B016F5F7F4F888199810E94E92C00978B
:104C900011F480E005C0998388831B830A8381E037
:104CA000DF91CF911F910F910895CF93DF93EC0186
:104CB00088819981892B29F08A819B8186179707A2
:104CC00060F4CE010E943B26882341F08C819D81B7
:104CD000892B19F4E881F981108281E0DF91CF916D
:104CE0000895EF92FF920F931F93CF93DF937C0170
:104CF0008B0161157105F9F0CB010E94E52D00973C
:104D0000C1F0F701C481D581C80FD91FC701BE0109
:104D10000E945526882379F0F701808191812481B2
:104D20003581820F931FB8010E94DE2DF701D583D4
:104D3000C48381E001C080E0DF91CF911F910F918A
:104D4000FF90EF900895EF92FF920F931F93CF93F0
:104D5000DF93EC017B016C817D81E114F104C1F0F2
:104D60004115510599F08A01060F171FB8010E94DD
:104D70005526882369F0888199812C813D81820F95
:104D8000931FB7010E94002E1D830C8381E001C098
:104D900080E0DF91CF911F910F91FF90EF900895E8
:104DA0006115710511F480E00895DB010D9000207C
:104DB000E9F71197A61BB70BAD010E94A326089532
:104DC000FB0160817181448155810E94A326089571
:104DD000CF93DF93EC0188819981009711F00E94B5
:104DE000912C198218821D821C821B821A82DF91EB
:104DF000CF9108950F931F93182F092F61157105F7
:104E000061F0DB010D900020E9F71197A61BB70BAD
:104E1000AD010E94A326882321F4812F902F0E94A8
:104E2000E826812F902F1F910F9108950F931F93C4
:104E3000182F092FFB0160817181448155810E94E7
:104E4000A326882321F4812F902F0E94E826812F0A
:104E5000902F1F910F910895EF92FF920F931F9340
:104E6000CF93DF93EC017B018A01BA010E945526A2
:104E7000882321F4CE010E94E82607C01D830C83FD
:104E800088819981B7010E94DE2DCE01DF91CF91FB
:104E90001F910F91FF90EF9008950F931F93CF9361
:104EA000DF93182F092FEB016115710551F0CB012C
:104EB0000E94E52DAC01812F902FBE010E942C276E
:104EC00002C00E94E826812F902FDF91CF911F9181
:104ED0000F910895FC0111821082138212821582B3
:104EE00014820E944D270895EF92FF920F931F9313
:104EF000CF93DF93EC017B018A01BA010E94552612
:104F0000882321F4CE010E94E82607C01D830C836C
:104F100088819981B7010E94002ECE01DF91CF9147
:104F20001F910F91FF90EF900895CF93DF93EC01C5
:104F3000198218821B821A821D821C8261157105DA
:104F400051F0DB010D900020E9F71197A61BB70B7C
:104F5000AD010E947427DF91CF910895CF93DF9325
:104F6000EC01198218821B821A821D821C82611533
:104F7000710551F0DB010D900020E9F71197A61B98
:104F8000B70BAD010E947427DF91CF9108950F9365
:104F90001F93182F092F6115710559F0DB010D9032
:104FA0000020E9F71197A61BB70BAD010E947427EB
:104FB00002C00E94E826812F902F1F910F91089523
:104FC000EF92FF920F931F93DF93CF93CDB7DEB78E
:104FD000A1970FB6F894DEBF0FBECDBF7C01CB0109
:104FE000BA01F70111821082138212821582148293
:104FF000422F4E5F8E010F5F1F4F0E94C32BBC01DB
:10500000C7010E94C727A1960FB6F894DEBF0FBE56
:10501000CDBFCF91DF911F910F91FF90EF90089539
:10502000EF92FF920F931F93DF93CF93CDB7DEB72D
:10503000A1970FB6F894DEBF0FBECDBF7C01CB01A8
:10504000BA01F70111821082138212821582148232
:10505000422F4E5F8E010F5F1F4F0E94C32BBC017A
:10506000C7010E94C727A1960FB6F894DEBF0FBEF6
:10507000CDBFCF91DF911F910F91FF90EF900895D9
:10508000EF92FF920F931F93DF93CF93CDB7DEB7CD
:1050900062970FB6F894DEBF0FBECDBF8C01CB0177
:1050A000F8011182108213821282158214827E010D
:1050B0000894E11CF11CB70150E00E94162EC801B3
:1050C000B7010E94C72762960FB6F894DEBF0FBEE5
:1050D000CDBFCF91DF911F910F91FF90EF90089579
:1050E000CF93DF93EC01FB018617970761F0608196
:1050F00071816115710529F0448155810E947427E1
:1051000002C00E94E826CE01DF91CF910895FC01F4
:105110001182108213821282158214820E947028DA
:105120000895FC01808191810E94912C0895FC01D9
:10513000808191810E94912C089508955058BB2739
:10514000AA270ED0B1C1A2D130F0A7D120F031F4FE
:105150009F3F11F41EF497C10EF4E095E7FB64C184
:10516000E92FB3D180F3BA17620773078407950755
:1051700018F071F49EF5E2C10EF4E0950B2EBA2FF3
:10518000A02D0B01B90190010C01CA01A00111244D
:10519000FF27591B99F0593F50F4503E68F11A16F9
:1051A000F040A22F232F342F4427585FF3CF46958A
:1051B00037952795A795F0405395C9F77EF41F16AC
:1051C000BA0B620B730B840BBAF09150A1F0FF0F76
:1051D000BB1F661F771F881FC2F70EC0BA0F621F62
:1051E000731F841F48F4879577956795B795F79552
:1051F0009E3F08F0B3CF9395880F08F09927EE0FE4
:1052000097958795089583D180F09F3740F4911149
:105210000EF495C160E070E080E89FE3089526F009
:105220001B16611D711D811D05C11FC1D9D008F458
:1052300081E008950CD038C130D140F027D130F052
:1052400021F45F3F19F0F0C0511179C11CC13DD16B
:1052500098F39923C9F35523B1F3951B550BBB273D
:10526000AA2762177307840738F09F5F5F4F220FEA
:10527000331F441FAA1FA9F333D00E2E3AF0E0E8E3
:1052800030D091505040E695001CCAF729D0FE2F2F
:1052900027D0660F771F881FBB1F261737074807C1
:1052A000AB07B0E809F0BB0B802DBF01FF27935877
:1052B0005F4F2AF09E3F510568F0B6C040C15F3F86
:1052C000ECF3983EDCF3869577956795B795F7955F
:1052D0009F5FC9F7880F911D9695879597F9089557
:1052E000E1E0660F771F881FBB1F621773078407F3
:1052F000BA0720F0621B730B840BBA0BEE1F88F702
:10530000E095089504D06894B11119C10895E5D0CD
:1053100088F09F5790F0B92F9927B751A0F0D1F09E
:10532000660F771F881F991F1AF0BA95C9F712C028
:10533000B13081F003D1B1E0089500C1672F782F1B
:105340008827B85F39F0B93FCCF386957795679594
:10535000B395D9F73EF490958095709561957F4F00
:105360008F4F9F4F0895E89409C097FB3EF49095A6
:105370008095709561957F4F8F4F9F4F9923A9F02E
:10538000F92F96E9BB279395F695879577956795BD
:10539000B795F111F8CFFAF4BB0F11F460FF1BC001
:1053A0006F5F7F4F8F4F9F4F16C0882311F096E994
:1053B00011C0772321F09EE8872F762F05C0662342
:1053C00071F096E8862F70E060E02AF09A95660FFB
:1053D000771F881FDAF7880F9695879597F90895B4
:1053E000990F0008550FAA0BE0E8FEEF16161706F6
:1053F000E807F907C0F012161306E407F50798F05E
:10540000621B730B840B950B39F40A2661F0232B76
:10541000242B252B21F408950A2609F4A140A695F2
:105420008FEF811D811D089597F99F6780E870E0D7
:1054300060E00895882371F4772321F09850872B3A
:10544000762F07C0662311F499270DC09051862B43
:1054500070E060E02AF09A95660F771F881FDAF7F0
:10546000880F9695879597F908959F3F31F0915051
:1054700020F4879577956795B795880F911D969538
:10548000879597F908959FEF80EC089500240A947A
:105490001616170618060906089500240A9412160F
:1054A0001306140605060895092E0394000C11F442
:1054B000882352F0BB0F40F4BF2B11F460FF04C0EF
:1054C0006F5F7F4F8F4F9F4F089557FD9058440F48
:1054D000551F59F05F3F71F04795880F97FB991F53
:1054E00061F09F3F79F08795089512161306140610
:1054F000551FF2CF4695F1DF08C01616170618069D
:10550000991FF1CF86957105610508940895E5DF2F
:10551000A0F0BEE7B91788F4BB279F3860F41616D1
:10552000B11D672F782F8827985FF7CF86957795DD
:105530006795B11D93959639C8F30895E894BB27F4
:1055400066277727CB0197F908954ADF08F48FEF94
:1055500008950BD0A9CF9ADF28F09FDF18F095238C
:1055600009F062CF90CF1124EACFAFDFA0F3959F6F
:10557000D1F3950F50E0551F629FF001729FBB273A
:10558000F00DB11D639FAA27F00DB11DAA1F649FE6
:105590006627B00DA11D661F829F2227B00DA11D99
:1055A000621F739FB00DA11D621F839FA00D611D1F
:1055B000221F749F3327A00D611D231F849F600D40
:1055C000211D822F762F6A2F11249F5750408AF079
:1055D000E1F088234AF0EE0FFF1FBB1F661F771F05
:1055E000881F91505040A9F79E3F510570F01CCF85
:1055F000A6CF5F3FECF3983EDCF3869577956795F1
:10560000B795F795E7959F5FC1F7FE2B880F911D22
:105610009695879597F9089511F40EF434CF25CF18
:105620005CDFD0F39923D9F3CEF39F57550B87FF57
:1056300035D00024A0E640EA900180585695979511
:1056400028F4805C660F771F881F20F02617370725
:10565000480730F4621B730B840B202931294A2B35
:10566000A69517940794202531254A2758F7660FE9
:10567000771F881F20F026173707480730F4620B82
:10568000730B840B200D311D411DA09581F7B901CD
:10569000842F9158880F9695879508959150504082
:1056A000660F771F881FD2F70895629FD001739FFE
:1056B000F001829FE00DF11D649FE00DF11D929FAE
:1056C000F00D839FF00D749FF00D659FF00D9927ED
:1056D000729FB00DE11DF91F639FB00DE11DF91F11
:1056E000BD01CF011124089597FB092E07260AD08A
:1056F00077FD04D02ED006D000201AF47095619565
:105700007F4F0895F6F7909581959F4F0895A1E2F8
:105710001A2EAA1BBB1BFD010DC0AA1FBB1FEE1F2B
:10572000FF1FA217B307E407F50720F0A21BB30B76
:10573000E40BF50B661F771F881F991F1A9469F7F2
:1057400060957095809590959B01AC01BD01CF014E
:105750000895AA1BBB1B51E107C0AA1FBB1FA617B8
:10576000B70710F0A61BB70B881F991F5A95A9F70A
:1057700080959095BC01CD010895EE0FFF1F059017
:10578000F491E02D0994EF92FF920F931F93F22F63
:10579000F02E47FD02C0E4E001C0E4E1242F3327EE
:1057A00027FD309537FF03C0309521953F4F4F2D92
:1057B000512F0F2FEE2E0E94542E8F2D912F1F91BF
:1057C0000F91FF90EF900895CF93DF93BC0182304B
:1057D000910510F462E070E0A091320AB091330AB2
:1057E000ED01E0E0F0E040E050E021C088819981E7
:1057F0008617970769F48A819B81309719F0938304
:10580000828304C09093330A8093320AFE0134C02D
:105810006817790738F44115510519F08417950771
:1058200008F4AC01FE018A819B819C01E90120976B
:10583000E9F641155105A9F1CA01861B970B04979A
:1058400008F4BA01E0E0F0E02AC08D919C91119734
:1058500084179507F9F46417750781F412968D91F2
:105860009C911397309719F09383828304C090938F
:10587000330A8093320AFD0132964FC0CA01861B5B
:10588000970BFD01E80FF91F6193719302978D93B8
:105890009C9343C0FD01828193819C01D9011097A3
:1058A000A1F68091300A9091310A892B41F48091C0
:1058B000A1029091A2029093310A8093300A409104
:1058C000A3025091A4024115510541F44DB75EB7B2
:1058D00080919F029091A002481B590B2091300AA1
:1058E0003091310A24173507B0F4CA01821B930B9B
:1058F0008617970780F0AB014E5F5F4F84179507BF
:1059000050F0420F531F5093310A4093300AF9016F
:105910006193719302C0E0E0F0E0CF01DF91CF919D
:105920000895CF93DF93009709F450C0EC012297BC
:105930001B821A82A091320AB091330A109709F1A2
:1059400040E050E0AC17BD0708F1BB83AA83FE011D
:1059500021913191E20FF31FAE17BF0779F48D91BA
:105960009C911197280F391F2E5F3F4F3983288351
:1059700012968D919C9113979B838A8341155105B3
:1059800071F4D093330AC093320A20C012968D91DD
:105990009C911397AD01009711F0DC01D3CFFA0170
:1059A000D383C28321913191E20FF31FCE17DF071A
:1059B00069F488819981280F391F2E5F3F4FFA01C2
:1059C000318320838A819B8193838283DF91CF916E
:1059D0000895A0E0B0E0EFEEFCE20C94A4308C015E
:1059E000009729F4CB010E94E42B8C01BAC09EEFF2
:1059F000E92E9FEFF92EE00EF11E5801A60EB71EFC
:105A0000AE14BF0408F4ABC08EEF882E8FEF982E33
:105A10008A0C9B1CE7014881598146175707B8F04B
:105A20004530510508F49DC0CA01049786179707B1
:105A300008F497C042505040461B570BF401518365
:105A4000408379836883C5010E94912C8AC06B01D1
:105A5000C41AD50AE091320AF091330AA0E0B0E00E
:105A6000C0E0D0E042C0E815F905A1F52081318100
:105A70002C153D0578F1C90102968C159D05A8F0FD
:105A80004E5F5F4F420F531FE701598348832281C6
:105A90003381109729F013963C932E93129761C08F
:105AA0003093330A2093320A5CC0225030402C19C4
:105AB0003D0931832083109729F01396FC93EE93D0
:105AC000129704C0F093330AE093320AF70171830E
:105AD000608347C080819181C817D90708F4EC0121
