:100000000C94D8000C9400010C9400010C94000195
:100010000C9400010C9400010C9400010C9400015C
:100020000C9400010C9400010C9400010C9400014C
:100030000C9400010C9400010C9400010C9400013C
:100040000C9400010C9400010C94300D0C940001F0
:100050000C94CF0F0C9451100C9400010C940001DF
:100060000C9400010C9400010C94810B0C94000181
:100070000C9400010C9400010C9400014C6F63611E
:1000800074696F6E3A2020200053616C696E697448
:10009000793A2020200054656D7065726174757224
:1000A000653A20202000436F6E6475637469766939
:1000B00074793A2020200043616C6962726174692E
:1000C0006F6E20446F6E650048696768204D6167F8
:1000D0006E6974756465203220466F756E640048E1
:1000E000696768204D61676E6974756465203120A9
:1000F000466F756E64004C6F77204D61676E697452
:10010000756465203220466F756E64004C6F7720F1
:100110004D61676E6974756465203120466F756E38
:100120006400850086008700820083008400000050
:100130002100240027002A000000220025002800BA
:100140002B000000200023002600290004040404E2
:100150000202020204040202020203030303030375
:10016000030304040101010101010101010204086A
:100170000102040840201020408080402010080424
:1001800002011080804020100804020100000000DD
:100190000000000108030200090A0000000000003E
:1001A0000000040700000000000000001D0A041009
:1001B00011241FBECFEFD0E1DEBFCDBF11E0A0E024
:1001C000B1E0ECECFAE202C005900D92A433B10765
:1001D000D9F714E0A4E3B1E001C01D92AC31B1073E
:1001E000E1F711E0C0EBD1E004C02297FE010E94CC
:1001F0004A15CC3AD107C9F70E9478100C946415BF
:100200000C9400008F929F92AF92BF92CF92DF9298
:10021000EF92FF920F931F93DF93CF93CDB7DEB78B
:100220006C970FB6F894DEBF0FBECDBF8FEF91E095
:1002300040E052EC61E070E026E00E94A30E80E016
:1002400090E0A0E0B0E08D839E83AF83B88780E02C
:1002500090E0A0E8BFEB898F9A8FAB8FBC8F7E01B7
:100260000894E11CF11C66E070E08B010F5F1F4FEA
:1002700085E391E00E94DC09D7018D937D01B801EF
:100280000A30110591F785E0E82EF12CEC0EFD1EE9
:100290006CE070E08B010F5F1F4F85E391E00E94DF
:1002A000DC09F70181937F01B8010031110591F755
:1002B00009811A812B813C818DB79EB70F970FB6AC
:1002C000F8949EBF0FBE8DBFEDB7FEB73196CD80BF
:1002D000DE80EF80F88440E050E060E070E0ADB791
:1002E000BEB711964D935D936D937C93149788E4FC
:1002F0008483CE01459696838583CE014996908767
:100300008783CE01099692878187CE010D969487C7
:100310008387CE0141969687858784E391E0B90172
:10032000A8010F2EF0E08F2EF0E09F2EF0E8AF2E08
:10033000FFE3BF2EF02D0E94D007EDB7FEB73F962A
:100340000FB6F894FEBF0FBEEDBF8FEF91E066EAE7
:1003500070E00E94B31049855A856B857C858FEFCC
:1003600091E023E030E00E9475128FEF91E066E9A2
:1003700070E00E94B3104D855E856F8578898FEFA0
:1003800091E023E030E00E9475128FEF91E069E880
:1003900070E00E94B31049895A896B897C898FEF7C
:1003A00091E023E030E00E9475128FEF91E06CE75E
:1003B00070E00E94B31068EE73E080E090E00E946D
:1003C000D90D6C960FB6F894DEBF0FBECDBFCF919E
:1003D000DF911F910F91FF90EF90DF90CF90BF9032
:1003E000AF909F908F900895EF92FF920F931F937D
:1003F000CF93DF937C018B01C0E0D0E0BE016E0D96
:100400007F1DF801EC0FFD1F85E391E040810E9404
:10041000D7092196C430D10589F784E090E0DF91B7
:10042000CF911F910F91FF90EF900895AF92BF92DF
:10043000CF92DF92EF92FF920F931F93DF93CF93B0
:10044000CDB7DEB764970FB6F894DEBF0FBECDBF51
:10045000282F80E090E0A0E0B0E0898B9A8BAB8BF6
:10046000BC8B2C3409F07AC084E391E040E050E08A
:100470006AE774E48A019B010E94F2085B016C0147
:100480008FEF91E0B601A5012EE130E00E947512D8
:100490008FEF91E06CE071E00E947B1184E391E0CA
:1004A00040E050E46CE176E400E010E02AE734E458
:1004B0000E94F2087B018C018FEF91E0B801A70147
:1004C0002EE130E00E9475128FEF91E066EF70E050
:1004D0000E947B11C601B501A80197010E948912F3
:1004E0009B01AC016BEF7DEE8BE69AE30E94F2126A
:1004F0009B01AC016D837E838F8398876FE672E1E9
:1005000083E89AE30E94F2129B01AC01C601B50197
:100510000E94891269877A878B879C8781E090E0A7
:10052000BE016B5F7F4F0E94F40184E090E0BE014A
:10053000675F7F4F0E94F40182E090E0482F9A832A
:10054000898385E391E060E270E00E94D70985E34A
:1005500091E061E270E0FE0131967CC0283409F040
:100560007CC084E391E040E050E068EC72E48A01F2
:100570009B010E94F2085B016C018FEF91E0B601D4
:10058000A5012EE130E00E9475128FEF91E06FED32
:1005900070E00E947B1184E391E040E050E06AE764
:1005A00074E400E010E028EC32E40E94F2087B01E1
:1005B0008C018FEF91E0B801A7012EE130E00E949D
:1005C00075128FEF91E068EC70E00E947B11C6011C
:1005D000B501A80197010E9489129B01AC016CEB47
:1005E00074E783E19CE30E94F2129B01AC016D87EA
:1005F0007E878F87988B6AE077ED83E29CE30E9489
:10060000F2129B01AC01C601B5010E948912698BEF
:100610007A8B8B8B9C8B86E090E0BE01635F7F4F73
:100620000E94F4018CE090E0BE016F5E7F4F0E945B
:10063000F40181E090E0482F9C838B8385E391E077
:1006400060E270E00E94D70985E391E061E270E02A
:10065000FE01339641810E94D7094D855E856F85E5
:1006600078898FEF91E02EE130E00E947512498980
:100670005A896B897C898FEF91E02EE130E00E94EE
:1006800075128FEF91E067EB70E00E947B1164962A
:100690000FB6F894DEBF0FBECDBFCF91DF911F9193
:1006A0000F91FF90EF90DF90CF90BF90AF900895A3
:1006B000CF92DF92EF92FF920F931F9384E391E02A
:1006C0006FE070E020E030E04AEF55E40F2EF0E0FC
:1006D000EF2EF0E0FF2EF0E80F2FF0E41F2FF02DAB
:1006E000E2E0CE2ED12C0E949A0965E070E080E015
:1006F00090E00E94D90D88E40E9416021F910F918C
:10070000FF90EF90DF90CF9008950F931F93DF93AA
:10071000CF9300D00F92CDB7DEB78901CB01BA01DC
:1007200020E034E244E757E40E94F21220E030E097
:1007300040E05DE40E9441140E945A1389837A8349
:100740006B830C0F1D1FF80181810F900F900F908C
:10075000CF91DF911F910F9108950F931F930CE795
:1007600011E0C80168E470E00E94E309C80160E09C
:100770000E94650AC8010E94A80A1F910F9108955E
:100780000F931F93062F8CE791E068E470E041E03F
:1007900050E00E94B90A1FEF05C08CE791E00E946B
:1007A000F609182F8CE791E00E94ED09892BA9F733
:1007B000093098F4602F70E0615070408FEF6F3F08
:1007C000780711F460E070E0812F90E002C0959509
:1007D00087956A95E2F7182F1170812F1F910F915D
:1007E00008950F931F93162F042F69E00E94C003F2
:1007F000482F812F90E00023E1F001972FEF8F3FEA
:10080000920719F420E030E006C09C018830910581
:1008100014F027E030E081E090E0A0E0B0E004C018
:10082000880F991FAA1FBB1F2A95D2F7142F182BC8
:100830001CC001972FEF8F3F920719F420E030E0A2
:1008400006C09C018830910514F027E030E081E07B
:1008500090E0A0E0B0E004C0880F991FAA1FBB1F62
:100860002A95D2F7182F109514238CE791E068E4AD
:1008700070E00E94E3098CE791E0612F0E94650A15
:100880008CE791E00E94A80A1F910F9108956F9242
:100890007F928F929F92AF92BF92CF92DF92EF9210
:1008A000FF920F931F933A014B0158016901C9014F
:1008B000B80120E030E040E050E00E94EE1287FDF9
:1008C00038C1C601B50120E030E040EF51E40E949C
:1008D0003D1418160CF42DC1C401B30120E030E022
:1008E00040E050E00E94EE1218165CF00F2EF0E08F
:1008F000EF2EF0E0FF2EF0E00F2FF0EC1F2FF02D89
:1009000022C1C401B30120E032EA47E257E40E9469
:10091000F2127B018C01C601B50122E73DED49E8E9
:1009200050E30E9441142AE138E14BE355E30E9471
:1009300089129B01AC01C601B5010E94411424E754
:1009400034E947EE58E30E948A129B01AC01C601CC
:10095000B5010E94411422E53DE444EA5CE30E94B3
:100960008A129B01AC01C601B5010E9441142BE41F
:1009700036E34DE25FE30E948A129B01AC01C8019D
:10098000B7010E94F2120E94A8147B018C012AEF89
:100990003DEE4BE65CEB0E94411428EB30E442E86C
:1009A0005DE30E948A129B01AC01C801B7010E945D
:1009B00041142AE939E949E15DE30E9489129B016A
:1009C000AC01C801B7010E94411420ED34E448EDA8
:1009D0005BE30E9489129B01AC01C801B7010E9430
:1009E000411424E330E847EB5BE30E9489129B014A
:1009F000AC01C801B7010E9441142FE632E143E087
:100A00005AE30E948A123B014C01C601B50120E065
:100A100030E040E751E40E9489125B016C01C8019B
:100A2000B70123E831E54DE250E40E94411420ED86
:100A300035ED40EE50E40E9489129B01AC01C801E3
:100A4000B7010E9441142FE631E841E651E40E94CB
:100A50008A129B01AC01C801B7010E9441142FEA20
:100A600034E14BEC51E40E948A129B01AC01C801B5
:100A7000B7010E94411424EC32E44DE25EE30E948F
:100A800089129B01AC01C801B7010E9441142FE6F5
:100A900032E143E05CE30E948A127B018C01C601D3
:100AA000B5012DED35EB44E85CE30E94411420E0F4
:100AB00030E040E85FE30E948A129B01AC01C6016E
:100AC000B5010E94F2129B01AC01C401B3010E9466
:100AD00041149B01AC01C801B7010E948A127B013D
:100AE0008C0120E030E040E050E40E94EE128823C8
:100AF0005CF40F2EF0E0EF2EF0E0FF2EF0E40F2F6D
:100B0000F0EC1F2FF02D1FC0C801B70120E030E02E
:100B100048E252E40E943D141816ACF40F2EF0E0A7
:100B2000EF2EF0E0FF2EF0E80F2FF0EC1F2FF02D4E
:100B30000AC00F2EF0E0EF2EF0E0FF2EF0E80F2FAE
:100B4000FFEB1F2FF02DB701C8011F910F91FF90F0
:100B5000EF90DF90CF90BF90AF909F908F907F905D
:100B60006F9008951F93162F8CE791E06DE070E071
:100B70000E94E3098CE791E0612F0E94650A8CE7EF
:100B800091E00E94A80A61E070E080E090E00E949D
:100B9000D90D8CE791E06DE070E041E050E00E94FB
:100BA000B90A8CE791E00E94ED09181619061CF0AD
:100BB0002FEF3FEF05C08CE791E00E94F6099C0102
:100BC000C9011F9108956FE870E00E94B2059C0171
:100BD00027703070C90108950F931F93162F042FAB
:100BE0008CE791E06DE070E00E94E3098CE791E012
:100BF000612F0E94650A8CE791E0602F0E94650AD0
:100C00008CE791E00E94A80A182F61E070E080E074
:100C100090E00E94D90D80E0112309F481E01F913A
:100C20000F9108950F931F93CF93DF938C01AB0126
:100C3000CB0128E06030720714F08FEF97E024E0DA
:100C40004030520744F064E070E00E94FF14EB0172
:100C500043E050E00FC022E04030520724F4EA01A4
:100C600040E050E007C062E070E00E94FF14EB013A
:100C700041E050E0440F551F8D2F992787FD9A952D
:100C8000480F591FC8016AE870E00E94EC05D07057
:100C9000C8016AE870E0AE010E94EC05DF91CF91D7
:100CA0001F910F9108950F931F93CF93DF938C01A2
:100CB000EB0182E06030780714F0CFEFD1E04D2FE8
:100CC000552747FD5A95C80168E870E00E94EC0579
:100CD000D070C80169E870E0AE010E94EC05DF91B8
:100CE000CF911F910F910895AF92BF92CF92DF9253
:100CF000EF92FF920F931F93CF93DF935C017A01E2
:100D00008B0132E2C32E31E0D32EC0E0D0E0C5012A
:100D1000B801A7019E010E948503482FF601619149
:100D200071916F01C50150E00E94EC052196C3301E
:100D3000D10569F7DF91CF911F910F91FF90EF904F
:100D4000DF90CF90BF90AF900895AF92BF92CF92B7
:100D5000DF92EF92FF920F931F93CF93DF935C018B
:100D60007A018B0148E2C42E41E0D42EC0E0D0E0ED
:100D7000C501B801A7019E010E948503482FF60115
:100D8000619171916F01C50150E00E94EC052196BF
:100D9000C330D10569F7DF91CF911F910F91FF907B
:100DA000EF90DF90CF90BF90AF9008950F931F9377
:100DB0008C0160E870E00E94B205AC01407F507089
:100DC0004160C80160E870E00E94EC05182F6AE0FD
:100DD00070E080E090E00E94D90D812F1F910F916B
:100DE0000895EF92FF920F931F937C018B0160E8AF
:100DF00070E00E94B205AC014F70507064E0000FCB
:100E0000111F6A95E1F7402B512BC70160E870E094
:100E10000E94EC05182F61E070E080E090E00E94F5
:100E2000D90D812F1F910F91FF90EF9008956F9230
:100E30007F928F929F92AF92BF92CF92DF92EF926A
:100E4000FF920F931F93CF93DF93EC01162F042F84
:100E50000E94D606CE010E94AD03CE01612F41E073
:100E60000E94F103CE01602F41E00E94F103CE0108
:100E70000E94D606CE016BE070E00E94F106CE0122
:100E800061E070E00E94F10664E670E080E090E0CE
:100E90000E94D90DCE0162E070E00E94F10661C0AF
:100EA00060E570E080E090E00E94D90DCE010E94E4
:100EB000E305029709F049C0CE0164E970E00E94A1
:100EC000B205782E6624CE0165E970E00E94B20575
:100ED0007C01CE0166E970E00E94B205982E88245C
:100EE000CE0167E970E00E94B2055C01E628F728B0
:100EF0000027F7FC0095102FC801B7010E948D1341
:100F00009B01AC010E9441147B018C01A828B928E7
:100F1000CC24B7FCC094DC2CC601B5010E948D1313
:100F20009B01AC010E9441149B01AC01C801B701B7
:100F30000E948A120E94A814162F072FE82EA92EAD
:100F4000CE0163E070E00E94F106CE010E94E3054D
:100F500004970CF4A5CF60E570E080E090E00E947B
:100F6000D90DCE010E94E30506977CF3CE016AE01D
:100F700070E00E94F106212F302F4E2D5A2DB9011D
:100F8000CA01DF91CF911F910F91FF90EF90DF90F9
:100F9000CF90BF90AF909F908F907F906F9008956B
:100FA0002F923F924F925F926F927F928F929F9279
:100FB000AF92BF92CF92DF92EF92FF920F931F9367
:100FC000DF93CF93CDB7DEB728970FB6F894DEBF87
:100FD0000FBECDBF1C012A013B0109831A832B835D
:100FE0003C83CD82DE82EF82F886CEA0DFA061E076
:100FF00070E047E050E00E941707A30192010E94B1
:1010000041149B01AC0160E070E080E89FE30E9426
:10101000F21226E636E646E65FE30E948912EAA16E
:10102000FBA1608371838283938320E030E048ECEE
:1010300052EC0E94F21220E030E040E85FE30E94B0
:101040008A1220E835E04BE156E30E94411428E67D
:1010500032E240E857E30E948A120E94A81423E378
:1010600031E140E85BE30E94891220E835E04BE97A
:1010700055EB0E94F212E8A5F9A560837183828383
:101080009383F9A1F83419F461E070E008C089A1F4
:101090008C3419F020E030E08BC062E070E0C101D8
:1010A00048E050E00E9417077B018C0129813A81BA
:1010B0004B815C810E9441149B01AC0160E070E0B7
:1010C00080E89FE30E94F2122AE939E949E150E4FD
:1010D0000E948912ECA1FDA16083718382839383B6
:1010E000C801B7012D813E814F8158850E94891228
:1010F00029813A814B815C810E9441147B018C01E2
:1011000099A1983451F5C801B70120E030E048ECCE
:1011100052EC0E94411420E030E040E85FE30E947E
:101120008A129B01AC01C801B7010E94F21220E0B3
:1011300030E04AE754E40E944114F6016083718371
:1011400082839383A50194010E9441142D8D3E8DCD
:101150004F8D58A10E948A1208C0C801B70120E033
:1011600030E04AE754E40E944114F6016083718341
:1011700082839383F601608171818281938120E073
:1011800030E04AE754E40E944114AB01BC01E8A5F9
:10119000F9A50081118122813381C1010E94470498
:1011A000EAA5FBA5608371838283938321E030E00D
:1011B000C90128960FB6F894DEBF0FBECDBFCF9100
:1011C000DF911F910F91FF90EF90DF90CF90BF9034
:1011D000AF909F908F907F906F905F904F903F90D7
:1011E0002F9008956F927F928F929F92AF92BF92AD
:1011F000CF92DF92EF92FF920F931F93CF93DF93E3
:101200003C014A015B0178018901CB01BA0120E070
:1012100030E048EC52E40E94EE12882371F4C801D9
:10122000B70120E030E048EC52E40E94EE1288233F
:1012300021F4A4E0CA2ED12C17C0C501B40120E0CE
:1012400030E04AE754E40E94EE128823F1F4C8012A
:10125000B70120E030E048EC52E40E94EE1288230F
:1012600031F4F5E0CF2ED12CC1E0D0E036C0C8017A
:10127000B70120E030E04AE754E40E94EE128823F0
:1012800021F4E5E0CE2ED12C17C0C501B40120E039
:1012900030E44CE156E40E94EE12882381F4C80148
:1012A000B70120E030E04AE754E40E94EE128823C0
:1012B00031F476E0C72ED12CC2E0D0E00EC00F2E64
:1012C000F0E08F2EF0E09F2EF0E0AF2EF0E0BF2E8A
:1012D000F02D85017401C0E0D0E0C801B70120E025
:1012E00030E040E050E00E94EE12882379F0C50122
:1012F000B40120E030E040E050E00E94EE1288238C
:1013000029F460E070E080E090E005C0C301B60120
:10131000AE010E941707DF91CF911F910F91FF90AF
:10132000EF90DF90CF90BF90AF909F908F907F9085
:101330006F9008954F925F926F927F928F929F92DB
:10134000AF92BF92CF92DF92EF92FF920F931F93D3
:101350005C012B0139014A018CE791E00E94BD0A32
:1013600068EE73E080E090E00E94D90DC501B20103
:101370000E941206C501B401A3010E94A506C50181
:10138000B801A7010E947406C501B6010E94530668
:101390001F910F91FF90EF90DF90CF90BF90AF9093
:1013A0009F908F907F906F905F904F900895CB01AA
:1013B000642F0E9456150895CB010E944E15089582
:1013C00080E090E0089581E080937B016093580174
:1013D0001092790110927A0108952091570130E01E
:1013E00080915601281B3109C90108954091560189
:1013F00080915701481718F02FEF3FEF0AC0E42FF4
:10140000F0E0EA5CFE4F8081282F30E04F5F409390
:101410005601C9010895E091560180915701E817DE
:1014200018F0EFEFFFEF06C0F0E0EA5CFE4F8081BE
:10143000E82FF0E0CF010895089510927F011092F7
:101440007E0188EE93E0A0E0B0E08093800190936D
:101450008101A0938201B093830183E191E0909395
:101460007D0180937C010895CF92DF92EF92FF92ED
:101470000F931F93CF93DF937C016B018A018091BF
:101480007B018823A1F0C0E0D0E00DC0D701ED9131
:10149000FC91D601AC0FBD1F0190F081E02DC7017A
:1014A0006C9109952196C017D10780F304C0CB0138
:1014B000642F0E94660BC801DF91CF911F910F919D
:1014C000FF90EF90DF90CF900895DF93CF930F922E
:1014D000CDB7DEB7FC01698380917B018823C9F019
:1014E00080917A01803238F081E090E093838283AA
:1014F00020E030E015C080917901E82FF0E0E75A54
:10150000FE4F998190838F5F8093790180937A0158
:1015100005C0CE01019661E00E94660B21E030E03B
:10152000C9010F90CF91DF9108950F93062F8091FD
:10153000580169E571E040917A0121E00E94110BA8
:101540001092790110927A0110927B010F91089507
:1015500061E00E94950A0895413208F040E2862F2A
:1015600066E371E00E94C80A109256018093570109
:10157000089521E00E94AC0A08951092560110923D
:1015800057011092790110927A010E94120D08956C
:10159000382F413210F040E042C08091880188230A
:1015A000E1F791E09093880120938A018FEF809377
:1015B000F5011092B00141504093B1014F5F9093FB
:1015C000890180918901330F832B80938901809158
:1015D0008B01813041F410928B01809189018093BD
:1015E000BB0085EC01C085EE8093BC008091880132
:1015F0008130E1F38091B001841710F44091B00183
:1016000020E030E00AC0FB01E20FF31FD901A05730
:10161000BE4F8C9180832F5F3F4F2417A0F3842F00
:1016200008950F931F93582F122F413210F081E02D
:101630004AC0809188018823E1F782E08093880185
:1016400000938A018FEF8093F5011092B0014093CF
:10165000B101A0E9B1E0FB0102C081918D938E2F11
:10166000861B8417D0F31092890180918901550F50
:10167000852B8093890180918B01813041F41092F8
:101680008B01809189018093BB0085EC01C085EEC0
:101690008093BC00112321F0809188018230E1F316
:1016A0008091F5018F3F11F480E00DC08091F5012C
:1016B000803211F482E007C08091F501803311F08F
:1016C00084E001C083E01F910F910895482F61329B
:1016D00010F081E0089580918801843011F082E05B
:1016E00008956093D301A2EBB1E0842F9C01F9012E
:1016F00002C081918D938E2F841B8617D0F380E0DA
:1017000008951F920F920FB60F9211242F933F93BB
:101710004F935F936F937F938F939F93AF93BF93F9
:10172000EF93FF938091B90090E0887F90708036AE
:10173000910509F4F2C081369105CCF58832910506
:1017400009F47BC089329105B4F48031910509F424
:101750006FC0813191053CF4009709F447C10897A7
:1017600009F04FC165C08831910509F466C08097C2
:1017700009F047C182C08034910509F4A4C08134C6
:10178000910544F48033910509F482C0C89709F0AB
:1017900038C189C08035910509F489C08835910523
:1017A00009F496C08834910509F02BC1AEC0883980
:1017B000910509F413C189399105ECF48837910535
:1017C00009F4ABC0893791054CF48836910509F4CA
:1017D000A4C08037910509F014C19FC088389105D5
:1017E00009F4FCC08039910509F49DC08038910549
:1017F00009F007C198C0803B910509F4C6C0813B40
:1018000091054CF4803A910509F49FC0883A9105FE
:1018100009F0F7C0BAC0803C910509F4E3C0883CE8
:10182000910509F4DFC0883B910509F0EAC0C2C008
:10183000809189018093BB00CFC09091B0018091CD
:10184000B101981768F49091B001E92FF0E0E057EA
:10185000FE4F80818093BB009F5F9093B001BCC01E
:1018600080918A01882309F44BC085ED8093BC00E8
:101870008091BC0084FDFCCFC2C080E28093F50162
:1018800085ED8093BC008091BC0084FDFCCFB7C087
:1018900080E38093F50185ED8093BC008091BC00CE
:1018A00084FDFCCFACC088E38093F5019BC08091A0
:1018B000B0019091BB00E82FF0E0E057FE4F90831D
:1018C0008F5F8093B0019091B0018091B10182C08F
:1018D0008091B0019091BB00E82FF0E0E057FE4FFF
:1018E00090838F5F8093B00180918A01882341F0BB
:1018F00085ED8093BC008091BC0084FDFCCF7FC04F
:1019000081E080938B0184EA6EC085ED8093BC00FA
:101910008091BC0084FDFCCF72C083E0809388017D
:101920001092F40159C08091F401803208F056C041
:101930008091F4019091BB00E82FF0E0EC52FE4F53
:1019400090838F5F8093F40147C08091F4018032CF
:1019500030F4E091F401F0E0EC52FE4F108285ED9E
:101960008093BC008091BC0084FDFCCF1092880164
:101970006091F401E0918E01F0918F0184ED91E08E
:1019800070E009951092F4012DC084E080938801E5
:101990001092D2011092D301E0918C01F0918D014F
:1019A00009958091D301882329F481E08093D301A4
:1019B0001092B2019091D201E92FF0E0EE54FE4F67
:1019C00080818093BB009F5F9093D2019091D20160
:1019D0008091D301981710F485EC01C085E88093BD
:1019E000BC000FC085EC8093BC0009C01092F501CB
:1019F00085ED8093BC008091BC0084FDFCCF1092EB
:101A00008801FF91EF91BF91AF919F918F917F914D
:101A10006F915F914F913F912F910F900FBE0F905B
:101A20001F9018951092880181E080938A0110928E
:101A30008B0184E161E00E94430E85E161E00E9438
:101A4000430EE9EBF0E080818E7F808380818D7F83
:101A5000808388E48093B80085E48093BC00089577
:101A60001F920F920FB60F9211242F933F938F93D3
:101A70009F93AF93BF938091FA019091FB01A09146
:101A8000FC01B091FD013091FE010196A11DB11D37
:101A9000232F2D5F2D3720F02D570196A11DB11D4D
:101AA0002093FE018093FA019093FB01A093FC0127
:101AB000B093FD018091F6019091F701A091F8019A
:101AC000B091F9010196A11DB11D8093F60190938B
:101AD000F701A093F801B093F901BF91AF919F91E5
:101AE0008F913F912F910F900FBE0F901F901895DF
:101AF0009FB7F8942091F6013091F7014091F801D9
:101B00005091F90186B5A89B06C08F3F21F02F5F49
:101B10003F4F4F4F5F4F9FBF542F432F322F2227EE
:101B2000280F311D411D511D82E0220F331F441F1C
:101B3000551F8A95D1F7B901CA010895789484B5E3
:101B4000826084BD84B5816084BD85B5826085BDB9
:101B500085B5816085BDEEE6F0E08081816080839F
:101B6000E1E8F0E010828081826080838081816082
:101B70008083E0E8F0E0808181608083E1EBF0E049
:101B8000808184608083E0EBF0E0808181608083ED
:101B9000EAE7F0E0808184608083808182608083D6
:101BA0008081816080838081806880831092C10001
:101BB0000895AF92BF92CF92DF92EF92FF920F9370
:101BC0001F937B018C010E94780D5B016C0120C08A
:101BD0000E94881212C00894E108F1080109110955
:101BE00088EE93E0A0E0B0E0A80EB91ECA1EDB1E8E
:101BF000E114F1040105110559F00E94780D6A19EC
:101C00007B098C099D09685E73408040904018F7FD
:101C1000E114F10401051105D9F61F910F91FF9010
:101C2000EF90DF90CF90BF90AF900895833071F028
:101C3000843028F48130A1F0823021F514C087303F
:101C4000B1F08830D1F08430E9F404C08091800094
:101C50008F7703C0809180008F7D809380000895EE
:101C600084B58F7702C084B58F7D84BD089580913F
:101C7000B0008F778093B00008958091B0008F7D81
:101C80008093B0000895FF920F931F93F62E482F74
:101C900050E0CA0184579E4FFC012491CA01845927
:101CA0009E4FFC011491445B5E4FFA0104910023A6
:101CB000C9F0222319F0822F0E94160EE02FF0E0C7
:101CC000EE0FFF1FE85CFE4FA591B4919FB7F8940B
:101CD000FF2021F48C911095812302C08C91812BDF
:101CE0008C939FBF1F910F91FF900895DC015C962C
:101CF0008C915C97FD01E80FF11DE35EFE4F908132
:101D00005C968C915C978F5F5C968C935C975696F3
:101D1000ED91FC91579790835096ED91FC915197DE
:101D20008081806480835B969C915B975C968C91AC
:101D30005C97981739F45296ED91FC9153978081F6
:101D40008F7D80830895DF92EF92FF920F931F9310
:101D5000CF93DF93EC017A018B01D22EE889F989C8
:101D600082E08083403081EE580780E0680780E0A1
:101D70007807A1F060E079E08DE390E0A801970199
:101D80000E941215215030404040504056954795D2
:101D90003795279580E12030380798F0E889F98950
:101DA000108260E874E88EE190E0A80197010E943B
:101DB0001215215030404040504056954795379578
:101DC0002795EC85FD853083EE85FF852083188E71
:101DD000EC89FD89D082EA89FB89808180618083DA
:101DE000EA89FB89808188608083EA89FB89808118
:101DF00080688083EA89FB8980818F7D8083DF9181
:101E0000CF911F910F91FF90EF90DF900895FC010B
:101E1000218D828D30E020503F4F281B31093070DA
:101E2000C9010895FC01918D828D981719F42FEF47
:101E30003FEF06C0828DE80FF11D858D282F30E021
:101E4000C9010895DC0159969C9159975A968C9135
:101E50005A97981719F42FEF3FEF0FC05A968C91AD
:101E60005A97FD01E80FF11D958D5A968C915A975E
:101E70008F5F5A968C93292F30E0C9010895FC0199
:101E8000938D848D282F30E0492F50E0981718F05B
:101E900021503F4F02C021503040241B350BC90157
:101EA0000895CF93DF93EC01888D882361F419C0E6
:101EB0008C9185FF0AC0E889F989808185FF05C07A
:101EC000CE010E94760EAA89BB898C9185FD05C042
:101ED000E889F989808186FD04C00FB607FEE8CF46
:101EE000F4CFDF91CF9108950F931F93CF93DF939A
:101EF000EC01062F81E0888F9B8D8C8D981779F5EA
:101F0000E889F989808185FF2AC0EE89FF8960838D
:101F1000E889F989808180641AC00FB607FC08C07F
:101F2000E889F989808185FF03C0CE010E94760E81
:101F30008C8D181791F38B8DFE01E80FF11DE35E78
:101F4000FE4F00831B8FEA89FB898081806280833A
:101F500081E090E0DF91CF911F910F9108951B8D4B
:101F60001F5FE6CF87E490E1892B51F080E090E09D
:101F7000892B31F00E944710882311F00E94000045
:101F800080E090E0892B51F080E090E0892B31F0E7
:101F90000E940000882311F00E94000008951F9203
:101FA0000F920FB60F9211242F938F939F93EF935D
:101FB000FF93E0910F02F0911002808182FD15C025
:101FC000E0911502F09116022081909118029F5F16
:101FD00080911902981771F0E0911802F0E0E15039
:101FE000FE4F258F9093180205C0E0911502F091E5
:101FF0001602E081FF91EF919F918F912F910F90A9
:102000000FBE0F901F9018951092020210920102BD
:1020100088EE93E0A0E0B0E0809303029093040286
:10202000A0930502B093060285E291E0909300022E
:102030008093FF0185EC90E090930C0280930B025B
:1020400084EC90E090930E0280930D0280EC90E07F
:102050009093100280930F0281EC90E09093120213
:102060008093110282EC90E090931402809313020B
:1020700086EC90E09093160280931502109218025D
:102080001092190210921A0210921B0208958FEFFB
:1020900091E00E94070F20E0892B09F021E0822FB8
:1020A00008951F920F920FB60F9211242F933F9312
:1020B0004F935F936F937F938F939F93AF93BF9350
:1020C000EF93FF938FEF91E00E94760EFF91EF91D7
:1020D000BF91AF919F918F917F916F915F914F9140
:1020E0003F912F910F900FBE0F901F90189508955C
:1020F000CF93DF930E949E0D0E9477100E94580399
:10210000C2EBDFE00E9402012097E1F30E94B20FD0
:10211000F9CFCF92DF92EF92FF920F931F93CF935D
:10212000DF937C018B016A01C0E0D0E00FC0D701D2
:10213000ED91FC910190F081E02DC701D8016C91E7
:102140000995892B31F00F5F1F4F2196CC16DD06C4
:1021500071F7CE01DF91CF911F910F91FF90EF901A
:10216000DF90CF900895EF92FF920F931F93CF933C
:10217000DF938C017B01C0E0D0E0F701EC0FFD1F85
:102180006491662361F0D801ED91FC910190F0819A
:10219000E02DC8010995892B11F02196EECFCE01D3
:1021A000DF91CF911F910F91FF90EF900895CF9302
:1021B000DF93EC016115710519F420E030E00FC0E8
:1021C000DB010D900020E9F71197A61BB70BE88102
:1021D000F9810280F381E02DAD0109959C01C901CF
:1021E000DF91CF9108953F924F925F926F927F92CD
:1021F0008F929F92AF92BF92CF92DF92EF92FF9217
:102200000F931F93DF93CF93CDB7DEB7A3970FB68E
:10221000F894DEBF0FBECDBF9BA38AA3342E452EFC
:10222000562E672E223008F42AE019A281E2C82E29
:10223000D12CCC0EDD1E822E9924AA24BB24632D22
:10224000742D852D962DA50194010E941215762ED0
:10225000632D742D852D962DA50194010E941215D4
:1022600079018A01D801C701382E492E5A2E6B2ECA
:102270000894C108D10889E087151CF0672D605DBE
:1022800002C0672D695CF6016083E114F104010569
:102290001105A9F68AA19BA1B6010E94D710A396A9
:1022A0000FB6F894DEBF0FBECDBFCF91DF911F9167
:1022B0000F91FF90EF90DF90CF90BF90AF909F90E5
:1022C0008F907F906F905F904F903F900895DC01CA
:1022D0002115310541F4ED91FC910190F081E02D43
:1022E000642F099508950E94F310089560E071E04D
:1022F0000E94D7100895EF92FF920F931F937C01D5
:102300000E94B3108C01C7010E9476119C01200F1E
:10231000311FC9011F910F91FF90EF9008957F9297
:102320008F929F92AF92BF92CF92DF92EF92FF92E5
:102330000F931F93CF93DF934C017A018B01722E81
:10234000CB01BA01A80197010E94E614882321F06D
:10235000C40163E071E021C0C0E0D0E05701680132
:10236000E894D7F8C601B5012FEF3FEF4FE75FE7DD
:102370000E94E614882351F4C601B5012FEF3FEF08
:102380004FE75FE70E94EE12181614F0C1E0D0E0AC
:10239000219739F0C40167E071E00E94D710EC0189
:1023A00095C0C801B7012FEF3FEF4FE75FE40E94F0
:1023B0003D14181654F0C801B7012FEF3FEF4FE757
:1023C0005FEC0E94EE12882324F4C4016BE071E0FC
:1023D000E4CFC801B70120E030E040E050E00E94C7
:1023E000EE1287FD03C0C0E0D0E00EC0D401ED9135
:1023F000FC910190F081E02DC4016DE20995EC01A2
:1024000017FB109517F9109520E030E040E05FE3EE
:10241000DD240BC0CA01B90120E030E040E251E404
:102420000E94F2129B01AC01D394D71498F3C80117
:10243000B7010E948A125B016C010E945F137B014D
:102440008C01C401B801A7012AE030E00E946711A5
:10245000C80FD91F772059F0D401ED91FC9101905C
:10246000F081E02DC4016EE20995C80FD91FC801A3
:10247000B7010E948B139B01AC01C601B5010E94FC
:10248000891222C020E030E040E251E40E94411471
:102490007B018C010E945F135B016C01CC24DD2465
:1024A000C401B601A5012AE030E00E946711C80FFF
:1024B000D91FC601B5010E948B139B01AC01C80155
:1024C000B7010E9489127A947720E1F6CE01DF915C
:1024D000CF911F910F91FF90EF90DF90CF90BF9021
:1024E000AF909F908F907F900895EF92FF920F93FF
:1024F0001F937C010E948F118C01C7010E947611ED
:10250000080F191FC8011F910F91FF90EF900895B8
:1025100008955058BB27AA270ED075C166D130F058
:102520006BD120F031F49F3F11F41EF45BC10EF427
:10253000E095E7FB51C1E92F77D180F3BA17620725
:1025400073078407950718F071F49EF58FC10EF498
:10255000E0950B2EBA2FA02D0B01B90190010C01B3
:10256000CA01A0011124FF27591B99F0593F50F4CB
:10257000503E68F11A16F040A22F232F342F442723
:10258000585FF3CF469537952795A795F04053951B
:10259000C9F77EF41F16BA0B620B730B840BBAF0EB
:1025A0009150A1F0FF0FBB1F661F771F881FC2F756
:1025B0000EC0BA0F621F731F841F48F4879577956A
:1025C0006795B795F7959E3F08F0B3CF9395880F21
:1025D00008F09927EE0F979587950895D9D008F4BC
:1025E00081E008950CD00FC107D140F0FED030F04B
:1025F00021F45F3F19F0F0C0511139C1F3C014D17B
:1026000098F39923C9F35523B1F3951B550BBB27B9
:10261000AA2762177307840738F09F5F5F4F220F66
:10262000331F441FAA1FA9F333D00E2E3AF0E0E85F
:1026300030D091505040E695001CCAF729D0FE2FAB
:1026400027D0660F771F881FBB1F2617370748073D
:10265000AB07B0E809F0BB0B802DBF01FF279358F3
:102660005F4F2AF09E3F510568F0B6C000C15F3F42
:10267000ECF3983EDCF3869577956795B795F795DB
:102680009F5FC9F7880F911D9695879597F90895D3
:10269000E1E0660F771F881FBB1F6217730784076F
:1026A000BA0720F0621B730B840BBA0BEE1F88F77E
:1026B000E095089504D06894B111D9C00895BCD0B4
:1026C00088F09F5790F0B92F9927B751A0F0D1F01B
:1026D000660F771F881F991F1AF0BA95C9F712C0A5
:1026E000B13081F0C3D0B1E00895C0C0672F782F1A
:1026F0008827B85F39F0B93FCCF386957795679511
:10270000B395D9F73EF490958095709561957F4F7C
:102710008F4F9F4F0895E89409C097FB3EF4909522
:102720008095709561957F4F8F4F9F4F9923A9F0AA
:10273000F92F96E9BB279395F69587957795679539
:10274000B795F111F8CFFAF4BB0F11F460FF1BC07D
:102750006F5F7F4F8F4F9F4F16C0882311F096E910
:1027600011C0772321F09EE8872F762F05C06623BE
:1027700071F096E8862F70E060E02AF09A95660F77
:10278000771F881FDAF7880F9695879597F9089530
:10279000990F0008550FAA0BE0E8FEEF1616170672
:1027A000E807F907C0F012161306E407F50798F0DA
:1027B000621B730B840B950B39F40A2661F0232BF3
:1027C000242B252B21F408950A2609F4A140A6956F
:1027D0008FEF811D811D089597F99F6780E870E054
:1027E00060E008959FEF80EC089500240A94161687
:1027F000170618060906089500240A9412161306EF
:10280000140605060895092E0394000C11F488237C
:1028100052F0BB0F40F4BF2B11F460FF04C06F5F98
:102820007F4F8F4F9F4F089557FD9058440F551F6E
:1028300059F05F3F71F04795880F97FB991F61F042
:102840009F3F79F087950895121613061406551FB9
:10285000F2CF4695F1DF08C0161617061806991F25
:10286000F1CF86957105610508940895E894BB271A
:1028700066277727CB0197F908958ADF08F48FEF51
:1028800008950BD0C0CFB1DF28F0B6DF18F0952344
:1028900009F0A2CFA7CF1124EACFC6DFA0F3959FFE
:1028A000D1F3950F50E0551F629FF001729FBB2737
:1028B000F00DB11D639FAA27F00DB11DAA1F649FE3
:1028C0006627B00DA11D661F829F2227B00DA11D96
:1028D000621F739FB00DA11D621F839FA00D611D1C
:1028E000221F749F3327A00D611D231F849F600D3D
:1028F000211D822F762F6A2F11249F5750408AF076
:10290000E1F088234AF0EE0FFF1FBB1F661F771F01
:10291000881F91505040A9F79E3F510570F05CCF41
:10292000A6CF5F3FECF3983EDCF3869577956795ED
:10293000B795F795E7959F5FC1F7FE2B880F911D1F
:102940009695879597F9089511F40EF44BCF42C0F0
:1029500073DFD0F39923D9F3CEF39F57550B87FF3D
:1029600047D00024A0E640EA9001805856959795FC
:1029700028F4805C660F771F881F20F02617370722
:10298000480730F4621B730B840B202931294A2B32
:10299000A69517940794202531254A2758F7660FE6
:1029A000771F881F20F026173707480730F4620B7F
:1029B000730B840B200D311D411DA09581F7B901CA
:1029C000842F9158880F969587950895E1DE880B9E
:1029D000990B08959F3F31F0915020F4879577959A
:1029E0006795B795880F911D9695879597F90895E6
:1029F00091505040660F771F881FD2F7089597FBBC
:102A0000092E07260AD077FD04D02ED006D000204C
:102A10001AF4709561957F4F0895F6F7909581951A
:102A20009F4F0895A1E21A2EAA1BBB1BFD010DC0EA
:102A3000AA1FBB1FEE1FFF1FA217B307E407F5076E
:102A400020F0A21BB30BE40BF50B661F771F881F4A
:102A5000991F1A9469F760957095809590959B01E0
:102A6000AC01BD01CF010895AA1BBB1B51E107C0FA
:102A7000AA1FBB1FA617B70710F0A61BB70B881F0E
:102A8000991F5A95A9F780959095BC01CD0108959D
:102A9000EE0FFF1F0590F491E02D0994F999FECFF8
:102AA00092BD81BDF89A992780B50895262FF9998E
:102AB000FECF1FBA92BD81BD20BD0FB6F894FA9A21
:0C2AC000F99A0FBE01960895F894FFCF1C
:102ACC000D0A006E616E00696E66006F766600001E
:102ADC00000000650A340AE0091C0AED09F6090B2E
:102AEC000A00000000740F89103F0F510F070F22CE
:042AFC000F120F00A6
:00000001FF
