:100000000C9482000C94AA000C94AA000C94AA00F0
:100010000C941E090C9442090C9466090C948A09EC
:100020000C94AA000C94AA000C94AA000C94AA00A8
:100030000C94AA000C94AA000C94AA000C94AA0098
:100040000C94AA000C94AA000C94D30D0C94AA0052
:100050000C94A7100C9431110C94AA000C94AA00D3
:100060000C94AA000C94AA000C94240C0C94AA00E2
:100070000C9457110C94E1110C94AA00000021007B
:10008000240027002A0000002200250028002B0061
:1000900000002000230026002900040404040202BA
:1000A0000202040402020202030303030303030324
:1000B000040401010101010101010102040801021E
:1000C00004084020102040808040201008040201D5
:1000D0001080804020100804020100000000000091
:1000E000000108030200090A0000000000000000EF
:1000F00004070000000000000000D800860BEA1092
:100100009A11D10011241FBECFEFD0E1DEBFCDBFC9
:1001100015E0A0E0B1E0E4E1F0E302C005900D924B
:10012000A435B107D9F71BE0A4E5B5E001C01D92E5
:10013000A13FB107E1F710E0C2E0D1E004C022978F
:10014000FE010E949615CA3FD107C9F70E94180701
:100150000C94FD170C94000081309105A1F46F5FA1
:100160007F4FF1F484E595E066E040E00E94350BB6
:1001700080E795E00E942F088DE196E060E071E055
:100180000E94A2140895892B59F46F5F7F4F41F4A8
:100190008DE196E00E943E1584E595E00E94960A66
:1001A000089580E090E06FEF7FEF0E94AC0008952B
:1001B00081E090E06FEF7FEF0E94AC00089504C0F3
:1001C0008EE899E00E9410108EE899E00E94EC0FF2
:1001D000892BB1F70895EF92FF920F931F93DF934E
:1001E000CF9300D000D000D0CDB7DEB78E010F5F27
:1001F0001F4FC80169E271E00E94A214F02EE12EA7
:1002000009C08EE899E00E941010682F8F2D9E2D56
:100210000E9412148EE899E00E94EC0F181619063D
:1002200084F38FE297E06F2D7E2D0E9437138EE8C6
:1002300099E00E94EC0F182F092F8F2D9E2D0E9400
:100240003E15812F902F26960FB6F894DEBF0FBE75
:10025000CDBFCF91DF911F910F91FF90EF90089547
:10026000AF92BF92CF92DF92EF92FF920F931F93C4
:10027000DF93CF9300D000D000D0CDB7DEB7FC0124
:100280005B017A0169018EE899E0BF010E94311299
:100290000027F7FC0095102FC801B7010E947C0EC3
:1002A00000E010E014C00F5F1F4F83E0083E180706
:1002B00041F48FE297E06AE271E00E944B1310E094
:1002C0004EC06AE070E080E090E00E947C0E8EE814
:1002D00099E00E94EC0F892B31F38E010F5F1F4FC5
:1002E000C80169E271E00E94A214C60169E271E0EE
:1002F0000E94D41424C08EE899E00E941010682F48
:10030000C8010E941214C801B5010E948D138823F0
:10031000B1F0C601B8010E941D1508C08EE899E031
:100320000E941010682FC6010E9412148EE899E0F6
:100330000E94EC0F181619068CF311E00CC08EE821
:1003400099E00E94EC0F18161906ACF2C601B8012C
:100350000E941D1510E0CE0101960E943E15812FCE
:1003600026960FB6F894DEBF0FBECDBFCF91DF91BA
:100370001F910F91FF90EF90DF90CF90BF90AF90C3
:1003800008954F925F926F927F928F929F92AF9259
:10039000BF92CF92DF92EF92FF921F93DF93CF93A2
:1003A000CDB7DEB72C970FB6F894DEBF0FBECDBF2A
:1003B0002C013B014A0159016E010894C11CD11C5A
:1003C00087E0E82EF12CEC0EFD1EC601B2010E9462
:1003D0003415C701B3010E943415C601B701A40149
:1003E00095010E943001182FC7010E943E15C601D9
:1003F0000E943E158FE297E0B5010E9437138EE808
:1004000099E00E9445100E94DF001123F1F22C9622
:100410000FB6F894DEBF0FBECDBFCF91DF911F9115
:10042000FF90EF90DF90CF90BF90AF909F908F9014
:100430007F906F905F904F9008956F927F928F9210
:100440009F92AF92BF92CF92DF92EF92FF920F9363
:100450001F93DF93CF93CDB7DEB7C857D0400FB609
:10046000F894DEBF0FBECDBF782E692E4B015E0122
:100470000894A11CB11CC50169E271E00E94A2149C
:1004800087E0E82EF12CEC0EFD1EC70166E771E057
:100490000E94A2148E01035F1F4FC80162E471E045
:1004A0000E94A214C701B80144EF51E095010E94D7
:1004B0003001C8010E943E15C7010E943E1503E1AC
:1004C000E02EF12CEC0EFD1EC70161E871E00E94E8
:1004D000A2148E01075E1F4FC80162E471E00E9402
:1004E000A214C701B80144EF51E095010E94C10177
:1004F000C8010E943E15C7010E943E151FE1E12E72
:10050000F12CEC0EFD1EC7016EE871E00E94A214F2
:100510008E010B5D1F4FC80162E471E00E94A214BE
:10052000C701B80144EF51E095010E94C101C80123
:100530000E943E15C7010E943E15BBE2EB2EF12C36
:10054000EC0EFD1EC70169E971E00E94A2148E0144
:100550000F5C1F4FC80168EA71E00E94A214C70136
:10056000B80144EF51E095010E943001C8010E949A
:100570003E15C7010E943E15A7E3CA2ED12CCC0E12
:10058000DD1EC60169E271E00E94A2148FE297E0CD
:1005900067EB71E00E944B138E01035C1F4FC80193
:1005A00061ED71E00E94BB14C801B4010E946B149C
:1005B0006BEE71E00E944F14BC01C6010E941D1534
:1005C000C8010E944415C60166EF71E00E9425141F
:1005D000C60160E372E00E942514C60160E572E086
:1005E0000E942514C60166E672E00E9425148E0161
:1005F0000D5B1F4FC80169E772E00E94BB14C80180
:100600006DE176E00E946B1469E872E00E944F147D
:10061000BC01C6010E943514C8010E9444158FE236
:1006200097E0B6010E943112F9E4EF2EF12CEC0EA6
:10063000FD1EC701B6010E9434158E01015B1F4FDC
:10064000C80162E471E00E94A214C701B80144EF3E
:1006500051E095010E943001C8010E943E15C7017A
:100660000E943E15E5E5EE2EF12CEC0EFD1EC701B5
:10067000B6010E9434158E01055A1F4FC80162E46D
:1006800071E00E94A214C701B80144EF51E0950146
:100690000E943001C8010E943E15C7010E943E150C
:1006A00071E6E72EF12CEC0EFD1EC7016DE872E03D
:1006B0000E94A2148E0109591F4FC8016DE972E012
:1006C0000E94A214C701B80144EF51E095010E94B5
:1006D000C101C8010E943E15C7010E943E15872D29
:1006E000962DB5010E943415872D962D60E070E09F
:1006F0004AE850E00E945E130E94EB0018161906AB
:10070000DCF38E0103591F4FC80166E771E00E94B8
:10071000A21463E7E62EF12CEC0EFD1EC70162E485
:1007200071E00E94A214C801B70144EF51E06E01CC
:100730000894C11CD11C96010E94C101C7010E94EE
:100740003E15C8010E943E158FE297E067EA72E00D
:100750000E944B13CE01C7960E943E15C6010E940F
:100760003E15872D962DC858DF4F0FB6F894DEBF83
:100770000FBECDBFCF91DF911F910F91FF90EF90F2
:10078000DF90CF90BF90AF909F908F907F906F90B1
:1007900008958F929F92AF92BF92CF92DF92EF9285
:1007A000FF920F931F93DF93CF93CDB7DEB7CA5558
:1007B000D0400FB6F894DEBF0FBECDBF4C016E0126
:1007C0000894C11CD11CC60169E271E00E94A21408
:1007D0008FE297E068EC72E00E944B1377E0E72E1F
:1007E000F12CEC0EFD1EC70166E771E00E94A21419
:1007F0008E01035F1F4FC80162E471E00E94A214E2
:10080000C701B80144EF51E096010E943001C801D0
:100810000E943E15C7010E943E1563E1E62EF12CB1
:10082000EC0EFD1EC70161E871E00E94A2148E016A
:10083000075E1F4FC80162E471E00E94A214C70165
:10084000B80144EF51E096010E94C101C8010E9425
:100850003E15C7010E943E155FE1E52EF12CEC0E1E
:10086000FD1EC7016EE871E00E94A2148E010B5DAF
:100870001F4FC80162E471E00E94A214C701B801D1
:1008800044EF51E096010E94C101C8010E943E154B
:10089000C7010E943E15F401A480B5804BE2E42E0E
:1008A000F12CEC0EFD1EC7016EED72E00E94A21449
:1008B0008E010F5C1F4FC8016DEE72E00E94A21402
:1008C000C701B80144EF51E096010E943001C80110
:1008D0000E943E15C7010E943E1537E3E32EF12C1E
:1008E000EC0EFD1EC70169E271E00E94A214C7016F
:1008F0006CEF72E00E94D414C70160E572E00E94C0
:1009000025148E01035C1F4FC80169E772E00E9445
:10091000BB14C8016DE176E00E946B1460E273E0E5
:100920000E944F14BC01C7010E943514C8010E94E7
:100930004415C70162E273E00E942514C70162E614
:1009400073E00E94251429E4C22ED12CCC0EDD1EAA
:10095000C60161E873E00E94BB148E010D5B1F4F5E
:10096000C801B5014AE00E94ED14C601B8010E9419
:100970006B1462E973E00E944F14BC01C7010E942E
:100980003514C8010E943E15C6010E944415C701D6
:10099000B4010E9435148FE297E0B7010E94311232
:1009A0008EE899E0B7010E94311268E873E180E0B7
:1009B00090E00E947C0E0E94EB0018161906DCF3F2
:1009C0008E01015B1F4FC80166E771E00E94A2140F
:1009D00095E5E92EF12CEC0EFD1EC70162E471E0F5
:1009E0000E94A214C801B70144EF51E06E010894BF
:1009F000C11CD11C96010E94C101C7010E943E1575
:100A0000C8010E943E158FE297E065E973E00E94FD
:100A10004B13CE01C7960E943E15C6010E943E159B
:100A2000C65ADF4F0FB6F894DEBF0FBECDBFCF91D1
:100A3000DF911F910F91FF90EF90DF90CF90BF90CB
:100A4000AF909F908F900895CF92DF92EF92FF9298
:100A50000F931F93DF93CF93CDB7DEB7C059D0402C
:100A60000FB6F894DEBF0FBECDBFCE01019669E28E
:100A700071E00E94A2148FE297E040E052EC61E046
:100A800070E026E00E94880F05E010E08FE297E01A
:100A9000B8014AE050E00E9418136AEF70E080E06D
:100AA00090E00E947C0E0150104081F78FE297E0A9
:100AB00063EB73E00E944B138FE297E067ED73E006
:100AC0000E944B138CE060E00E94250F8AE061E0F9
:100AD0000E94B90E8AE060E00E94250F64E975E784
:100AE00080E090E00E947C0E8FE297E06FEE73E072
:100AF0000E944B138EE899E040E052EC61E070E018
:100B000026E00E94880F8FE297E06BE074E00E947D
:100B10004B1347E0E42EF12CEC0EFD1EC7016BE1F8
:100B200074E00E94A2148E01035F1F4FC80162E4AB
:100B300071E00E94A214C701B80144E650E06E01C2
:100B40000894C11CD11C96010E94C101C8010E94D9
:100B50003E15C7010E943E1533E1E32EF12CEC0E49
:100B6000FD1EC7016FE174E00E94A2148E01075EB2
:100B70001F4FC80162E471E00E94A214C701B801CE
:100B800044EF51E096010E94C101C8010E943E1548
:100B9000C7010E943E158FE297E065E274E00E9473
:100BA0004B132FE1E22EF12CEC0EFD1EC70164E386
:100BB00074E00E94A2148E010B5D1F4FC80162E415
:100BC00071E00E94A214C701B80144EF51E0960100
:100BD0000E94C101C8010E943E15C7010E943E1536
:100BE0009BE2E92EF12CEC0EFD1EC70162E474E0DD
:100BF0000E94A2148E010F5C1F4FC80162E471E0D5
:100C00000E94A214C701B80144EF51E096010E946E
:100C1000C101C8010E943E15C7010E943E1587E32D
:100C2000E82EF12CEC0EFD1EC7016EE474E00E946C
:100C3000A2148E01035C1F4FC80162E471E00E94A0
:100C4000A214C701B80148EE53E096010E94C10109
:100C5000C8010E943E15C7010E943E158FE297E031
:100C600069E574E00E944B1303E4E02EF12CEC0ED6
:100C7000FD1EC70166E771E00E94A2148E01075BAA
:100C80001F4FC80162E471E00E94A214C701B801BD
:100C900044EF51E096010E943001C8010E943E15C8
:100CA000C7010E943E151FE4E12EF12CEC0EFD1E43
:100CB000C70160E774E00E94A2148E010B5A1F4F17
:100CC000C80162E471E00E94A214C701B80144EFB8
:100CD00051E096010E94C101C8010E943E15C70162
:100CE0000E943E15BBE5EB2EF12CEC0EFD1EC7015C
:100CF0006EE874E00E94A2148E010F591F4FC801C4
:100D000062E471E00E94A214C701B80144EF51E00F
:100D100096010E94C101C8010E943E15C7010E94B0
:100D20003E15A7E6EA2EF12CEC0EFD1EC70163EA84
:100D300074E00E94A2148E0103591F4FC80162E49F
:100D400071E00E94A214C701B80144EF51E096017E
:100D50000E94C101C8010E943E15C7010E943E15B4
:100D600060E177E280E090E00E947C0EF3E7EF2EF6
:100D7000F12CEC0EFD1EC7016AE371E00E94A21483
:100D80008E0107581F4FC80162E471E00E94A2144F
:100D9000C701B80144EF51E096010E94C101C801AA
:100DA0000E943E15C7010E943E15EFE7EE2EF12C82
:100DB000EC0EFD1EC70166ED74E00E94A2148E01C8
:100DC0000B571F4FC80162E471E00E94A214C701D3
:100DD000B80144EF51E096010E94C101C8010E9490
:100DE0003E15C7010E943E158E0105571F4FC801D1
:100DF00069E271E00E94A21460ED77E080E090E08B
:100E00000E947C0EC8010E943E15C6010E943E153C
:100E1000C057DF4F0FB6F894DEBF0FBECDBFCF91E6
:100E2000DF911F910F91FF90EF90DF90CF90089589
:100E3000CF92DF92EF92FF920F931F93DF93CF93A6
:100E4000CDB7DEB7EC970FB6F894DEBF0FBECDBFBF
:100E50000E94410E8CEA96E00E94FE0B8FE297E022
:100E600040E052EC61E070E026E00E94880F8FE2E3
:100E700097E06FED74E00E944B13549A5C9A569A77
:100E80005E9A87E160E00E94250F87E161E00E94A1
:100E9000B90E87E160E00E94250F87E160E00E94C3
:100EA000B90E6E010894C11CD11CC60169E271E043
:100EB0000E94A2140E94240568EC70E080E090E09B
:100EC0000E947C0E8E01095F1F4FC80166EE74E020
:100ED0000E94A214EDE0EE2EF12CEC0EFD1EC701D7
:100EE000B8010E941D02C7010E943E15C8010E9460
:100EF0003E158E010D5E1F4FC8016CEE74E00E941E
:100F0000A214C8010E94C903C8010E943E1560E4F2
:100F10007FE180E090E00E947C0E79E1E72EF12CE9
:100F2000EC0EFD1EC70165EF74E00E94A2148E0155
:100F3000015E1F4FC8016EEF74E00E94A214C7014A
:100F4000B80144EF51E096010E94C101C8010E941E
:100F50003E15C7010E943E158AE060E00E94B90E6E
:100F60008FE297E00E9445108EE899E00E944510BC
:100F700060ED77E080E090E00E947C0E0E94240506
:100F800068EC70E080E090E00E947C0E8E010B5DCA
:100F90001F4FC80166EE74E00E94A2146BE2E62EB9
:100FA000F12CEC0EFD1EC701B8010E941D02C70105
:100FB0000E943E15C8010E943E1560E47FE180E07A
:100FC00090E00E947C0E51E3E52EF12CEC0EFD1E0C
:100FD000C70165EF74E00E94A2148E01095C1F4FE7
:100FE000C8016EEF74E00E94A214C701B80144EF7B
:100FF00051E096010E94C101C8010E943E15C7013F
:101000000E943E158AE060E00E94B90E8FE297E0F0
:101010000E9445108EE899E00E944510FFCFFC0128
:101020001082118213821282148215821682178214
:1010300010861286118613861486158616861786E4
:10104000118A108A128A138A148A158A168A108EB7
:10105000178A118E128E138E148E158E08950F938B
:101060001F938C010E940F08F80112A213A214A270
:1010700015A216A217A210AA11AA12AA13AA14AA9C
:1010800015AA16AE17AE0C5B1F4FF8011082118225
:1010900012821382085F1F4FF80111928F01108294
:1010A0000B5F1F4FF8011082118212821382085FBA
:1010B0001F4FF80111928F0110820B5F1F4FF80133
:1010C0001082118212821382085F1F4FF801119261
:1010D0008F0110820B5F1F4FF80110821182128264
:1010E0001382085F1F4FF80111928F0110820B5F6E
:1010F0001F4FF8011082118212821382085F1F4F66
:10110000F80111928F011082005F1F4F82E0F801F9
:101110008193119211921192119211921192119246
:1011200011921192119211921192119211921192A7
:1011300011921192119211928F01108211821282DA
:10114000138203521040F80110821F910F910895ED
:1011500080E090E008950F931F93CF93DF93FC01FD
:10116000838DA685B7859585082F027081FF05C000
:101170008C91892309F454C004C08C91892309F00F
:101180004FC08389948920E001972FEF8F3F92070A
:10119000D9F7C589D689A685B785758560E031E020
:1011A00040E050E010E0CE01212F01972FEF8F3F5C
:1011B0009207D9F78C91872311F0632B03C0832FFB
:1011C00080956823330F4F5F5F4F4830510559F7C3
:1011D0008789908D20E001972FEF8F3F9207D9F7F5
:1011E00001116095809165062091660690E0019658
:1011F0008F73907030E08217930779F0E091650665
:10120000F0E0EB5DF94F60838091650690E0019618
:101210008F7390708093650603C0838D8160838F88
:10122000DF91CF911F910F910895809123069091A6
:101230002406009711F00E94AB0808951F920F92A8
:101240000FB60F9211242F933F934F935F936F9399
:101250007F938F939F93AF93BF93EF93FF930E94DE
:101260001509FF91EF91BF91AF919F918F917F9160
:101270006F915F914F913F912F910F900FBE0F9003
:101280001F9018951F920F920FB60F9211242F9353
:101290003F934F935F936F937F938F939F93AF93FE
:1012A000BF93EF93FF930E941509FF91EF91BF91B8
:1012B000AF919F918F917F916F915F914F913F91EE
:1012C0002F910F900FBE0F901F9018951F920F92A5
:1012D0000FB60F9211242F933F934F935F936F9309
:1012E0007F938F939F93AF93BF93EF93FF930E944E
:1012F0001509FF91EF91BF91AF919F918F917F91D0
:101300006F915F914F913F912F910F900FBE0F9072
:101310001F9018951F920F920FB60F9211242F93C2
:101320003F934F935F936F937F938F939F93AF936D
:10133000BF93EF93FF930E941509FF91EF91BF9127
:10134000AF919F918F917F916F915F914F913F915D
:101350002F910F900FBE0F901F901895FC01848560
:10136000803208F0E2C0882309F471C0813009F4AA
:101370006EC0823009F46BC0833009F4CAC0843077
:1013800009F4CAC0853009F4C7C0863009F4C4C066
:10139000873009F4C1C0883009F4BBC0893009F432
:1013A000B8C08A3009F4B8C08B3009F4B5C08C30AD
:1013B00009F4B2C08D3009F4AFC08E3009F4AFC06B
:1013C0008F3009F4ACC0803109F4A9C0813109F42F
:1013D000A6C0823109F4A3C0833109F4A0C08431CE
:1013E00009F49DC0853109F49AC0863109F491C091
:1013F000873109F08BC08DC0843089F1853079F157
:10140000863069F1873059F1883031F1893021F126
:101410008A3029F18B3019F18C3009F18D30F9F0D7
:101420008E3001F18F30F1F08031E1F08131D1F077
:101430008231C1F08331B1F08431A1F0853191F076
:10144000863151F0873141F0EBE6F0E00DC0E3E783
:10145000F0E0A3E7B0E008C0E3E7F0E005C0ECE6A9
:10146000F0E002C0EDE6F0E09081882309F440C08E
:101470008130E1F18230F1F18330F1F18430C1F15A
:101480008530A1F18630B1F18730B1F18830B1F10A
:101490008930B1F18A30B1F18B3091F18C3071F13A
:1014A0008D30B1F08E30A1F08F3041F1803141F1BB
:1014B000813141F1823101F18331E1F08431B1F0C8
:1014C0008531B1F08631F1F0873111F0883111F4B6
:1014D0008FE719C0893191F08A3191F08B3191F009
:1014E0008C3151F08D3131F08E3111F48DEF0BC014
:1014F0008EEF09C08BEF07C087EF05C08FEB03C0ED
:101500008FED01C08FEE89238C930895ABE6B0E098
:1015100008C0A3E7B0E005C0ACE6B0E002C0ADE6AD
:10152000B0E0833009F068CF97CF0895FC0181E2E5
:1015300095E091838083CF010E94AE0908952091A8
:101540002306309124062817390731F49091660656
:1015500080916506981719F42FEF3FEF0FC0E091C7
:101560006606F0E0EB5DF94F20818091660690E021
:1015700001968F7390708093660630E0C9010895DC
:1015800020912306309124062817390719F020E00E
:1015900030E00EC0809165062091660690E0805C88
:1015A0009F4F821B910960E470E00E944B159C01E3
:1015B000C901089580E090E00895209123063091BC
:1015C00024062817390749F49FB7F8941092650646
:1015D00080916506809366069FBF0895209123063B
:1015E000309124062817390731F4909166068091CE
:1015F0006506981719F42FEF3FEF0AC0E0916606D1
:10160000F0E0EB5DF94F8081282F332727FD3095DF
:10161000C90108951F93CF93DF93EC01162F862FF6
:1016200060E00E94B90E8B8D81FD04C0812F61E0C6
:101630000E94250F1C87212F30E0C90186549F4F3F
:10164000FC0184918D8726563F4FF9016491E62F66
:10165000F0E0EE0FFF1FE057FF4F859194919F87B9
:101660008E87DF91CF911F910895FC011382128222
:1016700088EE93E0A0E0B0E084839583A683B783EF
:1016800081E295E091838083148A138A168A158AF1
:10169000108E178A128E118E838D4170440F8C7FAD
:1016A000842B838FCF010E940A0B08952091880616
:1016B00030E080918706281B3109C90108954091C7
:1016C000870680918806481718F02FEF3FEF0AC071
:1016D000E42FF0E0E959F94F8081282F30E04F5F87
:1016E00040938706C9010895E09187068091880696
:1016F000E81718F0EFEFFFEF06C0F0E0E959F94FF7
:101700008081E82FF0E0CF01089508951092AF0690
:101710001092AE0688EE93E0A0E0B0E08093B006B1
:101720009093B106A093B206B093B30683E395E01D
:101730009093AD068093AC060895CF92DF92EF921E
:10174000FF920F931F93CF93DF937C016B018A016C
:101750008091AB068823A1F0C0E0D0E00DC0D70196
:10176000ED91FC91D601AC0FBD1F0190F081E02DF1
:10177000C7016C9109952196C017D10780F304C069
:10178000CB01642F0E94090CC801DF91CF911F91FA
:101790000F91FF90EF90DF90CF900895DF93CF935C
:1017A0000F92CDB7DEB7FC0169838091AB06882329
:1017B000C9F08091AA06803238F081E090E09383EE
:1017C000828320E030E015C08091A906E82FF0E088
:1017D000E757F94F998190838F5F8093A906809393
:1017E000AA0605C0CE01019661E00E94090C21E025
:1017F00030E0C9010F90CF91DF91089510928706D4
:10180000109288061092A9061092AA060E94B50DA1
:101810000895482F613210F081E008958091B80654
:10182000843011F082E0089560930307A2EEB6E0E1
:10183000842F9C01F90102C081918D938E2F841B0E
:101840008617D0F380E008951F920F920FB60F9283
:1018500011242F933F934F935F936F937F938F93B5
:101860009F93AF93BF93EF93FF938091B90090E064
:10187000887F90708036910509F4F2C08136910519
:10188000CCF58832910509F47BC089329105B4F416
:101890008031910509F46FC0813191053CF40097C6
:1018A00009F447C1089709F04FC165C08831910517
:1018B00009F466C0809709F047C182C08034910561
:1018C00009F4A4C08134910544F48033910509F4EE
:1018D00082C0C89709F038C189C08035910509F4E4
:1018E00089C08835910509F496C08834910509F0BE
:1018F0002BC1AEC08839910509F413C1893991050E
:10190000ECF48837910509F4ABC0893791054CF4A4
:101910008836910509F4A4C08037910509F014C1F7
:101920009FC08838910509F4FCC08039910509F4FD
:101930009DC08038910509F007C198C0803B910592
:1019400009F4C6C0813B91054CF4803A910509F435
:101950009FC0883A910509F0F7C0BAC0803C910554
:1019600009F4E3C0883C910509F4DFC0883B910588
:1019700009F0EAC0C2C08091B9068093BB00CFC015
:101980009091E0068091E106981768F49091E00646
:10199000E92FF0E0E054F94F80818093BB009F5F16
:1019A0009093E006BCC08091BA06882309F44BC02E
:1019B00085ED8093BC008091BC0084FDFCCFC2C04B
:1019C00080E28093250785ED8093BC008091BC0068
:1019D00084FDFCCFB7C080E38093250785ED80931D
:1019E000BC008091BC0084FDFCCFACC088E3809338
:1019F00025079BC08091E0069091BB00E82FF0E0A6
:101A0000E054F94F90838F5F8093E0069091E00659
:101A10008091E10682C08091E0069091BB00E82FA2
:101A2000F0E0E054F94F90838F5F8093E00680915F
:101A3000BA06882341F085ED8093BC008091BC00FC
:101A400084FDFCCF7FC081E08093BB0684EA6EC03A
:101A500085ED8093BC008091BC0084FDFCCF72C0FA
:101A600083E08093B8061092240759C08091240720
:101A7000803208F056C0809124079091BB00E82F77
:101A8000F0E0EC5FF84F90838F5F8093240747C0AE
:101A900080912407803230F4E0912407F0E0EC5F7D
:101AA000F84F108285ED8093BC008091BC0084FDCE
:101AB000FCCF1092B80660912407E091BE06F09129
:101AC000BF0684E097E070E00995109224072DC0CE
:101AD00084E08093B8061092020710920307E09109
:101AE000BC06F091BD06099580910307882329F46F
:101AF00081E0809303071092E20690910207E92F9C
:101B0000F0E0EE51F94F80818093BB009F5F90938E
:101B100002079091020780910307981710F485EC53
:101B200001C085E88093BC000FC085EC8093BC00A9
:101B300009C01092250785ED8093BC008091BC0000
:101B400084FDFCCF1092B806FF91EF91BF91AF9149
:101B50009F918F917F916F915F914F913F912F91C5
:101B60000F900FBE0F901F9018951092B80681E04D
:101B70008093BA061092BB0684E161E00E94250FB3
:101B800085E161E00E94250FE9EBF0E080818E7F26
:101B9000808380818D7F808388E48093B80085E492
:101BA0008093BC0008951F920F920FB60F921124DC
:101BB0002F933F938F939F93AF93BF9380912A0767
:101BC00090912B07A0912C07B0912D0730912E07F3
:101BD0000196A11DB11D232F2D5F2D3720F02D570C
:101BE0000196A11DB11D20932E0780932A07909383
:101BF0002B07A0932C07B0932D0780912607909177
:101C00002707A0912807B09129070196A11DB11DB2
:101C10008093260790932707A0932807B09329075E
:101C2000BF91AF919F918F913F912F910F900FBED8
:101C30000F901F9018959FB7F89420912607309128
:101C40002707409128075091290786B5A89B06C011
:101C50008F3F21F02F5F3F4F4F4F5F4F9FBF542F5C
:101C6000432F322F2227280F311D411D511D82E0A5
:101C7000220F331F441F551F8A95D1F7B901CA019E
:101C80000895789484B5826084BD84B5816084BDF4
:101C900085B5826085BD85B5816085BDEEE6F0E0E5
:101CA000808181608083E1E8F0E010828081826041
:101CB0008083808181608083E0E8F0E080818160C2
:101CC0008083E1EBF0E0808184608083E0EBF0E0F2
:101CD000808181608083EAE7F0E080818460808396
:101CE0008081826080838081816080838081806840
:101CF00080831092C1000895AF92BF92CF92DF927D
:101D0000EF92FF920F931F937B018C010E941B0E99
:101D10005B016C0120C00E944A1512C00894E108C2
:101D2000F1080109110988EE93E0A0E0B0E0A80EE7
:101D3000B91ECA1EDB1EE114F1040105110559F09C
:101D40000E941B0E6A197B098C099D09685E73400D
:101D50008040904018F7E114F10401051105D9F60F
:101D60001F910F91FF90EF90DF90CF90BF90AF90B9
:101D70000895CF93DF93482F50E0CA0186549F4FB8
:101D8000FC01349146565F4FFA018491882369F132
:101D900090E0880F991FFC01E458FF4FA591B49182
:101DA000FC01EA57FF4FC591D491662351F42FB738
:101DB000F8948C91932F909589238C938881892313
:101DC0000BC0623061F42FB7F8948C91932F9095EB
:101DD00089238C938881832B88832FBF06C09FB76C
:101DE000F8948C91832B8C939FBFDF91CF910895B2
:101DF000833071F0843028F48130A1F0823021F5F5
:101E000014C08730B1F08830D1F08430E9F404C0D8
:101E1000809180008F7703C0809180008F7D8093B8
:101E20008000089584B58F7702C084B58F7D84BD0E
:101E300008958091B0008F778093B00008958091CD
:101E4000B0008F7D8093B0000895FF920F931F9391
:101E5000F62E482F50E0CA0186529F4FFC01249174
:101E6000CA0186549F4FFC01149146565F4FFA01F8
:101E700004910023C9F0222319F0822F0E94F80E4A
:101E8000E02FF0E0EE0FFF1FEA57FF4FA591B4914E
:101E90009FB7F894FF2021F48C911095812302C004
:101EA0008C91812B8C939FBF1F910F91FF90089570
:101EB000DC015E968C915E97FD01E80FF11DE15EFD
:101EC000FD4F20815E968C915E9790E001968F7316
:101ED00090705E968C935E975696ED91FC91579715
:101EE00020835096ED91FC9151978081806480838E
:101EF0005D969C915D975E968C915E97981739F4EC
:101F00005296ED91FC91539780818F7D8083089547
:101F1000DF92EF92FF920F931F93CF93DF93EC0129
:101F20007A018B01D22EE889F98982E080834030E2
:101F300081EE580780E0680780E07807A1F060E054
:101F400079E08DE390E0A80197010E945E15215091
:101F5000304040405040569547953795279580E151
:101F60002030380798F0E889F989108260E874E831
:101F70008EE190E0A80197010E945E15215030404B
:101F8000404050405695479537952795EC85FD85FF
:101F90003083EE85FF852083188EEC89FD89D08201
:101FA000EA89FB89808180618083EA89FB8980815D
:101FB00088608083EA89FB89808180688083EA89E0
:101FC000FB8980818F7D8083DF91CF911F910F915D
:101FD000FF90EF90DF900895FC01218D328D838D6D
:101FE000948D281B390B3170C9010895DC01599675
:101FF0002D913C915A975B968D919C915C972817F7
:10200000390719F42FEF3FEF09C05B96ED91FC9172
:102010005C97EA0FFB1F878D282F30E0C9010895D8
:10202000DC0159962D913C915A975B968D919C912C
:102030005C972817390719F42FEF3FEF12C05B9612
:10204000ED91FC915C97EA0FFB1F278D5B968D91BC
:102050009C915C97019691705C969C938E935B9794
:1020600030E0C9010895FC01958D868D282F30E060
:10207000492F50E0981718F0215C3F4F02C02150C3
:102080003040241B350BC9010895CF93DF93EC0139
:10209000888D882361F419C08C9185FF0AC0E88976
:1020A000F989808185FF05C0CE010E94580FAA8959
:1020B000BB898C9185FD05C0E889F989808186FD01
:1020C00004C00FB607FEE8CFF4CFDF91CF9108959B
:1020D0000F931F93CF93DF93EC01062F81E0888F3E
:1020E0009D8D8E8D981779F5E889F989808185FF16
:1020F0002AC0EE89FF896083E889F989808180643C
:102100001AC00FB607FC08C0E889F989808185FFED
:1021100003C0CE010E94580F8E8D181791F38D8D3C
:10212000FE01E80FF11DE15EFD4F00831D8FEA897E
:10213000FB8980818062808381E090E0DF91CF9194
:102140001F910F9108951D8D1F5F1F73E5CF1F9283
:102150000F920FB60F9211242F933F934F938F93AB
:102160009F93EF93FF93E0913F07F09140078081A9
:1021700082FD1FC0E0914507F09146074081209104
:102180004807309149072F5F3F4F317080914A07D0
:1021900090914B072817390789F0E0914807F09193
:1021A0004907E15DF84F478F30934907209348076F
:1021B00005C0E0914507F0914607E081FF91EF915E
:1021C0009F918F914F913F912F910F900FBE0F9044
:1021D0001F901895109232071092310788EE93E005
:1021E000A0E0B0E08093330790933407A0933507C5
:1021F000B093360785E495E09093300780932F07DE
:1022000085EC90E090933C0780933B0784EC90E052
:1022100090933E0780933D0780EC90E090934007B9
:1022200080933F0781EC90E09093420780934107B1
:1022300082EC90E0909344078093430786EC90E013
:1022400090934607809345071092490710924807DC
:1022500010924B0710924A0710924C0710924D07AC
:1022600008951F920F920FB60F9211242F933F9350
:102270004F935F936F937F938F939F93AF93BF938E
:10228000EF93FF938FE297E00E94580FFF91EF9139
:10229000BF91AF919F918F917F916F915F914F917E
:1022A0003F912F910F900FBE0F901F9018951F9286
:1022B0000F920FB60F9211242F933F934F938F934A
:1022C0009F93EF93FF93E0919E09F0919F09808186
:1022D00082FD1FC0E091A409F091A50940812091E1
:1022E000A7093091A8092F5F3F4F31708091A9094C
:1022F0009091AA092817390789F0E091A709F09170
:10230000A809E257F64F478F3093A8092093A709F1
:1023100005C0E091A409F091A509E081FF91EF913A
:102320009F918F914F913F912F910F900FBE0F90E2
:102330001F901895109291091092900988EE93E0E1
:10234000A0E0B0E08093920990939309A093940940
:10235000B093950985E495E090938F0980938E0959
:102360008DEC90E090939B0980939A098CEC90E01F
:1023700090939D0980939C0988EC90E090939F092D
:1023800080939E0989EC90E09093A1098093A00925
:102390008AEC90E09093A3098093A2098EEC90E0E0
:1023A0009093A5098093A4091092A8091092A709F7
:1023B0001092AA091092A9091092AB091092AC09C7
:1023C00008951F920F920FB60F9211242F933F93EF
:1023D0004F935F936F937F938F939F93AF93BF932D
:1023E000EF93FF938EE899E00E94580FFF91EF91D1
:1023F000BF91AF919F918F917F916F915F914F911D
:102400003F912F910F900FBE0F901F901895CF9274
:10241000DF92EF92FF920F931F93CF93DF937C0194
:102420008B016A01C0E0D0E00FC0D701ED91FC91B3
:102430000190F081E02DC701D8016C910995892B9D
:1024400031F00F5F1F4F2196CC16DD0671F7CE01DC
:10245000DF91CF911F910F91FF90EF90DF90CF9080
:102460000895CF93DF93FB01EC01A881B9816081CE
:102470007181448155811296ED91FC9113970995D4
:10248000DF91CF910895CF93DF93EC016115710532
:1024900019F420E030E00FC0DB010D900020E9F7D7
:1024A0001197A61BB70BE881F9810280F381E02D1B
:1024B000AD0109959C01C901DF91CF9108953F922B
:1024C0004F925F926F927F928F929F92AF92BF9244
:1024D000CF92DF92EF92FF920F931F93DF93CF93F0
:1024E000CDB7DEB7A3970FB6F894DEBF0FBECDBF52
:1024F0009BA38AA3342E452E562E672E223008F435
:102500002AE019A281E2C82ED12CCC0EDD1E822E2B
:102510009924AA24BB24632D742D852D962DA50105
:1025200094010E945E15762E632D742D852D962DB7
:10253000A50194010E945E1579018A01D801C701A5
:10254000382E492E5A2E6B2E0894C108D10889E0E6
:1025500087151CF0672D605D02C0672D695CF60170
:102560006083E114F10401051105A9F68AA19BA17C
:10257000B6010E944312A3960FB6F894DEBF0FBEB9
:10258000CDBFCF91DF911F910F91FF90EF90DF9022
:10259000CF90BF90AF909F908F907F906F905F9003
:1025A0004F903F900895CF92DF92EF92FF920F935A
:1025B0001F93CF93DF93EC016A017B012115310555
:1025C00041F4E881F9810190F081E02D642F0995B3
:1025D0001FC02A303105D1F477FF17C0E881F98197
:1025E0000190F081E02D6DE209958C01442755277B
:1025F000BA014C195D096E097F09CE012AE00E94DB
:102600005F129801280F391F04C02AE00E945F1250
:102610009C01C901DF91CF911F910F91FF90EF9025
:10262000DF90CF90089568E075E00E94431208950E
:10263000CF92DF92EF92FF920F931F936C017B0179
:102640009A010027F7FC0095102FB801A7010E94FE
:10265000D3128C01C6010E941313080F191FC80161
:102660001F910F91FF90EF90DF90CF900895EF9220
:10267000FF920F931F937C010E9431128C01C701BE
:102680000E9413139C01200F311FC9011F910F914C
:10269000FF90EF900895EF92FF920F931F937C01AC
:1026A0000E9443128C01C7010E941313080F191FC7
:1026B000C8011F910F91FF90EF900895CF93DF9382
:1026C000EC01FB018C819D816817790718F5411594
:1026D000510501F19C01261B370B4217530708F4E3
:1026E0009A0168817981AC01421B530B5D834C8355
:1026F0002E0F3F1F4E1B5F0BCB018E0F9F1F620FD4
:10270000731F0E948617E881F9818C819D81E80FF3
:10271000F91F1082DF91CF910895FC01DB01248124
:10272000358114964D915C91159724173507A8F0C3
:1027300080819181009789F06D917C91611571057F
:1027400061F0241B350B820F931F0E9476179C01AA
:1027500080E0232B19F481E0089580E008950F9321
:102760001F93CF93DF93EC018B016F5F7F4F8881C5
:1027700099810E949F16009711F480E005C099830B
:1027800088831B830A8381E0DF91CF911F910F9192
:102790000895CF93DF93EC0188819981892B29F0EB
:1027A0008A819B818617970760F4CE010E94AF1340
:1027B000882341F08C819D81892B19F4E881F9816E
:1027C000108281E0DF91CF910895EF92FF920F93F5
:1027D0001F93CF93DF93EC017B016C817D81E1142A
:1027E000F104C1F04115510599F08A01060F171F38
:1027F000B8010E94C913882369F0888199812C81CE
:102800003D81820F931FB7010E947F171D830C83A8
:1028100081E001C080E0DF91CF911F910F91FF9087
:10282000EF900895DF93CF9300D0CDB7DEB76983E3
:102830001A82BE016F5F7F4F41E050E00E94E513B6
:102840000F900F90CF91DF9108956115710511F4EC
:1028500080E00895DB010D900020E9F71197A61B99
:10286000B70BAD010E94E5130895FB0160817181F2
:10287000448155810E94E5130895CF93DF93EC01C5
:1028800088819981009711F00E9447161982188259
:102890001D821C821B821A82DF91CF9108950F93B3
:1028A0001F93182F092F6115710561F0DB010D9041
:1028B0000020E9F71197A61BB70BAD010E94E513A5
:1028C000882321F4812F902F0E943D14812F902F77
:1028D0001F910F9108950F931F93182F092FFB013C
:1028E00060817181448155810E94E513882321F420
:1028F000812F902F0E943D14812F902F1F910F91B7
:102900000895EF92FF920F931F93CF93DF93EC0103
:102910007B018A01BA010E94C913882321F4CE01E8
:102920000E943D1407C01D830C8388819981B701E3
:102930000E947F17CE01DF91CF911F910F91FF90E1
:10294000EF900895CF93DF93EC01198218821B82D8
:102950001A821D821C826115710551F0DB010D90F8
:102960000020E9F71197A61BB70BAD010E94811457
:10297000DF91CF910895CF93DF93EC0119821882F4
:102980001B821A821D821C826115710551F0DB01C8
:102990000D900020E9F71197A61BB70BAD010E941F
:1029A0008114DF91CF9108950F931F93182F092F52
:1029B0006115710559F0DB010D900020E9F71197C1
:1029C000A61BB70BAD010E94811402C00E943D14EA
:1029D000812F902F1F910F910895EF92FF920F93E7
:1029E0001F93DF93CF93CDB7DEB762970FB6F894FE
:1029F000DEBF0FBECDBF8C01CB01F801118210826A
:102A000013821282158214827E010894E11CF11C4B
:102A1000B70150E00E949517C801B7010E94D41475
:102A200062960FB6F894DEBF0FBECDBFCF91DF9197
:102A30001F910F91FF90EF900895CF93DF93EC01DA
:102A4000FB018617970761F060817181611571053F
:102A500029F0448155810E94811402C00E943D14D6
:102A6000CE01DF91CF910895FC0111821082138273
:102A70001282158214820E941D150895FC01808126
:102A800091810E9447160895FC01808191810E94E6
:102A900047160895089597FB092E07260AD077FD5B
:102AA00004D02ED006D000201AF4709561957F4F87
:102AB0000895F6F7909581959F4F0895A1E21A2EFB
:102AC000AA1BBB1BFD010DC0AA1FBB1FEE1FFF1FD2
:102AD000A217B307E407F50720F0A21BB30BE40B22
:102AE000F50B661F771F881F991F1A9469F7609569
:102AF0007095809590959B01AC01BD01CF01089523
:102B0000AA1BBB1B51E107C0AA1FBB1FA617B70713
:102B100010F0A61BB70B881F991F5A95A9F780952F
:102B20009095BC01CD010895EE0FFF1F0590F49123
:102B3000E02D0994CF93DF93BC018230910510F40E
:102B400062E070E0A091EF0BB091F00BED01E0E0DE
:102B5000F0E040E050E021C0888199818617970716
:102B600069F48A819B81309719F09383828304C032
:102B70009093F00B8093EF0BFE0134C06817790738
:102B800038F44115510519F08417950708F4AC0184
:102B9000FE018A819B819C01E9012097E9F641159C
:102BA0005105A9F1CA01861B970B049708F4BA01D5
:102BB000E0E0F0E02AC08D919C9111978417950771
:102BC000F9F46417750781F412968D919C9113970F
:102BD000309719F09383828304C09093F00B809315
:102BE000EF0BFD0132964FC0CA01861B970BFD010A
:102BF000E80FF91F6193719302978D939C9343C0E3
:102C0000FD01828193819C01D9011097A1F68091E9
:102C1000ED0B9091EE0B892B41F480911905909169
:102C20001A059093EE0B8093ED0B40911B0550918C
:102C30001C054115510541F44DB75EB7809117054C
:102C400090911805481B590B2091ED0B3091EE0B1C
:102C500024173507B0F4CA01821B930B8617970718
:102C600080F0AB014E5F5F4F8417950750F0420F25
:102C7000531F5093EE0B4093ED0BF9016193719349
:102C800002C0E0E0F0E0CF01DF91CF910895CF9353
:102C9000DF93009709F450C0EC0122971B821A823F
:102CA000A091EF0BB091F00B109709F140E050E0CC
:102CB000AC17BD0708F1BB83AA83FE0121913191B6
:102CC000E20FF31FAE17BF0779F48D919C91119716
:102CD000280F391F2E5F3F4F3983288312968D911D
:102CE0009C9113979B838A834115510571F4D0936E
:102CF000F00BC093EF0B20C012968D919C9113970F
:102D0000AD01009711F0DC01D3CFFA01D383C28368
:102D100021913191E20FF31FCE17DF0769F488810B
:102D20009981280F391F2E5F3F4FFA01318320838D
:102D30008A819B8193838283DF91CF910895A0E064
:102D4000B0E0E5EAF6E10C94CC178C01009729F489
:102D5000CB010E949A158C01BAC09EEFE92E9FEF1D
:102D6000F92EE00EF11E5801A60EB71EAE14BF04D8
:102D700008F4ABC08EEF882E8FEF982E8A0C9B1C28
:102D8000E7014881598146175707B8F0453051058A
:102D900008F49DC0CA0104978617970708F497C0E6
:102DA00042505040461B570BF401518340837983B6
:102DB0006883C5010E9447168AC06B01C41AD50AF0
:102DC000E091EF0BF091F00BA0E0B0E0C0E0D0E0BC
:102DD00042C0E815F905A1F5208131812C153D058A
:102DE00078F1C90102968C159D05A8F04E5F5F4FE2
:102DF000420F531FE7015983488322813381109783
:102E000029F013963C932E93129761C03093F00BE8
:102E10002093EF0B5CC0225030402C193D093183C8
:102E20002083109729F01396FC93EE93129704C019
:102E3000F093F00BE093EF0BF7017183608347C0D1
:102E400080819181C817D90708F4EC01DF018281E4
:102E500093819C01F901309709F0BBCF400F511FBE
:102E60008091ED0B9091EE0B84179507E9F4C6174E
:102E7000D707D0F420911B0530911C052115310591
:102E800041F42DB73EB78091170590911805281B86
:102E9000390BA216B306C8F4B092EE0BA092ED0B5C
:102EA000E7017983688313C0CB010E949A15EC0176
:102EB000009759F0F70140815181B8010E946D17C8
:102EC000C8010E9447168E0102C000E010E0C80150
:102ED000CDB7DEB7ECE00C94E817FB01DC0102C0D3
:102EE00001900D9241505040D8F70895FB01DC014C
:102EF0008D91019080190110D9F3990B0895FB0170
:102F0000DC0101900D920020E1F70895FB01DC0146
:102F10004150504048F001900D920020C9F701C087
:102F20001D9241505040E0F70895FB019F01E89445
:102F30004230C4F04532B4F44A3029F497FB1EF411
:102F4000909581959F4F642F77270E948015805D13
:102F50008A330CF0895D8193CB010097A1F716F4B9
:102F60005DE251931082C9010C94B617DC01FC019B
:102F7000672F71917723E1F7329704C07C916D93AD
:102F800070836291AE17BF07C8F308952F923F92E6
:102F90004F925F926F927F928F929F92AF92BF9269
:102FA000CF92DF92EF92FF920F931F93CF93DF9315
:102FB000CDB7DEB7CA1BDB0B0FB6F894DEBF0FBE72
:102FC000CDBF09942A88398848885F846E847D84BF
:102FD0008C849B84AA84B984C884DF80EE80FD80C1
:102FE0000C811B81AA81B981CE0FD11D0FB6F89437
:102FF000DEBF0FBECDBFED01089511E0C2E0D1E00C
:1030000004C0FE010E9496152296C430D107C9F76C
:04301000F894FFCF62
:1030140030613261373065373036396630343831B3
:1030240066623233626333613732626135633961B8
:1030340035656461643461330000636F6D6D616E86
:10304400642074696D656F75740041542B4353514A
:103054000D004F4B0020283020626172732900203C
:103064002831206261722900202832206261727343
:10307400290020283320626172732900202834201B
:1030840062617273290041545E534953433D300DCC
:103094000041545E534943413D312C330D004154AA
:1030A4005E5349534F3D300D0041545E53495357CD
:1030B4003D302C3235300D005E534953573A2030A1
:1030C4002C3235302C300047657474696E67206487
:1030D4006174612066726F6D2065786F73697465C1
:1030E40000474554202F6F6E65703A76312F737404
:1030F40061636B2F616C6961733F002048545450C5
:103104002F312E310A004163636570743A20617077
:10311400706C69636174696F6E2F782D7777772D82
:10312400666F726D2D75726C656E636F6465643B5A
:1031340020636861727365743D7574662D380A0086
:103144004163636570742D456E636F64696E673A9D
:1031540020677A69702C206465666C6174650A0066
:10316400486F73743A206D322E65786F7369746595
:103174002E636F6D0A00436F6E6E656374696F6EC4
:103184003A20436C6F73650A00582D45786F736954
:1031940074652D43494B3A20000A0A0A0041545EE3
:1031A400534953523D302C313030300D005E534979
:1031B40053523A20302C000A496E666F726D617466
:1031C400696F6E2074616B656E2066726F6D206529
:1031D400786F736974652E0053657474696E672023
:1031E400757020636F6E6E656374696F6E00415411
:1031F4005E534953573D302C3337350D005E5349E8
:1032040053573A20302C3337352C3000504F535419
:10321400202F6F6E65703A76312F737461636B2F54
:10322400616C69617320485454502F312E310A0067
:103234000A00436F6E74656E742D547970653A207C
:103244006170706C69636174696F6E2F782D777724
:10325400772D666F726D2D75726C656E636F646524
:10326400643B20636861727365743D7574662D38C0
:103274000A004163636570743A206170706C69631D
:103284006174696F6E2F7868746D6C2B786D6C0A3D
:1032940000436F6E74656E742D4C656E6774683A86
:1032A40020000A0A000A496E666F726D6174696FC4
:1032B4006E2073656E7420746F2065786F73697403
:1032C400652E00536F636B6574204469616C2054F0
:1032D4006F2053656E64206461746120746F2045AF
:1032E400786F73697465005374617274696E6720D2
:1032F40043656C6C756C6172204D6F64656D00493B
:103304006E697469616C697A696E67206D6F646552
:103314006D20434F4D20706F727400546573742098
:10332400415420636F6D6D616E640041540D004122
:103334005445310D005265736574696E67206D6F75
:1033440064656D0041542B534F46545245534554C4
:103354000D0041542B43455245473D300D00415427
:103364002B434D45453D320D0053657474696E67BA
:103374002075702050445020636F6E74657874001B
:1033840041545E534953533D302C22737276547921
:103394007065222C22536F636B6574220D004154B7
:1033A4005E534953533D302C22636F6E4964222C83
:1033B400330D0041545E534953533D302C22616414
:1033C4006472657373222C22736F636B7463703A37
:1033D4002F2F6D322E65786F736974652E636F6D50
:1033E4003A3830220D0041542B43474D520D0042D0
:1033F4006567696E2100667265716500636F6E644E
:103404003D3130300041545E534D534F0D005E53F7
:10341400485554444F574E000D0A006E616E0069C2
:103424006E66006F7666002000F10B00000000005D
:1034340000DA0A0712A808DD0AC00A9F0AEE0A0089
:10344400000000CE0B9D0BA808850B560B5F0B7478
:103454000B000000006810071233104510EC0F1029
:0434640010F60F004F
:00000001FF
