:100000000C94FC000C9424010C9424010C94240105
:100010000C94B9050C94DD050C9401060C9425068E
:100020000C943C010C9424010C9424010C942401A4
:100030000C9424010C9424010C9424010C942401AC
:100040000C9424010C9424010C94EB090C942401CD
:100050000C94310B0C94A90B0C9424010C942401E6
:100060000C9424010C9424010C943C080C9424015D
:100070000C9424010C9424010C9424010000210010
:10008000240027002A0000002200250028002B0061
:1000900000002000230026002900040404040202BA
:1000A0000202040402020202030303030303030324
:1000B000040401010101010101010102040801021E
:1000C00004084020102040808040201008040201D5
:1000D0001080804020100804020100000000000091
:1000E000000108030200090A0000000000000000EF
:1000F0000407000000000000000000407A10F35ADE
:1001000000A0724E18090010A5D4E80000E8764857
:10011000170000E40B54020000CA9A3B000000E103
:10012000F505000080969800000040420F00000096
:10013000A08601000000102700000000E803000076
:1001400000006400000000000A0000000000010040
:10015000000000002C76D888DC674F0823DFC1DF61
:10016000AE59E1B1B796E5E3E453C63AE651997664
:1001700096E8E6C28426EB898C9B62ED407C6FFC9E
:10018000EFBC9C9F40F2BAA56FA5F490055A2AF7E0
:100190005C936B6CF9676DC11BFCE0E40D47FEF5E9
:1001A00020E6B500D0ED902E030094357705008051
:1001B000841E080000204E0A000000C80C333333B0
:1001C000330F986E12831141EF8D2114893BE65550
:1001D00016CFFEE6DB18D1844B381BF77C1D901D33
:1001E000A4BBE424203284725E228100C9F124EC95
:1001F000A1E53D27D806660B11241FBECFEFD0E145
:10020000DEBFCDBF12E0A0E0B1E0E2E5F3E202C064
:1002100005900D92A036B107D9F715E0A0E6B2E03F
:1002200001C01D92A43AB107E1F711E0C8EFD1E097
:1002300004C02297FE010E94110FC43FD107C9F7E5
:100240000E9489010C94A7110C945301FC0107C072
:100250008091C00085FFFCCF31969093C6009081BD
:100260009923B1F7662339F08091C00085FFFCCF58
:100270008AE08093C60008951F920F920FB60F92E6
:1002800011248F930FB6F894A8958091600088612F
:1002900080936000109260000FBE8F910F900FBE90
:1002A0000F901F9018951F920F920FB60F92112466
:1002B0008F9381E28093C600FDCFDF92EF92FF9291
:1002C0000F931F93DF93CF93CDB7DEB72A970FB667
:1002D000F894DEBF0FBECDBF342FD22E4E5F232F3A
:1002E0007E010894E11CF11C87010E94150FC701D3
:1002F0006D2D0E9426012A960FB6F894DEBF0FBE20
:10030000CDBFCF91DF911F910F91FF90EF90DF90C4
:1003100008959F92AF92BF92CF92DF92EF92FF9299
:100320000F931F93CF93DF930E94590A1092C50039
:1003300028E02093C40098E19093C1008EE0809360
:10034000C2001092CD002093CC009093C9008093FE
:10035000CA0086E792E00E94490680E480937C0010
:1003600087E880937A00549A569A2498259826987C
:10037000239A249A5E9A81E692E061E40E94100436
:1003800081E692E061E070E043E050E023E030E09D
:1003900003E010E0E7E0EE2EF12C0E949B0281E6E4
:1003A00092E04DEC5CEC6CEC7DE300E010E020E0D2
:1003B00030E40E94A1038AE0982EC0E9D1E004B69F
:1003C00000FE05C080E091E061E00E94260104B6D5
:1003D00001FE05C080E191E061E00E94260104B6C3
:1003E00002FE05C080E291E061E00E94260104B6B1
:1003F00003FE05C080E391E061E00E94260104B69F
:1004000004FE05C080E491E061E00E94260114BE74
:1004100078948CE491E060E00E94260181E692E00D
:100420000E945A0343E050E020E00E945D018FE506
:1004300091E061E00E94260182E691E060E00E9486
:10044000260181E692E00E94890343E050E020E02B
:100450000E945D018AE791E061E00E9426018DE73C
:1004600091E060E00E94260181E692E00E94710323
:1004700045E050E020E00E945D018CE891E061E001
:100480000E94260180E692E00E94AC047B018C0170
:1004900080E692E00E94D3045B016C018FE891E05A
:1004A00060E00E942601C801B70143E050E021E06E
:1004B0000E945D0185EA91E060E00E942601C6018C
:1004C000B50143E050E021E00E945D018091C00051
:1004D00085FFFCCF9092C60088E893E1FE0131973A
:1004E000F1F70197D9F76BCFDF92EF92FF920F935D
:1004F0001F93FC01F62ED42EE52E04E013E060815C
:10050000772767FD7095C8010E949E06C8016F2D70
:100510000E942007C8016E2D0E942007C8016D2D82
:100520000E942007C8010E9463071F910F91FF904E
:10053000EF90DF900895CF92DF92EF92FF920F93AA
:100540001F93CF93DF93EC0169019B01FA016115C1
:10055000710541F06130710569F480E090E0A0E040
:10056000B2E404C080E090E0A0E8B1E48D879E870B
:10057000AF87B88BE130F105B1F0E230F1051CF442
:100580003097B1F01DC0E230F10541F0E330F105E4
:10059000B9F48AE097EDA3EABEE30EC08AE097EDD6
:1005A000A3E2BEE309C08AE097EDA3EABDE304C07D
:1005B0008AE097EDA3E2BDE389879A87AB87BC8782
:1005C000FE2FEE27FF0FFF0FFF0F322F222732954E
:1005D000330F307EE22BF32BD694DC2CCC24D79433
:1005E000C794EC29FD2983E0000F111F8A95E1F7DC
:1005F000E02BF12BEE29FF29CE0160E0AF010E9434
:10060000740281E0DF91CF911F910F91FF90EF90E5
:10061000DF90CF900895FF920F931F938C01F62ED9
:10062000FC016081772767FD709584E093E00E946C
:100630009E0684E093E06F2D0E94200784E093E003
:100640000E94630761E070E080E090E00E94940AFD
:10065000F8016081772767FD709584E093E00E9440
:100660009E06F8016081772767FD709584E093E02E
:1006700042E050E00E94740784E093E00E94A806E4
:10068000892BD1F384E093E00E94B106F82E84E038
:1006900093E00E94B106082F84E093E00E94630774
:1006A0009F2D80E010E0082B192BC8011F910F919E
:1006B000FF90089562E00E940B03E3E09595879513
:1006C000EA95E1F7AA2797FDA095BA2FBC01CD01C5
:1006D0000E94E00D2FE632E143E85BE30E94AC0E9E
:1006E00008950F931F938C0164E00E940B03AA27C7
:1006F00097FDA095BA2FBC01CD010E94E00DF80135
:1007000021813281438154810E94AC0E1F910F914F
:1007100008950F931F938C0163E00E940B03AA2797
:1007200097FDA095BA2FBC01CD010E94E00DF80104
:1007300025813681478150850E94AC0E1F910F9113
:1007400008958F929F92AF92BF92CF92DF92EF92D5
:10075000FF920F931F936C014A015B01C901B8011D
:10076000F601818A928AA38AB48A20E03EEF4FEF95
:1007700056E40E944A0D20E23CEB4EEB5CE40E9402
:10078000AC0E0E94B20D80E090E00E94DE0D20E2EF
:100790003CEB4EEB5CE40E944A0D27E137EB41ED68
:1007A00058E30E944A0D0E94370D27E137EB41EDD7
:1007B00058E30E94AC0E7B018C01F60161837283C9
:1007C0008383948320E030E040EA51E40E94AC0E41
:1007D000F6016583768387839087C801B701A501F9
:1007E00094010E94AC0E9B01AC016CEA75EC87E2AF
:1007F0009DE30E944A0D0E94B20D9B01AC01C6010F
:1008000065E0A9010E94740281E01F910F91FF90A1
:10081000EF90DF90CF90BF90AF909F908F90089512
:10082000FF920F931F938C01F62E84E093E00E94B9
:100830007807F801F08281E01F910F91FF900895F1
:10084000EF92FF920F931F9380E090E0982F872FF5
:10085000762F6627242F30E040E050E0262B372B00
:10086000482B592BE12C90E8F92E98E9092F112DEE
:1008700067E170E0DA01C901062E04C0B695A795BC
:10088000979587950A94D2F780FF04C02E253F25BF
:1008900040275127615070406730710529F0169547
:1008A0000795F794E794E6CF822F1F910F91FF9061
:1008B000EF9008950F931F93CF93DF93EC01162FC2
:1008C00084E093E060E470E00E949E0684E093E0A0
:1008D000612F0E94200784E093E00E94630710E0EC
:1008E0006AE070E080E090E00E94940A84E093E087
:1008F00060E470E043E050E00E9474071F5F1A302C
:1009000019F466EE73E022C0833051F784E093E07F
:100910000E94B106082F84E093E00E94B106182FD0
:1009200084E093E00E94B106482F902F80E0012FD1
:1009300010E0082B192BCE01B8010E942004882357
:1009400019F067EE73E002C0B8016C7FCB01DF9154
:10095000CF911F910F91089563EF0E945A049C015B
:1009600040E050E0865E9340029728F4CA01B90146
:100970000E94DE0D10C0CA01B9010E94DE0D22E501
:1009800038EB4FE25BE30E94AC0E26E636E64BE323
:1009900052E40E94D20CE62F2E2F372F482F592FCA
:1009A000B901CA01089565EF0E945A049C0140E014
:1009B00050E0865E9340029728F4CA01B9010E9474
:1009C000DE0D10C0CA01B9010E94DE0D20E030E04A
:1009D0004AEF5AE30E94AC0E20E030E040EC50E4D5
:1009E0000E94D20CE62F2E2F372F482F592FB901F6
:1009F000CA010895FC0180917A0290917B028E17C2
:100A00009F0711F480E0089583818E7F83839FB7D1
:100A1000F8941092BC028091BC028093BD02F093C6
:100A20007B02E0937A029FBF81E00895CF92DF922C
:100A3000FF920F931F93CF93DF93DC0113968C915A
:100A40001397E0912C02F0912D0292E0F92EF822FA
:100A500081FF0EC0808190912E0221E030E002C023
:100A6000220F331F9A95E2F7822309F471C00DC05B
:100A7000808190912E0221E030E002C0220F331FCE
:100A80009A95E2F7822309F063C080913302909136
:100A9000340220E001972FEF8F3F9207D9F7C091E2
:100AA0003502D0913602E0912C02F0912D0260E0E7
:100AB00031E040E050E070E001E010E0CE01272F8F
:100AC00001972FEF8F3F9207D9F7208180912E0257
:100AD000680102C0CC0CDD1C8A95E2F72C2111F0D4
:100AE000632B03C0832F80956823330F4F5F5F4FC5
:100AF0004830510519F7809137029091380220E073
:100B000001972FEF8F3F9207D9F7F11060958091F1
:100B1000BC022091BD0290E001968F73907030E08E
:100B20008217930779F0E091BC02F0E0E458FD4FA2
:100B300060838091BC0290E001968F7390708093E7
:100B4000BC0206C013968C911397816013968C9308
:100B5000DF91CF911F910F91FF90DF90CF9008957B
:100B600080917A0290917B02009711F00E94160505
:100B700008951F920F920FB60F9211242F933F9357
:100B80004F935F936F937F938F939F93AF93BF9395
:100B9000EF93FF930E94B005FF91EF91BF91AF914A
:100BA0009F918F917F916F915F914F913F912F9185
:100BB0000F900FBE0F901F9018951F920F920FB6B7
:100BC0000F9211242F933F934F935F936F937F93D3
:100BD0008F939F93AF93BF93EF93FF930E94B005C2
:100BE000FF91EF91BF91AF919F918F917F916F9105
:100BF0005F914F913F912F910F900FBE0F901F90DB
:100C000018951F920F920FB60F9211242F933F93B6
:100C10004F935F936F937F938F939F93AF93BF9304
:100C2000EF93FF930E94B005FF91EF91BF91AF91B9
:100C30009F918F917F916F915F914F913F912F91F4
:100C40000F900FBE0F901F9018951F920F920FB626
:100C50000F9211242F933F934F935F936F937F9342
:100C60008F939F93AF93BF93EF93FF930E94B00531
:100C7000FF91EF91BF91AF919F918F917F916F9174
:100C80005F914F913F912F910F900FBE0F901F904A
:100C90001895BC01E0912802F091290220818091F1
:100CA0002E0241E050E0DA0102C0AA0FBB1F8A9574
:100CB000E2F7CD01809582238083E0912A02F091B2
:100CC0002B02208180912E02DA0102C0AA0FBB1FE5
:100CD0008A95E2F72A2B208380913702909138027F
:100CE000892B29F120916800CA0100902F0202C0CF
:100CF000880F991F0A94E2F7282B20936800E0914F
:100D00003002F091310280810090320202C0440F23
:100D1000551F0A94E2F7842B8083809139029091C9
:100D20003A0220E001972FEF8F3F9207D9F7CB01CE
:100D30000E94FA04089580E090E0089581E0809395
:100D400003036093E00210920103109202030895DE
:100D50002091DF0230E08091DE02281B3109C901B9
:100D600008954091DE028091DF02481718F02FEFBE
:100D70003FEF0AC0E42FF0E0E254FD4F8081282FBE
:100D800030E04F5F4093DE02C9010895E091DE023A
:100D90008091DF02E81718F0EFEFFFEF06C0F0E0F8
:100DA000E254FD4F8081E82FF0E0CF0108950895CF
:100DB000109207031092060388EE93E0A0E0B0E0E3
:100DC0008093080390930903A0930A03B0930B0345
:100DD0008FE392E090930503809304030895CF92EC
:100DE000DF92EF92FF920F931F93CF93DF937C01DB
:100DF0006B018A01809103038823A1F0C0E0D0E059
:100E00000DC0D701ED91FC91D601AC0FBD1F019033
:100E1000F081E02DC7016C9109952196C017D1078B
:100E200080F304C0CB01642F0E942108C801DF9128
:100E3000CF911F910F91FF90EF90DF90CF90089589
:100E4000DF93CF930F92CDB7DEB7FC01698380911A
:100E500003038823C9F080910203803238F081E0D7
:100E600090E09383828320E030E015C080910103FD
:100E7000E82FF0E0EF51FD4F998190838F5F8093D1
:100E800001038093020305C0CE01019661E00E9438
:100E9000210821E030E0C9010F90CF91DF91089542
:100EA0000F93062F8091E00261EE72E04091020301
:100EB00021E00E94CC0710920103109202031092CD
:100EC00003030F91089561E00E9450070895413295
:100ED00008F040E2862F6EEB72E00E9483071092CA
:100EE000DE028093DF02089521E00E9467070895E3
:100EF0001092DE021092DF021092010310920203A0
:100F00000E94CD090895382F413210F040E042C0D0
:100F1000809110038823E1F791E0909310032093D0
:100F200012038FEF80937D0310923803415040935A
:100F300039034F5F9093110380911103330F832B7B
:100F40008093110380911303813041F410921303B5
:100F5000809111038093BB0085EC01C085EE8093E6
:100F6000BC00809110038130E1F380913803841735
:100F700010F44091380320E030E00AC0FB01E20F9A
:100F8000F31FD901A85EBC4F8C9180832F5F3F4F28
:100F90002417A0F3842F08950F931F93582F122F17
:100FA000413210F081E04AC0809110038823E1F7BC
:100FB00082E080931003009312038FEF80937D03F0
:100FC0001092380340933903A8E1B3E0FB0102C05B
:100FD00081918D938E2F861B8417D0F3109211036D
:100FE00080911103550F852B80931103809113037A
:100FF000813041F410921303809111038093BB0060
:1010000085EC01C085EE8093BC00112321F0809116
:1010100010038230E1F380917D038F3F11F480E073
:101020000DC080917D03803211F482E007C0809171
:101030007D03803311F084E001C083E01F910F91A4
:101040000895482F613210F081E0089580911003D7
:10105000843011F082E0089560935B03AAE3B3E06B
:10106000842F9C01F90102C081918D938E2F841BE6
:101070008617D0F380E008951F920F920FB60F925B
:1010800011242F933F934F935F936F937F938F938D
:101090009F93AF93BF93EF93FF938091B90090E03C
:1010A000887F90708036910509F4F2C081369105F1
:1010B000CCF58832910509F47BC089329105B4F4EE
:1010C0008031910509F46FC0813191053CF400979E
:1010D00009F447C1089709F04FC165C088319105EF
:1010E00009F466C0809709F047C182C08034910539
:1010F00009F4A4C08134910544F48033910509F4C6
:1011000082C0C89709F038C189C08035910509F4BB
:1011100089C08835910509F496C08834910509F095
:101120002BC1AEC08839910509F413C189399105E5
:10113000ECF48837910509F4ABC0893791054CF47C
:101140008836910509F4A4C08037910509F014C1CF
:101150009FC08838910509F4FCC08039910509F4D5
:101160009DC08038910509F007C198C0803B91056A
:1011700009F4C6C0813B91054CF4803A910509F40D
:101180009FC0883A910509F0F7C0BAC0803C91052C
:1011900009F4E3C0883C910509F4DFC0883B910560
:1011A00009F0EAC0C2C0809111038093BB00CFC098
:1011B0009091380380913903981768F4909138031F
:1011C000E92FF0E0E85EFC4F80818093BB009F5FD9
:1011D00090933803BCC080911203882309F44BC05C
:1011E00085ED8093BC008091BC0084FDFCCFC2C023
:1011F00080E280937D0385ED8093BC008091BC00EC
:1012000084FDFCCFB7C080E380937D0385ED8093A0
:10121000BC008091BC0084FDFCCFACC088E380930F
:101220007D039BC0809138039091BB00E82FF0E0D4
:10123000E85EFC4F90838F5F809338039091380372
:101240008091390382C0809138039091BB00E82FD0
:10125000F0E0E85EFC4F90838F5F809338038091CD
:101260001203882341F085ED8093BC008091BC007F
:1012700084FDFCCF7FC081E08093130384EA6EC0BD
:1012800085ED8093BC008091BC0084FDFCCF72C0D2
:1012900083E08093100310927C0359C080917C03FB
:1012A000803208F056C080917C039091BB00E82FFB
:1012B000F0E0E45AFC4F90838F5F80937C0347C03B
:1012C00080917C03803230F4E0917C03F0E0E45ABA
:1012D000FC4F108285ED8093BC008091BC0084FDA2
:1012E000FCCF1092100360917C03E0911603F09103
:1012F00017038CE593E070E0099510927C032DC0F4
:1013000084E08093100310925A0310925B03E091E3
:101310001403F0911503099580915B03882329F448
:1013200081E080935B0310923A0390915A03E92F76
:10133000F0E0E65CFC4F80818093BB009F5F909360
:101340005A0390915A0380915B03981710F485EC2F
:1013500001C085E88093BC000FC085EC8093BC0081
:1013600009C010927D0385ED8093BC008091BC0084
:1013700084FDFCCF10921003FF91EF91BF91AF91CC
:101380009F918F917F916F915F914F913F912F919D
:101390000F900FBE0F901F9018951092100381E0D0
:1013A000809312031092130384E161E00E94FE0A0D
:1013B00085E161E00E94FE0AE9EBF0E080818E7F2A
:1013C000808380818D7F808388E48093B80085E46A
:1013D0008093BC0008951F920F920FB60F921124B4
:1013E0002F933F938F939F93AF93BF9380918203EB
:1013F00090918303A0918403B0918503309186037B
:101400000196A11DB11D232F2D5F2D3720F02D57E3
:101410000196A11DB11D20938603809382039093B2
:101420008303A0938403B093850380917E039091FE
:101430007F03A0918003B09181030196A11DB11D8E
:1014400080937E0390937F03A0938003B0938103E6
:10145000BF91AF919F918F913F912F910F900FBEB0
:101460000F901F9018959FB7F89420917E033091AC
:101470007F03409180035091810386B5A89B06C0ED
:101480008F3F21F02F5F3F4F4F4F5F4F9FBF542F34
:10149000432F322F2227280F311D411D511D82E07D
:1014A000220F331F441F551F8A95D1F7B901CA0176
:1014B0000895789484B5826084BD84B5816084BDCC
:1014C00085B5826085BD85B5816085BDEEE6F0E0BD
:1014D000808181608083E1E8F0E010828081826019
:1014E0008083808181608083E0E8F0E0808181609A
:1014F0008083E1EBF0E0808184608083E0EBF0E0CA
:10150000808181608083EAE7F0E08081846080836D
:101510008081826080838081816080838081806817
:1015200080831092C1000895AF92BF92CF92DF9254
:10153000EF92FF920F931F937B018C010E94330A5D
:101540005B016C0120C00E94F90B12C00894E108F5
:10155000F1080109110988EE93E0A0E0B0E0A80EBF
:10156000B91ECA1EDB1EE114F1040105110559F074
:101570000E94330A6A197B098C099D09685E7340D1
:101580008040904018F7E114F10401051105D9F6E7
:101590001F910F91FF90EF90DF90CF90BF90AF9091
:1015A0000895833071F0843028F48130A1F08230C6
:1015B00021F514C08730B1F08830D1F08430E9F4DF
:1015C00004C0809180008F7703C0809180008F7D60
:1015D00080938000089584B58F7702C084B58F7D95
:1015E00084BD08958091B0008F778093B0000895F6
:1015F0008091B0008F7D8093B0000895FF920F938B
:101600001F93F62E482F50E0CA0186529F4FFC01CF
:101610002491CA0186549F4FFC01149146565F4F96
:10162000FA0104910023C9F0222319F0822F0E94AD
:10163000D10AE02FF0E0EE0FFF1FEA57FF4FA59110
:10164000B4919FB7F894FF2021F48C9110958123D9
:1016500002C08C91812B8C939FBF1F910F91FF90A3
:1016600008951F920F920FB60F9211242F938F930C
:101670009F93EF93FF93E0919703F09198038081FC
:1016800082FD15C0E0919D03F0919E032081909111
:10169000A0039F5F8091A103981771F0E091A003D0
:1016A000F0E0E957FC4F258F9093A00305C0E0912F
:1016B0009D03F0919E03E081FF91EF919F918F91A7
:1016C0002F910F900FBE0F901F90189510928A03C4
:1016D0001092890388EE93E0A0E0B0E080938B0342
:1016E00090938C03A0938D03B0938E0381E592E0D9
:1016F000909388038093870385EC90E09093940304
:101700008093930384EC90E09093960380939503E9
:1017100080EC90E0909398038093970381EC90E0A5
:1017200090939A038093990382EC90E090939C03AA
:1017300080939B0386EC90E090939E0380939D039F
:101740001092A0031092A1031092A2031092A3037F
:1017500008951F920F920FB60F9211242F933F936B
:101760004F935F936F937F938F939F93AF93BF93A9
:10177000EF93FF9387E893E00E94FA0BFF91EF91BC
:10178000BF91AF919F918F917F916F915F914F9199
:101790003F912F910F900FBE0F901F901895CF92F1
:1017A000DF92EF92FF920F931F93CF93DF937C0111
:1017B0008B016A01C0E0D0E00FC0D701ED91FC9130
:1017C0000190F081E02DC701D8016C910995892B1A
:1017D00031F00F5F1F4F2196CC16DD0671F7CE0159
:1017E000DF91CF911F910F91FF90EF90DF90CF90FD
:1017F00008950895DC015C968C915C97FD01E80FDB
:10180000F11DE35EFE4F90815C968C915C978F5F3B
:101810005C968C935C975696ED91FC9157979083CC
:101820005096ED91FC9151978081806480835B9606
:101830009C915B975C968C915C97981739F45296C3
:10184000ED91FC91539780818F7D80830895FC01F9
:10185000218D828D30E020503F4F281B31093070A0
:10186000C9010895FC01918D828D981719F42FEF0D
:101870003FEF06C0828DE80FF11D858D282F30E0E7
:10188000C9010895DC0159969C9159975A968C91FB
:101890005A97981719F42FEF3FEF0FC05A968C9173
:1018A0005A97FD01E80FF11D958D5A968C915A9724
:1018B0008F5F5A968C93292F30E0C9010895FC015F
:1018C000938D848D282F30E0492F50E0981718F021
:1018D00021503F4F02C021503040241B350BC9011D
:1018E0000895CF93DF93EC01888D882361F419C0AC
:1018F0008C9185FF0AC0E889F989808185FF05C040
:10190000CE010E94FA0BAA89BB898C9185FD05C086
:10191000E889F989808186FD04C00FB607FEE8CF0B
:10192000F4CFDF91CF9108950F931F93CF93DF935F
:10193000EC01062F81E0888F9B8D8C8D981779F5AF
:10194000E889F989808185FF2AC0EE89FF89608353
:10195000E889F989808180641AC00FB607FC08C045
:10196000E889F989808185FF03C0CE010E94FA0BC6
:101970008C8D181791F38B8DFE01E80FF11DE35E3E
:10198000FE4F00831B8FEA89FB8980818062808300
:1019900081E090E0DF91CF911F910F9108951B8D11
:1019A0001F5FE6CF5058BB27AA270ED084C175D140
:1019B00030F07AD120F031F49F3F11F41EF46AC167
:1019C0000EF4E095E7FB37C1E92F86D180F3BA1713
:1019D000620773078407950718F071F49EF5B5C187
:1019E0000EF4E0950B2EBA2FA02D0B01B90190013A
:1019F0000C01CA01A0011124FF27591B99F0593F7E
:101A000050F4503E68F11A16F040A22F232F342FC5
:101A10004427585FF3CF469537952795A795F04013
:101A20005395C9F77EF41F16BA0B620B730B840B28
:101A3000BAF09150A1F0FF0FBB1F661F771F881FE0
:101A4000C2F70EC0BA0F621F731F841F48F4879538
:101A500077956795B795F7959E3F08F0B3CF939527
:101A6000880F08F09927EE0F97958795089556D11E
:101A700080F09F3740F491110EF468C160E070E08F
:101A800080E89FE3089526F01B16611D711D811DDE
:101A9000D8C0F2C00CD00FC107D140F0FED030F05A
:101AA00021F45F3F19F0C7C0511150C1F3C014D1E8
:101AB00098F39923C9F35523B1F3951B550BBB2715
:101AC000AA2762177307840738F09F5F5F4F220FC2
:101AD000331F441FAA1FA9F333D00E2E3AF0E0E8BB
:101AE00030D091505040E695001CCAF729D0FE2F07
:101AF00027D0660F771F881FBB1F26173707480799
:101B0000AB07B0E809F0BB0B802DBF01FF2793584E
:101B10005F4F2AF09E3F510568F08DC017C15F3FAF
:101B2000ECF3983EDCF3869577956795B795F79536
:101B30009F5FC9F7880F911D9695879597F908952E
:101B4000E1E0660F771F881FBB1F621773078407CA
:101B5000BA0720F0621B730B840BBA0BEE1F88F7D9
:101B6000E0950895C1D088F09F5790F0B92F99273C
:101B7000B751A0F0D1F0660F771F881F991F1AF098
:101B8000BA95C9F712C0B13081F0DFD0B1E0089545
:101B9000DCC0672F782F8827B85F39F0B93FCCF3C6
:101BA000869577956795B395D9F73EF4909580958E
:101BB000709561957F4F8F4F9F4F0895E89409C0AE
:101BC00097FB3EF490958095709561957F4F8F4F70
:101BD0009F4F9923A9F0F92F96E9BB279395F69586
:101BE000879577956795B795F111F8CFFAF4BB0F04
:101BF00011F460FF1BC06F5F7F4F8F4F9F4F16C068
:101C0000882311F096E911C0772321F09EE8872FF1
:101C1000762F05C0662371F096E8862F70E060E0AD
:101C20002AF09A95660F771F881FDAF7880F969526
:101C3000879597F9089597F99F6780E870E060E0CD
:101C40000895882371F4772321F09850872B762FFD
:101C500007C0662311F499270DC09051862B70E0C0
:101C600060E02AF09A95660F771F881FDAF7880FD1
:101C70009695879597F908959F3F31F0915020F4FC
:101C8000879577956795B795880F911D9695879558
:101C900097F908959FEF80EC089500240A94161692
:101CA000170618060906089500240A94121613064A
:101CB000140605060895092E0394000C11F48823D8
:101CC00052F0BB0F40F4BF2B11F460FF04C06F5FF4
:101CD0007F4F8F4F9F4F089557FD9058440F551FCA
:101CE00059F05F3F71F04795880F97FB991F61F09E
:101CF0009F3F79F087950895121613061406551F15
:101D0000F2CF4695F1DF08C0161617061806991F80
:101D1000F1CF86957105610508940895E5DFA0F07F
:101D2000BEE7B91788F4BB279F3860F41616B11DBB
:101D3000672F782F8827985FF7CF869577956795D7
:101D4000B11D93959639C8F30895E894BB2766278B
:101D50007727CB0197F908950BD0ADCF9EDF28F000
:101D6000A3DF18F0952309F066CF94CF1124EECFAE
:101D7000B3DFA0F3959FD1F3950F50E0551F629FFD
:101D8000F001729FBB27F00DB11D639FAA27F00DD4
:101D9000B11DAA1F649F6627B00DA11D661F829FFB
:101DA0002227B00DA11D621F739FB00DA11D621FE0
:101DB000839FA00D611D221F749F3327A00D611DFD
:101DC000231F849F600D211D822F762F6A2F1124DF
:101DD0009F5750408AF0E1F088234AF0EE0FFF1F32
:101DE000BB1F661F771F881F91505040A9F79E3F69
:101DF000510570F020CFAACF5F3FECF3983EDCF3A3
:101E0000869577956795B795F795E7959F5FC1F7A5
:101E1000FE2B880F911D9695879597F90895EE0FE3
:101E2000FF1F0590F491E02D0994EF92FF920F931C
:101E30001F93F22FF02E47FD02C0E4E001C0E4E161
:101E4000242F332727FD309537FF03C03095219588
:101E50003F4F4F2D512F0F2FEE2E0E94360F8F2DFB
:101E6000912F1F910F91FF90EF900895A9E0B0E09E
:101E7000ECE3FFE00C9474116A01122FA02EBE2C2B
:101E80002BE3201718F42CE3922E02C0902E93948B
:101E9000AE014F5F5F4F27E0092D0E949810BC01F3
:101EA0008981E82EFF24C70189709070019711F491
:101EB000ADE209C0B1FE02C0ABE205C0B0FC02C099
:101EC000A0E001C0A0E2E3FE3BC0AA2311F423E09E
:101ED00001C024E0211710F020E002C0121B212FC6
:101EE000EB2CB4FE02C0322F0AC0F601322F80E282
:101EF00002C0819331503323E1F7C20ED11CAA23D3
:101F000019F0F601A1936F01F6013196E2FE05C0CA
:101F10009EE4D6019C9381E404C09EE6D6019C9386
:101F200081E611968C9391833296DF01832F90E2A4
:101F300002C09D9381508823E1F7E30FF11D40C05B
:101F4000E2FE42C0AA2311F423E001C024E02117DD
:101F500010F020E002C0121B212FEB2CB4FE02C0B7
:101F6000922F0AC0F601922F80E202C08193915015
:101F70009923E1F7C20ED11CAA2319F0F601A1930F
:101F80006F01F6013196E2FE08C089E4D6018C9318
:101F90008EE411968C9386E407C089E6D6018C9373
:101FA0008EE611968C9386E681833296DF01892F27
:101FB00020E202C02D9381508823E1F7E90FF11D43
:101FC00010822EEF3FEFAFC0161617061CF041E04F
:101FD00050E003C0AB014F5F5F4FAA2019F480E0CF
:101FE00090E003C08A2D90E0019620E030E0AA2323
:101FF00011F021E030E0240F351F280F391F812F09
:1020000090E02817390714F020E002C0121B212F9E
:102010004B2D50E0CA0180719070B4FC0DC0B3FC30
:102020000BC0F601322F40E202C0419331503323FE
:10203000E1F7C20ED11C01C0322FAA2319F0F6011C
:10204000A1936F01892B11F0132F0AC0F601132FF2
:1020500080E302C0819311501123E1F7C30ED11C1C
:10206000092D060FBA8090E1892E912C8E209F2099
:10207000E4FE04C0F1E3BF1609F40150101614F099
:1020800001E003C0093008F008E09B0177FF02C0BF
:1020900020E030E0CB010196821B930BFE013196CC
:1020A000E80FF91F8EE2F82E3B01601A71088A2DA5
:1020B00090E044275527481B590B8FEF2F3F3807D7
:1020C00019F4D601FD926D01621773072CF06216A8
:1020D000730614F4808101C080E3215030403196B2
:1020E0002417350724F0D6018D936D01E6CF26170E
:1020F000370749F4B5E3BB1528F0BB1621F481146A
:10210000910409F481E3F6018193D601812F90E2D5
:1021100002C09C93815011968823D9F7E10FF11DDD
:10212000108220E030E0C9012996EEE00C94901175
:10213000283008F027E03327DA01990F311D87FD99
:10214000916000966105710539F432602E5F3D9310
:1021500030E32A95E1F708959F3F30F0803871050C
:10216000610509F03C5F3C5F3D93913008F0806869
:10217000911DDF93CF931F930F93FF92EF92192F2F
:10218000987F9695E92F96959695E90FFF27EC5A3B
:10219000FE4F99273327EE24FF24A701E70105907E
:1021A0000894079428F4360FE71EF81E491F511DA6
:1021B000660F771F881F991F0694A1F70590079453
:1021C00028F4E70EF81E491F561FC11D770F881F00
:1021D000991F661F0694A1F70590079428F4F80E3E
:1021E000491F561FC71FD11D880F991F661F771FD4
:1021F0000694A1F70590079420F4490F561FC71FB6
:10220000D81F990F661F771F881F0694A9F784911E
:102210001095177041F0D695C79557954795F79447
:10222000E7941A95C1F7EAEFF0E0689415901591DC
:1022300035916591959105907FE27395E118F10ACA
:10224000430B560BC90BD009C0F7E10CF11E431F1D
:10225000561FC91FD01D7EF4703311F48A95E6CF46
:10226000E894015030F0080F0AF40027021708F430
:10227000202F2395022F7A3328F079E37D932A9536
:10228000E9F710C07D932A9589F60694979567958E
:10229000379517951794E118F10A430B560BC90BA4
:1022A000D00998F023957E9173957A3308F070E306
:1022B0007C932013B8F77E9170617D9330F0839505
:1022C00071E37D9370E32A95E1F71124EF90FF907D
:1022D0000F911F91CF91DF91992787FD90950895D8
:1022E0002F923F924F925F926F927F928F929F9226
:1022F000AF92BF92CF92DF92EF92FF920F931F9314
:10230000CF93DF93CDB7DEB7CA1BDB0B0FB6F894C4
:10231000DEBF0FBECDBF09942A88398848885F8404
:102320006E847D848C849B84AA84B984C884DF8075
:10233000EE80FD800C811B81AA81B981CE0FD11D59
:102340000FB6F894DEBF0FBECDBFED010895F8942F
:02235000FFCFBD
:10235200506F7765722D6F6E207265736574210000
:1023620045787465726E616C2072657365742100C4
:1023720042726F776E6F7574207265736574210097
:102382005761746368646F672072657365742100B6
:102392004A5441472072657365742100536F757208
:1023A200636520766F6C746167653A202020002097
:1023B2005600506F77657220436F6E73756D70743F
:1023C200696F6E3A2020202020002057004375724A
:1023D20072656E7420447261773A20002041004297
:1023E2006F6172642054656D706572617475726597
:1023F2003A2020200048756D69646974793A20207A
:1024020020005363616E6E696E672E2E2E00493274
:10241200432064657669636520666F756E6420612A
:102422007420616464726573732028646563696DE6
:10243200616C292000202100556E6B6E6F776E2033
:102442006572726F72206174206164647265737365
:102452002028646563696D616C2920004E6F2049F4
:102462003243206465766963657320666F756E64B6
:102472000A00646F6E650A00240025002300020131
:102482006C00027200EC00EC00E900000000002089
:1024920007EF069B06D706A806B106C6060000008F
:1024A20000940CCF0B5F0C710C270C420C320C0009
:00000001FF
